{
  "_format": "hh-sol-artifact-1",
  "contractName": "CvhForwarder",
  "sourceName": "contracts/CvhForwarder.sol",
  "abi": [
    {
      "inputs": [],
      "stateMutability": "nonpayable",
      "type": "constructor"
    },
    {
      "inputs": [],
      "name": "AlreadyInitialized",
      "type": "error"
    },
    {
      "inputs": [],
      "name": "CallFailed",
      "type": "error"
    },
    {
      "inputs": [],
      "name": "FlushFailed",
      "type": "error"
    },
    {
      "inputs": [],
      "name": "NotAllowed",
      "type": "error"
    },
    {
      "inputs": [],
      "name": "NotParent",
      "type": "error"
    },
    {
      "inputs": [],
      "name": "ReentrancyGuardReentrantCall",
      "type": "error"
    },
    {
      "inputs": [],
      "name": "TooManyTokens",
      "type": "error"
    },
    {
      "inputs": [],
      "name": "TransferFailed",
      "type": "error"
    },
    {
      "inputs": [],
      "name": "ZeroFeeAddress",
      "type": "error"
    },
    {
      "inputs": [],
      "name": "ZeroParentAddress",
      "type": "error"
    },
    {
      "anonymous": false,
      "inputs": [
        {
          "indexed": false,
          "internalType": "bool",
          "name": "enabled",
          "type": "bool"
        }
      ],
      "name": "AutoFlush1155Changed",
      "type": "event"
    },
    {
      "anonymous": false,
      "inputs": [
        {
          "indexed": false,
          "internalType": "bool",
          "name": "enabled",
          "type": "bool"
        }
      ],
      "name": "AutoFlush721Changed",
      "type": "event"
    },
    {
      "anonymous": false,
      "inputs": [
        {
          "indexed": false,
          "internalType": "address",
          "name": "from",
          "type": "address"
        },
        {
          "indexed": false,
          "internalType": "uint256",
          "name": "value",
          "type": "uint256"
        }
      ],
      "name": "ForwarderDeposited",
      "type": "event"
    },
    {
      "stateMutability": "payable",
      "type": "fallback"
    },
    {
      "inputs": [],
      "name": "autoFlush1155",
      "outputs": [
        {
          "internalType": "bool",
          "name": "",
          "type": "bool"
        }
      ],
      "stateMutability": "view",
      "type": "function"
    },
    {
      "inputs": [],
      "name": "autoFlush721",
      "outputs": [
        {
          "internalType": "bool",
          "name": "",
          "type": "bool"
        }
      ],
      "stateMutability": "view",
      "type": "function"
    },
    {
      "inputs": [
        {
          "internalType": "address[]",
          "name": "tokenContractAddresses",
          "type": "address[]"
        }
      ],
      "name": "batchFlushERC20Tokens",
      "outputs": [],
      "stateMutability": "nonpayable",
      "type": "function"
    },
    {
      "inputs": [
        {
          "internalType": "address",
          "name": "target",
          "type": "address"
        },
        {
          "internalType": "uint256",
          "name": "value",
          "type": "uint256"
        },
        {
          "internalType": "bytes",
          "name": "data",
          "type": "bytes"
        }
      ],
      "name": "callFromParent",
      "outputs": [
        {
          "internalType": "bytes",
          "name": "",
          "type": "bytes"
        }
      ],
      "stateMutability": "nonpayable",
      "type": "function"
    },
    {
      "inputs": [],
      "name": "feeAddress",
      "outputs": [
        {
          "internalType": "address",
          "name": "",
          "type": "address"
        }
      ],
      "stateMutability": "view",
      "type": "function"
    },
    {
      "inputs": [],
      "name": "flush",
      "outputs": [],
      "stateMutability": "nonpayable",
      "type": "function"
    },
    {
      "inputs": [
        {
          "internalType": "address",
          "name": "tokenContractAddress",
          "type": "address"
        },
        {
          "internalType": "uint256",
          "name": "tokenId",
          "type": "uint256"
        }
      ],
      "name": "flushERC1155Tokens",
      "outputs": [],
      "stateMutability": "nonpayable",
      "type": "function"
    },
    {
      "inputs": [
        {
          "internalType": "address",
          "name": "tokenContractAddress",
          "type": "address"
        },
        {
          "internalType": "uint256",
          "name": "tokenId",
          "type": "uint256"
        }
      ],
      "name": "flushERC721Token",
      "outputs": [],
      "stateMutability": "nonpayable",
      "type": "function"
    },
    {
      "inputs": [
        {
          "internalType": "address",
          "name": "tokenContractAddress",
          "type": "address"
        }
      ],
      "name": "flushTokens",
      "outputs": [],
      "stateMutability": "nonpayable",
      "type": "function"
    },
    {
      "inputs": [
        {
          "internalType": "address",
          "name": "_parentAddress",
          "type": "address"
        },
        {
          "internalType": "address",
          "name": "_feeAddress",
          "type": "address"
        },
        {
          "internalType": "bool",
          "name": "_autoFlush721",
          "type": "bool"
        },
        {
          "internalType": "bool",
          "name": "_autoFlush1155",
          "type": "bool"
        }
      ],
      "name": "init",
      "outputs": [],
      "stateMutability": "nonpayable",
      "type": "function"
    },
    {
      "inputs": [],
      "name": "initialized",
      "outputs": [
        {
          "internalType": "bool",
          "name": "",
          "type": "bool"
        }
      ],
      "stateMutability": "view",
      "type": "function"
    },
    {
      "inputs": [
        {
          "internalType": "address",
          "name": "",
          "type": "address"
        },
        {
          "internalType": "address",
          "name": "",
          "type": "address"
        },
        {
          "internalType": "uint256[]",
          "name": "ids",
          "type": "uint256[]"
        },
        {
          "internalType": "uint256[]",
          "name": "values",
          "type": "uint256[]"
        },
        {
          "internalType": "bytes",
          "name": "",
          "type": "bytes"
        }
      ],
      "name": "onERC1155BatchReceived",
      "outputs": [
        {
          "internalType": "bytes4",
          "name": "",
          "type": "bytes4"
        }
      ],
      "stateMutability": "nonpayable",
      "type": "function"
    },
    {
      "inputs": [
        {
          "internalType": "address",
          "name": "",
          "type": "address"
        },
        {
          "internalType": "address",
          "name": "",
          "type": "address"
        },
        {
          "internalType": "uint256",
          "name": "id",
          "type": "uint256"
        },
        {
          "internalType": "uint256",
          "name": "value",
          "type": "uint256"
        },
        {
          "internalType": "bytes",
          "name": "",
          "type": "bytes"
        }
      ],
      "name": "onERC1155Received",
      "outputs": [
        {
          "internalType": "bytes4",
          "name": "",
          "type": "bytes4"
        }
      ],
      "stateMutability": "nonpayable",
      "type": "function"
    },
    {
      "inputs": [
        {
          "internalType": "address",
          "name": "",
          "type": "address"
        },
        {
          "internalType": "address",
          "name": "",
          "type": "address"
        },
        {
          "internalType": "uint256",
          "name": "tokenId",
          "type": "uint256"
        },
        {
          "internalType": "bytes",
          "name": "",
          "type": "bytes"
        }
      ],
      "name": "onERC721Received",
      "outputs": [
        {
          "internalType": "bytes4",
          "name": "",
          "type": "bytes4"
        }
      ],
      "stateMutability": "nonpayable",
      "type": "function"
    },
    {
      "inputs": [],
      "name": "parentAddress",
      "outputs": [
        {
          "internalType": "address payable",
          "name": "",
          "type": "address"
        }
      ],
      "stateMutability": "view",
      "type": "function"
    },
    {
      "inputs": [
        {
          "internalType": "bool",
          "name": "_autoFlush1155",
          "type": "bool"
        }
      ],
      "name": "setAutoFlush1155",
      "outputs": [],
      "stateMutability": "nonpayable",
      "type": "function"
    },
    {
      "inputs": [
        {
          "internalType": "bool",
          "name": "_autoFlush721",
          "type": "bool"
        }
      ],
      "name": "setAutoFlush721",
      "outputs": [],
      "stateMutability": "nonpayable",
      "type": "function"
    },
    {
      "inputs": [
        {
          "internalType": "bytes4",
          "name": "interfaceId",
          "type": "bytes4"
        }
      ],
      "name": "supportsInterface",
      "outputs": [
        {
          "internalType": "bool",
          "name": "",
          "type": "bool"
        }
      ],
      "stateMutability": "view",
      "type": "function"
    },
    {
      "stateMutability": "payable",
      "type": "receive"
    }
  ],
  "bytecode": "0x6080604052348015600e575f5ffd5b5060017f9b779b17422d0df92223018b32b4d1fa46e071723d6817e2486d003becc55f00555f805460ff191660011790556118e38061004c5f395ff3fe60806040526004361061012b575f3560e01c806371350aa1116100a4578063bad23ab911610073578063c59f9f1911610058578063c59f9f191461038a578063f23a6e61146103a9578063f684e1ed146103c85761016b565b8063bad23ab91461034b578063bc197c811461036b5761016b565b806371350aa1146102c257806377e60b35146102e15780638972c17c1461030d5780638acc01be1461032c5761016b565b8063159e44d7116100fb5780633ef13367116100e05780633ef1336714610270578063412753581461028f5780636b9f96ea146102ae5761016b565b8063159e44d7146102325780632f738284146102515761016b565b8062821de31461017357806301ffc9a7146101b3578063150b7a02146101e2578063158ef93e1461021a5761016b565b3661016b576101386103e8565b610140610416565b61016960017f9b779b17422d0df92223018b32b4d1fa46e071723d6817e2486d003becc55f0055565b005b6101386103e8565b34801561017e575f5ffd5b505f546101969061010090046001600160a01b031681565b6040516001600160a01b0390911681526020015b60405180910390f35b3480156101be575f5ffd5b506101d26101cd36600461138b565b6104e9565b60405190151581526020016101aa565b3480156101ed575f5ffd5b506102016101fc366004611419565b610553565b6040516001600160e01b031990911681526020016101aa565b348015610225575f5ffd5b505f546101d29060ff1681565b34801561023d575f5ffd5b5061016961024c366004611483565b610766565b34801561025c575f5ffd5b5061016961026b3660046114b8565b61081d565b34801561027b575f5ffd5b5061016961028a36600461150d565b61095a565b34801561029a575f5ffd5b50600154610196906001600160a01b031681565b3480156102b9575f5ffd5b50610169610a63565b3480156102cd575f5ffd5b506101696102dc366004611567565b610ae6565b3480156102ec575f5ffd5b506103006102fb3660046115a6565b610c8e565b6040516101aa91906115fc565b348015610318575f5ffd5b50610169610327366004611483565b610d7b565b348015610337575f5ffd5b50610169610346366004611631565b610ed8565b348015610356575f5ffd5b506001546101d290600160a81b900460ff1681565b348015610376575f5ffd5b5061020161038536600461164c565b610f78565b348015610395575f5ffd5b506101696103a4366004611631565b61106e565b3480156103b4575f5ffd5b506102016103c336600461170b565b61111e565b3480156103d3575f5ffd5b506001546101d290600160a01b900460ff1681565b6103f0611204565b60027f9b779b17422d0df92223018b32b4d1fa46e071723d6817e2486d003becc55f0055565b4780156104e6575f80546040516101009091046001600160a01b03169083908381818185875af1925050503d805f811461046b576040519150601f19603f3d011682016040523d82523d5f602084013e610470565b606091505b50509050806104ab576040517fd51bb48500000000000000000000000000000000000000000000000000000000815260040160405180910390fd5b60408051308152602081018490527f8b49d864d6a7bf201ff87e7435d3f13b748b81cc6ee0cb5a804da1667587d9ef910160405180910390a1505b50565b5f6001600160e01b03198216630a85bd0160e11b148061053257506001600160e01b031982167f4e2312e000000000000000000000000000000000000000000000000000000000145b8061054d57506301ffc9a760e01b6001600160e01b03198316145b92915050565b5f61055c6103e8565b600154600160a01b900460ff161561072b575f546040516301ffc9a760e01b8152630a85bd0160e11b60048201526101009091046001600160a01b0316906301ffc9a790602401602060405180830381865afa9250505080156105dc575060408051601f3d908101601f191682019092526105d99181019061177e565b60015b61064d575f546040516323b872dd60e01b81523060048201526101009091046001600160a01b031660248201526044810185905233906323b872dd906064015f604051808303815f87803b158015610632575f5ffd5b505af1158015610644573d5f5f3e3d5ffd5b5050505061072b565b80156106c0575f54604051632142170760e11b81523060048201526101009091046001600160a01b031660248201526044810186905233906342842e0e906064015f604051808303815f87803b1580156106a5575f5ffd5b505af11580156106b7573d5f5f3e3d5ffd5b50505050610729565b5f546040516323b872dd60e01b81523060048201526101009091046001600160a01b031660248201526044810186905233906323b872dd906064015f604051808303815f87803b158015610712575f5ffd5b505af1158015610724573d5f5f3e3d5ffd5b505050505b505b50630a85bd0160e11b61075d60017f9b779b17422d0df92223018b32b4d1fa46e071723d6817e2486d003becc55f0055565b95945050505050565b5f5461010090046001600160a01b0316331480159061079057506001546001600160a01b03163314155b156107ae57604051631eb49d6d60e11b815260040160405180910390fd5b5f54604051632142170760e11b81523060048201526101009091046001600160a01b039081166024830152604482018390528316906342842e0e906064015f604051808303815f87803b158015610803575f5ffd5b505af1158015610815573d5f5f3e3d5ffd5b505050505050565b5f5460ff1615610859576040517f0dc149f000000000000000000000000000000000000000000000000000000000815260040160405180910390fd5b6001600160a01b038416610899576040517fb0014c0700000000000000000000000000000000000000000000000000000000815260040160405180910390fd5b6001600160a01b0383166108d9576040517fffd7845300000000000000000000000000000000000000000000000000000000815260040160405180910390fd5b5f8054600180546001600160a01b038781167fffffffffffffffffffffff00000000000000000000000000000000000000000092831617600160a01b881515021760ff60a81b1916600160a81b8715150217835592166101009288169290920260ff19169190911717905547801561095357610953610416565b5050505050565b5f5461010090046001600160a01b0316331480159061098457506001546001600160a01b03163314155b156109a257604051631eb49d6d60e11b815260040160405180910390fd5b6109aa6103e8565b6040516370a0823160e01b815230600482015281905f906001600160a01b038316906370a0823190602401602060405180830381865afa1580156109f0573d5f5f3e3d5ffd5b505050506040513d601f19601f82011682018060405250810190610a149190611799565b90508015610a38575f54610a3890849061010090046001600160a01b03168361125f565b50506104e660017f9b779b17422d0df92223018b32b4d1fa46e071723d6817e2486d003becc55f0055565b5f5461010090046001600160a01b03163314801590610a8d57506001546001600160a01b03163314155b15610aab57604051631eb49d6d60e11b815260040160405180910390fd5b610ab36103e8565b610abb610416565b610ae460017f9b779b17422d0df92223018b32b4d1fa46e071723d6817e2486d003becc55f0055565b565b5f5461010090046001600160a01b03163314801590610b1057506001546001600160a01b03163314155b15610b2e57604051631eb49d6d60e11b815260040160405180910390fd5b610b366103e8565b60ff811115610b71576040517f748e67b200000000000000000000000000000000000000000000000000000000815260040160405180910390fd5b5f5b81811015610c60575f838383818110610b8e57610b8e6117b0565b9050602002016020810190610ba3919061150d565b6040516370a0823160e01b81523060048201529091505f906001600160a01b038316906370a0823190602401602060405180830381865afa158015610bea573d5f5f3e3d5ffd5b505050506040513d601f19601f82011682018060405250810190610c0e9190611799565b90508015610c5657610c56858585818110610c2b57610c2b6117b0565b9050602002016020810190610c40919061150d565b5f5461010090046001600160a01b03168361125f565b5050600101610b73565b50610c8a60017f9b779b17422d0df92223018b32b4d1fa46e071723d6817e2486d003becc55f0055565b5050565b5f5460609061010090046001600160a01b03163314610cd9576040517f3813fcca00000000000000000000000000000000000000000000000000000000815260040160405180910390fd5b5f5f866001600160a01b0316868686604051610cf69291906117dd565b5f6040518083038185875af1925050503d805f8114610d30576040519150601f19603f3d011682016040523d82523d5f602084013e610d35565b606091505b509150915081610d71576040517f3204506f00000000000000000000000000000000000000000000000000000000815260040160405180910390fd5b9695505050505050565b5f5461010090046001600160a01b03163314801590610da557506001546001600160a01b03163314155b15610dc357604051631eb49d6d60e11b815260040160405180910390fd5b6040517efdd58e000000000000000000000000000000000000000000000000000000008152306004820152602481018290525f906001600160a01b0384169062fdd58e90604401602060405180830381865afa158015610e25573d5f5f3e3d5ffd5b505050506040513d601f19601f82011682018060405250810190610e499190611799565b90508015610ed3575f8054604051637921219560e11b81523060048201526001600160a01b0361010090920482166024820152604481018590526064810184905260a0608482015260a481019290925284169063f242432a9060c4015f604051808303815f87803b158015610ebc575f5ffd5b505af1158015610ece573d5f5f3e3d5ffd5b505050505b505050565b5f5461010090046001600160a01b03163314801590610f0257506001546001600160a01b03163314155b15610f2057604051631eb49d6d60e11b815260040160405180910390fd5b60018054821515600160a81b0260ff60a81b199091161790556040517fa62405eda2c09b96149a133481e2b5ea231aff2adac78e7e1c9f5b851870430390610f6d90831515815260200190565b60405180910390a150565b5f610f816103e8565b600154600160a81b900460ff1615611017575f546040517f2eb2c2d60000000000000000000000000000000000000000000000000000000081523391632eb2c2d691610fe99130916101009091046001600160a01b0316908c908c908c908c90600401611835565b5f604051808303815f87803b158015611000575f5ffd5b505af1158015611012573d5f5f3e3d5ffd5b505050505b507fbc197c810000000000000000000000000000000000000000000000000000000061106260017f9b779b17422d0df92223018b32b4d1fa46e071723d6817e2486d003becc55f0055565b98975050505050505050565b5f5461010090046001600160a01b0316331480159061109857506001546001600160a01b03163314155b156110b657604051631eb49d6d60e11b815260040160405180910390fd5b60018054821515600160a01b027fffffffffffffffffffffff00ffffffffffffffffffffffffffffffffffffffff9091161790556040517fbbb7169830eff786d20904005bd791daed95dc0143ebdae4e4bb3ff1bf7b98ca90610f6d90831515815260200190565b5f6111276103e8565b600154600160a81b900460ff16156111b9575f8054604051637921219560e11b81523060048201526101009091046001600160a01b03166024820152604481018790526064810186905260a0608482015260a4810191909152339063f242432a9060c4015f604051808303815f87803b1580156111a2575f5ffd5b505af11580156111b4573d5f5f3e3d5ffd5b505050505b507ff23a6e6100000000000000000000000000000000000000000000000000000000610d7160017f9b779b17422d0df92223018b32b4d1fa46e071723d6817e2486d003becc55f0055565b7f9b779b17422d0df92223018b32b4d1fa46e071723d6817e2486d003becc55f0054600203610ae4576040517f3ee5aeb500000000000000000000000000000000000000000000000000000000815260040160405180910390fd5b604080516001600160a01b038481166024830152604480830185905283518084039091018152606490920183526020820180517bffffffffffffffffffffffffffffffffffffffffffffffffffffffff167fa9059cbb0000000000000000000000000000000000000000000000000000000017905291515f928392908716916112e89190611897565b5f604051808303815f865af19150503d805f8114611321576040519150601f19603f3d011682016040523d82523d5f602084013e611326565b606091505b509150915081158061135457505f8151118015611354575080806020019051810190611352919061177e565b155b15610953576040517f90b8ec1800000000000000000000000000000000000000000000000000000000815260040160405180910390fd5b5f6020828403121561139b575f5ffd5b81356001600160e01b0319811681146113b2575f5ffd5b9392505050565b80356001600160a01b03811681146113cf575f5ffd5b919050565b5f5f83601f8401126113e4575f5ffd5b50813567ffffffffffffffff8111156113fb575f5ffd5b602083019150836020828501011115611412575f5ffd5b9250929050565b5f5f5f5f5f6080868803121561142d575f5ffd5b611436866113b9565b9450611444602087016113b9565b935060408601359250606086013567ffffffffffffffff811115611466575f5ffd5b611472888289016113d4565b969995985093965092949392505050565b5f5f60408385031215611494575f5ffd5b61149d836113b9565b946020939093013593505050565b80151581146104e6575f5ffd5b5f5f5f5f608085870312156114cb575f5ffd5b6114d4856113b9565b93506114e2602086016113b9565b925060408501356114f2816114ab565b91506060850135611502816114ab565b939692955090935050565b5f6020828403121561151d575f5ffd5b6113b2826113b9565b5f5f83601f840112611536575f5ffd5b50813567ffffffffffffffff81111561154d575f5ffd5b6020830191508360208260051b8501011115611412575f5ffd5b5f5f60208385031215611578575f5ffd5b823567ffffffffffffffff81111561158e575f5ffd5b61159a85828601611526565b90969095509350505050565b5f5f5f5f606085870312156115b9575f5ffd5b6115c2856113b9565b935060208501359250604085013567ffffffffffffffff8111156115e4575f5ffd5b6115f0878288016113d4565b95989497509550505050565b602081525f82518060208401528060208501604085015e5f604082850101526040601f19601f83011684010191505092915050565b5f60208284031215611641575f5ffd5b81356113b2816114ab565b5f5f5f5f5f5f5f5f60a0898b031215611663575f5ffd5b61166c896113b9565b975061167a60208a016113b9565b9650604089013567ffffffffffffffff811115611695575f5ffd5b6116a18b828c01611526565b909750955050606089013567ffffffffffffffff8111156116c0575f5ffd5b6116cc8b828c01611526565b909550935050608089013567ffffffffffffffff8111156116eb575f5ffd5b6116f78b828c016113d4565b999c989b5096995094979396929594505050565b5f5f5f5f5f5f60a08789031215611720575f5ffd5b611729876113b9565b9550611737602088016113b9565b94506040870135935060608701359250608087013567ffffffffffffffff811115611760575f5ffd5b61176c89828a016113d4565b979a9699509497509295939492505050565b5f6020828403121561178e575f5ffd5b81516113b2816114ab565b5f602082840312156117a9575f5ffd5b5051919050565b7f4e487b71000000000000000000000000000000000000000000000000000000005f52603260045260245ffd5b818382375f9101908152919050565b8183525f7f07ffffffffffffffffffffffffffffffffffffffffffffffffffffffffffffff83111561181c575f5ffd5b8260051b80836020870137939093016020019392505050565b6001600160a01b03871681526001600160a01b038616602082015260a060408201525f61186660a0830186886117ec565b82810360608401526118798185876117ec565b83810360809094019390935250505f81526020019695505050505050565b5f82518060208501845e5f92019182525091905056fea26469706673582212205d4bb0e5d4f15db1168c4d105f0bbf89bd17866d5e9e64e948306bf3cbd88bb364736f6c634300081b0033",
  "linkReferences": {},
  "deployedLinkReferences": {}
}