{
  "_format": "hh-sol-artifact-1",
  "contractName": "CvhWalletSimple",
  "sourceName": "contracts/CvhWalletSimple.sol",
  "abi": [
    {
      "inputs": [],
      "stateMutability": "nonpayable",
      "type": "constructor"
    },
    {
      "inputs": [],
      "name": "AlreadyInitialized",
      "type": "error"
    },
    {
      "inputs": [],
      "name": "BatchNotAllowedInSafeMode",
      "type": "error"
    },
    {
      "inputs": [],
      "name": "BatchTransferFailed",
      "type": "error"
    },
    {
      "inputs": [],
      "name": "CallFailed",
      "type": "error"
    },
    {
      "inputs": [],
      "name": "DuplicateSigner",
      "type": "error"
    },
    {
      "inputs": [],
      "name": "EmptyBatch",
      "type": "error"
    },
    {
      "inputs": [],
      "name": "Expired",
      "type": "error"
    },
    {
      "inputs": [],
      "name": "InvalidSValue",
      "type": "error"
    },
    {
      "inputs": [],
      "name": "InvalidSignature",
      "type": "error"
    },
    {
      "inputs": [],
      "name": "InvalidSignatureLength",
      "type": "error"
    },
    {
      "inputs": [],
      "name": "InvalidVValue",
      "type": "error"
    },
    {
      "inputs": [],
      "name": "MaxRecipientsExceeded",
      "type": "error"
    },
    {
      "inputs": [],
      "name": "NotASigner",
      "type": "error"
    },
    {
      "inputs": [],
      "name": "ReentrancyGuardReentrantCall",
      "type": "error"
    },
    {
      "inputs": [],
      "name": "RequiresThreeSigners",
      "type": "error"
    },
    {
      "inputs": [],
      "name": "SafeModeRestriction",
      "type": "error"
    },
    {
      "inputs": [],
      "name": "SequenceIdAlreadyUsed",
      "type": "error"
    },
    {
      "inputs": [],
      "name": "SequenceIdTooHigh",
      "type": "error"
    },
    {
      "inputs": [],
      "name": "SequenceIdTooLow",
      "type": "error"
    },
    {
      "inputs": [],
      "name": "SignersMustBeDifferent",
      "type": "error"
    },
    {
      "inputs": [],
      "name": "TransferFailed",
      "type": "error"
    },
    {
      "inputs": [],
      "name": "UnequalLengths",
      "type": "error"
    },
    {
      "inputs": [],
      "name": "ZeroAddressRecipient",
      "type": "error"
    },
    {
      "inputs": [],
      "name": "ZeroAddressSigner",
      "type": "error"
    },
    {
      "anonymous": false,
      "inputs": [
        {
          "indexed": false,
          "internalType": "address",
          "name": "msgSender",
          "type": "address"
        },
        {
          "indexed": false,
          "internalType": "address",
          "name": "otherSigner",
          "type": "address"
        },
        {
          "indexed": false,
          "internalType": "bytes32",
          "name": "operation",
          "type": "bytes32"
        }
      ],
      "name": "BatchTransacted",
      "type": "event"
    },
    {
      "anonymous": false,
      "inputs": [
        {
          "indexed": true,
          "internalType": "address",
          "name": "sender",
          "type": "address"
        },
        {
          "indexed": false,
          "internalType": "address",
          "name": "recipient",
          "type": "address"
        },
        {
          "indexed": false,
          "internalType": "uint256",
          "name": "value",
          "type": "uint256"
        }
      ],
      "name": "BatchTransfer",
      "type": "event"
    },
    {
      "anonymous": false,
      "inputs": [
        {
          "indexed": false,
          "internalType": "address",
          "name": "from",
          "type": "address"
        },
        {
          "indexed": false,
          "internalType": "uint256",
          "name": "value",
          "type": "uint256"
        },
        {
          "indexed": false,
          "internalType": "bytes",
          "name": "data",
          "type": "bytes"
        }
      ],
      "name": "Deposited",
      "type": "event"
    },
    {
      "anonymous": false,
      "inputs": [
        {
          "indexed": false,
          "internalType": "address",
          "name": "msgSender",
          "type": "address"
        }
      ],
      "name": "SafeModeActivated",
      "type": "event"
    },
    {
      "anonymous": false,
      "inputs": [
        {
          "indexed": false,
          "internalType": "address",
          "name": "msgSender",
          "type": "address"
        },
        {
          "indexed": false,
          "internalType": "address",
          "name": "otherSigner",
          "type": "address"
        },
        {
          "indexed": false,
          "internalType": "bytes32",
          "name": "operation",
          "type": "bytes32"
        },
        {
          "indexed": false,
          "internalType": "address",
          "name": "toAddress",
          "type": "address"
        },
        {
          "indexed": false,
          "internalType": "uint256",
          "name": "value",
          "type": "uint256"
        },
        {
          "indexed": false,
          "internalType": "bytes",
          "name": "data",
          "type": "bytes"
        }
      ],
      "name": "Transacted",
      "type": "event"
    },
    {
      "stateMutability": "payable",
      "type": "fallback"
    },
    {
      "inputs": [],
      "name": "activateSafeMode",
      "outputs": [],
      "stateMutability": "nonpayable",
      "type": "function"
    },
    {
      "inputs": [
        {
          "internalType": "address payable",
          "name": "forwarderAddress",
          "type": "address"
        },
        {
          "internalType": "address",
          "name": "tokenContractAddress",
          "type": "address"
        }
      ],
      "name": "flushForwarderTokens",
      "outputs": [],
      "stateMutability": "nonpayable",
      "type": "function"
    },
    {
      "inputs": [],
      "name": "getBatchNetworkId",
      "outputs": [
        {
          "internalType": "string",
          "name": "",
          "type": "string"
        }
      ],
      "stateMutability": "view",
      "type": "function"
    },
    {
      "inputs": [],
      "name": "getNetworkId",
      "outputs": [
        {
          "internalType": "string",
          "name": "",
          "type": "string"
        }
      ],
      "stateMutability": "view",
      "type": "function"
    },
    {
      "inputs": [],
      "name": "getNextSequenceId",
      "outputs": [
        {
          "internalType": "uint256",
          "name": "",
          "type": "uint256"
        }
      ],
      "stateMutability": "view",
      "type": "function"
    },
    {
      "inputs": [],
      "name": "getTokenNetworkId",
      "outputs": [
        {
          "internalType": "string",
          "name": "",
          "type": "string"
        }
      ],
      "stateMutability": "view",
      "type": "function"
    },
    {
      "inputs": [
        {
          "internalType": "address[]",
          "name": "allowedSigners",
          "type": "address[]"
        }
      ],
      "name": "init",
      "outputs": [],
      "stateMutability": "nonpayable",
      "type": "function"
    },
    {
      "inputs": [],
      "name": "initialized",
      "outputs": [
        {
          "internalType": "bool",
          "name": "",
          "type": "bool"
        }
      ],
      "stateMutability": "view",
      "type": "function"
    },
    {
      "inputs": [
        {
          "internalType": "address",
          "name": "",
          "type": "address"
        }
      ],
      "name": "isSigner",
      "outputs": [
        {
          "internalType": "bool",
          "name": "",
          "type": "bool"
        }
      ],
      "stateMutability": "view",
      "type": "function"
    },
    {
      "inputs": [
        {
          "internalType": "address",
          "name": "",
          "type": "address"
        },
        {
          "internalType": "address",
          "name": "",
          "type": "address"
        },
        {
          "internalType": "uint256[]",
          "name": "",
          "type": "uint256[]"
        },
        {
          "internalType": "uint256[]",
          "name": "",
          "type": "uint256[]"
        },
        {
          "internalType": "bytes",
          "name": "",
          "type": "bytes"
        }
      ],
      "name": "onERC1155BatchReceived",
      "outputs": [
        {
          "internalType": "bytes4",
          "name": "",
          "type": "bytes4"
        }
      ],
      "stateMutability": "nonpayable",
      "type": "function"
    },
    {
      "inputs": [
        {
          "internalType": "address",
          "name": "",
          "type": "address"
        },
        {
          "internalType": "address",
          "name": "",
          "type": "address"
        },
        {
          "internalType": "uint256",
          "name": "",
          "type": "uint256"
        },
        {
          "internalType": "uint256",
          "name": "",
          "type": "uint256"
        },
        {
          "internalType": "bytes",
          "name": "",
          "type": "bytes"
        }
      ],
      "name": "onERC1155Received",
      "outputs": [
        {
          "internalType": "bytes4",
          "name": "",
          "type": "bytes4"
        }
      ],
      "stateMutability": "nonpayable",
      "type": "function"
    },
    {
      "inputs": [
        {
          "internalType": "address",
          "name": "",
          "type": "address"
        },
        {
          "internalType": "address",
          "name": "",
          "type": "address"
        },
        {
          "internalType": "uint256",
          "name": "",
          "type": "uint256"
        },
        {
          "internalType": "bytes",
          "name": "",
          "type": "bytes"
        }
      ],
      "name": "onERC721Received",
      "outputs": [
        {
          "internalType": "bytes4",
          "name": "",
          "type": "bytes4"
        }
      ],
      "stateMutability": "pure",
      "type": "function"
    },
    {
      "inputs": [],
      "name": "safeMode",
      "outputs": [
        {
          "internalType": "bool",
          "name": "",
          "type": "bool"
        }
      ],
      "stateMutability": "view",
      "type": "function"
    },
    {
      "inputs": [
        {
          "internalType": "address",
          "name": "toAddress",
          "type": "address"
        },
        {
          "internalType": "uint256",
          "name": "value",
          "type": "uint256"
        },
        {
          "internalType": "bytes",
          "name": "data",
          "type": "bytes"
        },
        {
          "internalType": "uint256",
          "name": "expireTime",
          "type": "uint256"
        },
        {
          "internalType": "uint256",
          "name": "sequenceId",
          "type": "uint256"
        },
        {
          "internalType": "bytes",
          "name": "signature",
          "type": "bytes"
        }
      ],
      "name": "sendMultiSig",
      "outputs": [],
      "stateMutability": "nonpayable",
      "type": "function"
    },
    {
      "inputs": [
        {
          "internalType": "address[]",
          "name": "recipients",
          "type": "address[]"
        },
        {
          "internalType": "uint256[]",
          "name": "values",
          "type": "uint256[]"
        },
        {
          "internalType": "uint256",
          "name": "expireTime",
          "type": "uint256"
        },
        {
          "internalType": "uint256",
          "name": "sequenceId",
          "type": "uint256"
        },
        {
          "internalType": "bytes",
          "name": "signature",
          "type": "bytes"
        }
      ],
      "name": "sendMultiSigBatch",
      "outputs": [],
      "stateMutability": "nonpayable",
      "type": "function"
    },
    {
      "inputs": [
        {
          "internalType": "address",
          "name": "toAddress",
          "type": "address"
        },
        {
          "internalType": "uint256",
          "name": "value",
          "type": "uint256"
        },
        {
          "internalType": "address",
          "name": "tokenContractAddress",
          "type": "address"
        },
        {
          "internalType": "uint256",
          "name": "expireTime",
          "type": "uint256"
        },
        {
          "internalType": "uint256",
          "name": "sequenceId",
          "type": "uint256"
        },
        {
          "internalType": "bytes",
          "name": "signature",
          "type": "bytes"
        }
      ],
      "name": "sendMultiSigToken",
      "outputs": [],
      "stateMutability": "nonpayable",
      "type": "function"
    },
    {
      "inputs": [
        {
          "internalType": "uint256",
          "name": "",
          "type": "uint256"
        }
      ],
      "name": "signers",
      "outputs": [
        {
          "internalType": "address",
          "name": "",
          "type": "address"
        }
      ],
      "stateMutability": "view",
      "type": "function"
    },
    {
      "inputs": [
        {
          "internalType": "bytes4",
          "name": "interfaceId",
          "type": "bytes4"
        }
      ],
      "name": "supportsInterface",
      "outputs": [
        {
          "internalType": "bool",
          "name": "",
          "type": "bool"
        }
      ],
      "stateMutability": "view",
      "type": "function"
    },
    {
      "stateMutability": "payable",
      "type": "receive"
    }
  ],
  "bytecode": "0x6080604052348015600e575f5ffd5b5060017f9b779b17422d0df92223018b32b4d1fa46e071723d6817e2486d003becc55f00555f805460ff191660011790556120e48061004c5f395ff3fe60806040526004361061012c575f3560e01c806339c5f3fc116100a4578063ad3ad70911610073578063c6044c4611610058578063c6044c46146103fd578063f23a6e611461041c578063fc0f392d1461046057610185565b8063ad3ad7091461039a578063bc197c81146103b957610185565b806339c5f3fc146103195780637df73e271461032d578063a0b7967b1461035b578063abe3219c1461037d57610185565b80632079fb9a116100fb5780632d2cae61116100e05780632d2cae61146102c75780632da03409146102db57806339125215146102fa57610185565b80632079fb9a1461026f578063260edcfd146102a657610185565b806301ffc9a7146101c05780630dcd7a6c146101f4578063150b7a0214610213578063158ef93e1461025757610185565b36610185573415610183576040805133815234602082015260609181018290525f918101919091527f6e89d517057028190560dd200cf6bf792842861353d1173761dfa362e1c133f0906080015b60405180910390a15b005b3415610183577f6e89d517057028190560dd200cf6bf792842861353d1173761dfa362e1c133f033345f3660405161017a949392919061178c565b3480156101cb575f5ffd5b506101df6101da3660046117b4565b610474565b60405190151581526020015b60405180910390f35b3480156101ff575f5ffd5b5061018361020e36600461183e565b61049e565b34801561021e575f5ffd5b5061023e61022d3660046118be565b630a85bd0160e11b95945050505050565b6040516001600160e01b031990911681526020016101eb565b348015610262575f5ffd5b505f546101df9060ff1681565b34801561027a575f5ffd5b5061028e61028936600461192c565b610635565b6040516001600160a01b0390911681526020016101eb565b3480156102b1575f5ffd5b506102ba61065d565b6040516101eb9190611971565b3480156102d2575f5ffd5b506102ba61068b565b3480156102e6575f5ffd5b506101836102f5366004611983565b6106a5565b348015610305575f5ffd5b506101836103143660046119ba565b610747565b348015610324575f5ffd5b506102ba61094b565b348015610338575f5ffd5b506101df610347366004611a57565b60026020525f908152604090205460ff1681565b348015610366575f5ffd5b5061036f61095b565b6040519081526020016101eb565b348015610388575f5ffd5b505f546101df90610100900460ff1681565b3480156103a5575f5ffd5b506101836103b4366004611ab3565b6109b6565b3480156103c4575f5ffd5b5061023e6103d3366004611c6b565b7fbc197c810000000000000000000000000000000000000000000000000000000095945050505050565b348015610408575f5ffd5b50610183610417366004611d1e565b610d04565b348015610427575f5ffd5b5061023e610436366004611d5d565b7ff23a6e610000000000000000000000000000000000000000000000000000000095945050505050565b34801561046b575f5ffd5b50610183610f46565b5f6001600160e01b03198216630a85bd0160e11b1480610498575061049882610fb8565b92915050565b335f9081526002602052604090205460ff166104cd5760405163da0357f760e01b815260040160405180910390fd5b6104d561101e565b6001600160a01b0387166104fc576040516308c9926560e31b815260040160405180910390fd5b5f61050561065d565b3089898989896040516020016105219796959493929190611db5565b6040516020818303038152906040528051906020012090505f610547828585898961104c565b5f54909150610100900460ff1615610591576001600160a01b0389165f9081526002602052604090205460ff1661059157604051631df1f29b60e31b815260040160405180910390fd5b61059c878a8a611123565b604080513381526001600160a01b0383811660208301528183018590528b166060820152608081018a905260c060a082018190525f9082015290517f59bed9ab5d78073465dd642a9e3e76dfdb7d53bcae9d09df7d0b8f5234d5a8069181900360e00190a1505061062c60017f9b779b17422d0df92223018b32b4d1fa46e071723d6817e2486d003becc55f0055565b50505050505050565b60018181548110610644575f80fd5b5f918252602090912001546001600160a01b0316905081565b606061066761094b565b6040516020016106779190611e1c565b604051602081830303815290604052905090565b606061069561094b565b6040516020016106779190611e54565b335f9081526002602052604090205460ff166106d45760405163da0357f760e01b815260040160405180910390fd5b6040517f3ef133670000000000000000000000000000000000000000000000000000000081526001600160a01b038281166004830152831690633ef13367906024015f604051808303815f87803b15801561072d575f5ffd5b505af115801561073f573d5f5f3e3d5ffd5b505050505050565b335f9081526002602052604090205460ff166107765760405163da0357f760e01b815260040160405180910390fd5b61077e61101e565b6001600160a01b0388166107a5576040516308c9926560e31b815260040160405180910390fd5b5f6107ae61094b565b308a8a8a8a8a8a6040516020016107cc989796959493929190611e8c565b6040516020818303038152906040528051906020012090505f6107f2828585898961104c565b5f54909150610100900460ff161561083c576001600160a01b038a165f9081526002602052604090205460ff1661083c57604051631df1f29b60e31b815260040160405180910390fd5b5f8a6001600160a01b03168a8a8a604051610858929190611eed565b5f6040518083038185875af1925050503d805f8114610892576040519150601f19603f3d011682016040523d82523d5f602084013e610897565b606091505b50509050806108d2576040517f3204506f00000000000000000000000000000000000000000000000000000000815260040160405180910390fd5b7f59bed9ab5d78073465dd642a9e3e76dfdb7d53bcae9d09df7d0b8f5234d5a8063383858e8e8e8e60405161090d9796959493929190611efc565b60405180910390a150505061094160017f9b779b17422d0df92223018b32b4d1fa46e071723d6817e2486d003becc55f0055565b5050505050505050565b606061095646611256565b905090565b5f80805b600a8110156109a45781600382600a811061097c5761097c611f55565b0154111561099c57600381600a811061099757610997611f55565b015491505b60010161095f565b506109b0816001611f7d565b91505090565b335f9081526002602052604090205460ff166109e55760405163da0357f760e01b815260040160405180910390fd5b6109ed61101e565b5f54610100900460ff1615610a2e576040517f57683b0a00000000000000000000000000000000000000000000000000000000815260040160405180910390fd5b868514610a67576040517fccab218c00000000000000000000000000000000000000000000000000000000815260040160405180910390fd5b5f879003610aa1576040517fc2e5347d00000000000000000000000000000000000000000000000000000000815260040160405180910390fd5b60ff871115610adc576040517fbc56610c00000000000000000000000000000000000000000000000000000000815260040160405180910390fd5b5f610ae561068b565b308a8a8a8a8a8a604051602001610b03989796959493929190611fd9565b6040516020818303038152906040528051906020012090505f610b29828585898961104c565b90505f5b89811015610c8f575f8b8b83818110610b4857610b48611f55565b9050602002016020810190610b5d9190611a57565b6001600160a01b03168a8a84818110610b7857610b78611f55565b90506020020135620186a0906040515f60405180830381858888f193505050503d805f8114610bc2576040519150601f19603f3d011682016040523d82523d5f602084013e610bc7565b606091505b5050905080610c02576040517ffe90560300000000000000000000000000000000000000000000000000000000815260040160405180910390fd5b337fc42fa155158786a1dd6ccc3a785f35845467353c3cc700e0e31a79f90e22227d8d8d85818110610c3657610c36611f55565b9050602002016020810190610c4b9190611a57565b8c8c86818110610c5d57610c5d611f55565b604080516001600160a01b0390951685526020918202939093013590840152500160405180910390a250600101610b2d565b50604080513381526001600160a01b03831660208201529081018390527fe4c9047a729726b729cf4fa62c95ef9a434bbaf206a7ea0c7c77515db15840229060600160405180910390a1505061094160017f9b779b17422d0df92223018b32b4d1fa46e071723d6817e2486d003becc55f0055565b5f5460ff1615610d40576040517f0dc149f000000000000000000000000000000000000000000000000000000000815260040160405180910390fd5b60038114610d7a576040517fc6a5f54c00000000000000000000000000000000000000000000000000000000815260040160405180910390fd5b5f5b6003811015610f35575f838383818110610d9857610d98611f55565b9050602002016020810190610dad9190611a57565b6001600160a01b031603610ded576040517fec67b1b900000000000000000000000000000000000000000000000000000000815260040160405180910390fd5b60025f848484818110610e0257610e02611f55565b9050602002016020810190610e179190611a57565b6001600160a01b0316815260208101919091526040015f205460ff1615610e6a576040517f8044bb3300000000000000000000000000000000000000000000000000000000815260040160405180910390fd5b600160025f858585818110610e8157610e81611f55565b9050602002016020810190610e969190611a57565b6001600160a01b0316815260208101919091526040015f20805460ff19169115159190911790556001838383818110610ed157610ed1611f55565b9050602002016020810190610ee69190611a57565b8154600180820184555f93845260209093200180547fffffffffffffffffffffffff0000000000000000000000000000000000000000166001600160a01b039290921691909117905501610d7c565b50505f805460ff1916600117905550565b335f9081526002602052604090205460ff16610f755760405163da0357f760e01b815260040160405180910390fd5b5f805461ff0019166101001790556040513381527f0909e8f76a4fd3e970f2eaef56c0ee6dfaf8b87c5b8d3f56ffce78e825a911579060200160405180910390a1565b5f6001600160e01b031982167f4e2312e000000000000000000000000000000000000000000000000000000000148061049857507f01ffc9a7000000000000000000000000000000000000000000000000000000006001600160e01b0319831614610498565b6110266112f3565b60027f9b779b17422d0df92223018b32b4d1fa46e071723d6817e2486d003becc55f0055565b5f42831015611087576040517f203d82d800000000000000000000000000000000000000000000000000000000815260040160405180910390fd5b61109082611350565b5f61109c878787611484565b6001600160a01b0381165f9081526002602052604090205490915060ff166110d75760405163da0357f760e01b815260040160405180910390fd5b336001600160a01b03821603611119576040517f29e4fb0700000000000000000000000000000000000000000000000000000000815260040160405180910390fd5b9695505050505050565b604080516001600160a01b038481166024830152604480830185905283518084039091018152606490920183526020820180517bffffffffffffffffffffffffffffffffffffffffffffffffffffffff167fa9059cbb0000000000000000000000000000000000000000000000000000000017905291515f928392908716916111ac919061206b565b5f604051808303815f865af19150503d805f81146111e5576040519150601f19603f3d011682016040523d82523d5f602084013e6111ea565b606091505b509150915081158061121857505f81511180156112185750808060200190518101906112169190612076565b155b1561124f576040517f90b8ec1800000000000000000000000000000000000000000000000000000000815260040160405180910390fd5b5050505050565b60605f61126283611683565b60010190505f8167ffffffffffffffff81111561128157611281611b44565b6040519080825280601f01601f1916602001820160405280156112ab576020820181803683370190505b5090508181016020015b5f19017f3031323334353637383961626364656600000000000000000000000000000000600a86061a8153600a85049450846112b557509392505050565b7f9b779b17422d0df92223018b32b4d1fa46e071723d6817e2486d003becc55f005460020361134e576040517f3ee5aeb500000000000000000000000000000000000000000000000000000000815260040160405180910390fd5b565b5f195f805b600a8110156113ea5783600382600a811061137257611372611f55565b0154036113ab576040517f44bb34e400000000000000000000000000000000000000000000000000000000815260040160405180910390fd5b82600382600a81106113bf576113bf611f55565b015410156113e257600381600a81106113da576113da611f55565b015492508091505b600101611355565b50818311611424576040517f174a46d400000000000000000000000000000000000000000000000000000000815260040160405180910390fd5b61143061271083611f7d565b831115611469576040517fc64203af00000000000000000000000000000000000000000000000000000000815260040160405180910390fd5b82600382600a811061147d5761147d611f55565b0155505050565b5f604182146114bf576040517f4be6321b00000000000000000000000000000000000000000000000000000000815260040160405180910390fd5b8235602084013560408501355f1a601b8110156114e4576114e1601b82612095565b90505b8060ff16601b141580156114fc57508060ff16601c14155b15611533576040517fa5f5a60c00000000000000000000000000000000000000000000000000000000815260040160405180910390fd5b7f7fffffffffffffffffffffffffffffff5d576e7357a4501ddfe92f46681b20a082111561158d576040517fddbf804200000000000000000000000000000000000000000000000000000000815260040160405180910390fd5b6040517f19457468657265756d205369676e6564204d6573736167653a0a3332000000006020820152603c81018890525f90605c0160408051601f1981840301815282825280516020918201205f80855291840180845281905260ff86169284019290925260608301879052608083018690529092509060019060a0016020604051602081039080840390855afa15801561162a573d5f5f3e3d5ffd5b5050604051601f1901519150506001600160a01b038116611677576040517f8baa579f00000000000000000000000000000000000000000000000000000000815260040160405180910390fd5b98975050505050505050565b5f807a184f03e93ff9f4daa797ed6e38ed64bf6a1f01000000000000000083106116cb577a184f03e93ff9f4daa797ed6e38ed64bf6a1f010000000000000000830492506040015b6d04ee2d6d415b85acef810000000083106116f7576d04ee2d6d415b85acef8100000000830492506020015b662386f26fc10000831061171557662386f26fc10000830492506010015b6305f5e100831061172d576305f5e100830492506008015b612710831061174157612710830492506004015b60648310611753576064830492506002015b600a83106104985760010192915050565b81835281816020850137505f828201602090810191909152601f909101601f19169091010190565b6001600160a01b0385168152836020820152606060408201525f611119606083018486611764565b5f602082840312156117c4575f5ffd5b81356001600160e01b0319811681146117db575f5ffd5b9392505050565b6001600160a01b03811681146117f6575f5ffd5b50565b5f5f83601f840112611809575f5ffd5b50813567ffffffffffffffff811115611820575f5ffd5b602083019150836020828501011115611837575f5ffd5b9250929050565b5f5f5f5f5f5f5f60c0888a031215611854575f5ffd5b873561185f816117e2565b9650602088013595506040880135611876816117e2565b9450606088013593506080880135925060a088013567ffffffffffffffff81111561189f575f5ffd5b6118ab8a828b016117f9565b989b979a50959850939692959293505050565b5f5f5f5f5f608086880312156118d2575f5ffd5b85356118dd816117e2565b945060208601356118ed816117e2565b935060408601359250606086013567ffffffffffffffff81111561190f575f5ffd5b61191b888289016117f9565b969995985093965092949392505050565b5f6020828403121561193c575f5ffd5b5035919050565b5f81518084528060208401602086015e5f602082860101526020601f19601f83011685010191505092915050565b602081525f6117db6020830184611943565b5f5f60408385031215611994575f5ffd5b823561199f816117e2565b915060208301356119af816117e2565b809150509250929050565b5f5f5f5f5f5f5f5f60c0898b0312156119d1575f5ffd5b88356119dc816117e2565b975060208901359650604089013567ffffffffffffffff8111156119fe575f5ffd5b611a0a8b828c016117f9565b909750955050606089013593506080890135925060a089013567ffffffffffffffff811115611a37575f5ffd5b611a438b828c016117f9565b999c989b5096995094979396929594505050565b5f60208284031215611a67575f5ffd5b81356117db816117e2565b5f5f83601f840112611a82575f5ffd5b50813567ffffffffffffffff811115611a99575f5ffd5b6020830191508360208260051b8501011115611837575f5ffd5b5f5f5f5f5f5f5f5f60a0898b031215611aca575f5ffd5b883567ffffffffffffffff811115611ae0575f5ffd5b611aec8b828c01611a72565b909950975050602089013567ffffffffffffffff811115611b0b575f5ffd5b611b178b828c01611a72565b9097509550506040890135935060608901359250608089013567ffffffffffffffff811115611a37575f5ffd5b634e487b7160e01b5f52604160045260245ffd5b604051601f8201601f1916810167ffffffffffffffff81118282101715611b8157611b81611b44565b604052919050565b5f82601f830112611b98575f5ffd5b813567ffffffffffffffff811115611bb257611bb2611b44565b8060051b611bc260208201611b58565b91825260208185018101929081019086841115611bdd575f5ffd5b6020860192505b83831015611119578235825260209283019290910190611be4565b5f82601f830112611c0e575f5ffd5b813567ffffffffffffffff811115611c2857611c28611b44565b611c3b601f8201601f1916602001611b58565b818152846020838601011115611c4f575f5ffd5b816020850160208301375f918101602001919091529392505050565b5f5f5f5f5f60a08688031215611c7f575f5ffd5b8535611c8a816117e2565b94506020860135611c9a816117e2565b9350604086013567ffffffffffffffff811115611cb5575f5ffd5b611cc188828901611b89565b935050606086013567ffffffffffffffff811115611cdd575f5ffd5b611ce988828901611b89565b925050608086013567ffffffffffffffff811115611d05575f5ffd5b611d1188828901611bff565b9150509295509295909350565b5f5f60208385031215611d2f575f5ffd5b823567ffffffffffffffff811115611d45575f5ffd5b611d5185828601611a72565b90969095509350505050565b5f5f5f5f5f60a08688031215611d71575f5ffd5b8535611d7c816117e2565b94506020860135611d8c816117e2565b93506040860135925060608601359150608086013567ffffffffffffffff811115611d05575f5ffd5b60e081525f611dc760e083018a611943565b6001600160a01b039889166020840152968816604083015250606081019490945291909416608083015260a082019390935260c00191909152919050565b5f81518060208401855e5f93019283525090919050565b5f611e278284611e05565b7f2d4552433230000000000000000000000000000000000000000000000000000081526006019392505050565b5f611e5f8284611e05565b7f2d4261746368000000000000000000000000000000000000000000000000000081526006019392505050565b60e081525f611e9e60e083018b611943565b6001600160a01b038a1660208401526001600160a01b03891660408401528760608401528281036080840152611ed5818789611764565b60a0840195909552505060c001529695505050505050565b818382375f9101908152919050565b6001600160a01b03881681526001600160a01b03871660208201528560408201526001600160a01b038516606082015283608082015260c060a08201525f611f4860c083018486611764565b9998505050505050505050565b634e487b7160e01b5f52603260045260245ffd5b634e487b7160e01b5f52601160045260245ffd5b8082018082111561049857610498611f69565b8183525f7f07ffffffffffffffffffffffffffffffffffffffffffffffffffffffffffffff831115611fc0575f5ffd5b8260051b80836020870137939093016020019392505050565b60c081525f611feb60c083018b611943565b6001600160a01b038a1660208481019190915283820360408501528882528991015f5b8981101561203e578235612021816117e2565b6001600160a01b031682526020928301929091019060010161200e565b50838103606085015261205281888a611f90565b608085019690965250505060a001529695505050505050565b5f6117db8284611e05565b5f60208284031215612086575f5ffd5b815180151581146117db575f5ffd5b60ff818116838216019081111561049857610498611f6956fea26469706673582212208f1f8085278f350799934161720297b40d3c6cc97027a0a9e3c43b9bb802856764736f6c634300081b0033",
  "linkReferences": {},
  "deployedLinkReferences": {}
}