{
  "_format": "hh-sol-artifact-1",
  "contractName": "CvhWalletFactory",
  "sourceName": "contracts/CvhWalletFactory.sol",
  "abi": [
    {
      "inputs": [
        {
          "internalType": "address",
          "name": "_implementationAddress",
          "type": "address"
        }
      ],
      "stateMutability": "nonpayable",
      "type": "constructor"
    },
    {
      "inputs": [],
      "name": "CloneCreationFailed",
      "type": "error"
    },
    {
      "anonymous": false,
      "inputs": [
        {
          "indexed": false,
          "internalType": "address",
          "name": "walletAddress",
          "type": "address"
        },
        {
          "indexed": false,
          "internalType": "address[]",
          "name": "allowedSigners",
          "type": "address[]"
        }
      ],
      "name": "WalletCreated",
      "type": "event"
    },
    {
      "inputs": [
        {
          "internalType": "address",
          "name": "deployer",
          "type": "address"
        },
        {
          "internalType": "address[]",
          "name": "allowedSigners",
          "type": "address[]"
        },
        {
          "internalType": "bytes32",
          "name": "salt",
          "type": "bytes32"
        }
      ],
      "name": "computeWalletAddress",
      "outputs": [
        {
          "internalType": "address",
          "name": "",
          "type": "address"
        }
      ],
      "stateMutability": "view",
      "type": "function"
    },
    {
      "inputs": [
        {
          "internalType": "address[]",
          "name": "allowedSigners",
          "type": "address[]"
        },
        {
          "internalType": "bytes32",
          "name": "salt",
          "type": "bytes32"
        }
      ],
      "name": "createWallet",
      "outputs": [
        {
          "internalType": "address payable",
          "name": "wallet",
          "type": "address"
        }
      ],
      "stateMutability": "nonpayable",
      "type": "function"
    },
    {
      "inputs": [],
      "name": "implementationAddress",
      "outputs": [
        {
          "internalType": "address",
          "name": "",
          "type": "address"
        }
      ],
      "stateMutability": "view",
      "type": "function"
    }
  ],
  "bytecode": "0x60a0604052348015600e575f5ffd5b50604051610627380380610627833981016040819052602b91603b565b6001600160a01b03166080526066565b5f60208284031215604a575f5ffd5b81516001600160a01b0381168114605f575f5ffd5b9392505050565b60805161059d61008a5f395f8181608a0152818160e2015261021e015261059d5ff3fe608060405234801561000f575f5ffd5b506004361061003f575f3560e01c8063092f0aef146100435780637117f3fa14610072578063b97a231914610085575b5f5ffd5b61005661005136600461040a565b6100ac565b6040516001600160a01b03909116815260200160405180910390f35b610056610080366004610460565b6101e8565b6100567f000000000000000000000000000000000000000000000000000000000000000081565b5f5f858585856040516020016100c594939291906104ee565b6040516020818303038152906040528051906020012090506101de7f000000000000000000000000000000000000000000000000000000000000000082604080517f3d602d80600a3d3981f3363d3d373d3d3d363d730000000000000000000000006020808301919091526bffffffffffffffffffffffff19606095861b811660348401527f5af43d82803e903d91602b57fd5bf300000000000000000000000000000000006048840152835160378185030181526057840185528051908301207fff0000000000000000000000000000000000000000000000000000000000000060778501523090961b166078830152608c82019390935260ac808201949094528151808203909401845260cc019052815191012090565b9695505050505050565b5f5f3385858560405160200161020194939291906104ee565b6040516020818303038152906040528051906020012090506102437f0000000000000000000000000000000000000000000000000000000000000000826102fd565b6040517fc6044c460000000000000000000000000000000000000000000000000000000081529092506001600160a01b0383169063c6044c469061028d9088908890600401610521565b5f604051808303815f87803b1580156102a4575f5ffd5b505af11580156102b6573d5f5f3e3d5ffd5b505050507f0d1013664d1afda1c712a76630e584de8dd1d656331b90608aedc997fdb7839e8286866040516102ed9392919061053c565b60405180910390a1509392505050565b5f5f8360601b90506040517f3d602d80600a3d3981f3363d3d373d3d3d363d7300000000000000000000000081528160148201527f5af43d82803e903d91602b57fd5bf300000000000000000000000000000000006028820152836037825ff59250506001600160a01b0382166103a0576040517f6f0dfba100000000000000000000000000000000000000000000000000000000815260040160405180910390fd5b5092915050565b80356001600160a01b03811681146103bd575f5ffd5b919050565b5f5f83601f8401126103d2575f5ffd5b50813567ffffffffffffffff8111156103e9575f5ffd5b6020830191508360208260051b8501011115610403575f5ffd5b9250929050565b5f5f5f5f6060858703121561041d575f5ffd5b610426856103a7565b9350602085013567ffffffffffffffff811115610441575f5ffd5b61044d878288016103c2565b9598909750949560400135949350505050565b5f5f5f60408486031215610472575f5ffd5b833567ffffffffffffffff811115610488575f5ffd5b610494868287016103c2565b909790965060209590950135949350505050565b8183526020830192505f815f5b848110156104e4576001600160a01b036104ce836103a7565b16865260209586019591909101906001016104b5565b5093949350505050565b6001600160a01b0385168152606060208201525f6105106060830185876104a8565b905082604083015295945050505050565b602081525f6105346020830184866104a8565b949350505050565b6001600160a01b0384168152604060208201525f61055e6040830184866104a8565b9594505050505056fea2646970667358221220d70e70c2ad5aaa3fbb576fb8c7796cdc5b889655375c92266bbba88c192e88b064736f6c634300081b0033",
  "linkReferences": {},
  "deployedLinkReferences": {}
}