{"contracts/CvhForwarderFactory.sol":{"CvhForwarderFactory":{"abi":[{"inputs":[{"internalType":"address","name":"_implementationAddress","type":"address"}],"stateMutability":"nonpayable","type":"constructor"},{"anonymous":false,"inputs":[{"indexed":false,"internalType":"address","name":"forwarderAddress","type":"address"},{"indexed":false,"internalType":"address","name":"parentAddress","type":"address"},{"indexed":false,"internalType":"address","name":"feeAddress","type":"address"}],"name":"ForwarderCreated","type":"event"},{"inputs":[{"internalType":"address","name":"deployer","type":"address"},{"internalType":"address","name":"parent","type":"address"},{"internalType":"address","name":"feeAddress","type":"address"},{"internalType":"bytes32","name":"salt","type":"bytes32"}],"name":"computeForwarderAddress","outputs":[{"internalType":"address","name":"","type":"address"}],"stateMutability":"view","type":"function"},{"inputs":[{"internalType":"address","name":"parent","type":"address"},{"internalType":"address","name":"feeAddress","type":"address"},{"internalType":"bytes32","name":"salt","type":"bytes32"},{"internalType":"bool","name":"_autoFlush721","type":"bool"},{"internalType":"bool","name":"_autoFlush1155","type":"bool"}],"name":"createForwarder","outputs":[{"internalType":"address payable","name":"forwarder","type":"address"}],"stateMutability":"nonpayable","type":"function"},{"inputs":[],"name":"implementationAddress","outputs":[{"internalType":"address","name":"","type":"address"}],"stateMutability":"view","type":"function"}],"evm":{"bytecode":{"linkReferences":{},"object":"60a0604052348015600e575f5ffd5b506040516105b53803806105b5833981016040819052602b91603b565b6001600160a01b03166080526066565b5f60208284031215604a575f5ffd5b81516001600160a01b0381168114605f575f5ffd5b9392505050565b60805161052a61008b5f395f818160d1015281816101c60152610244015261052a5ff3fe608060405234801561000f575f5ffd5b506004361061003f575f3560e01c8063101dd356146100435780632f6f713e146101ae578063b97a2319146101c1575b5f5ffd5b610192610051366004610443565b604080516bffffffffffffffffffffffff19606096871b811660208084019190915295871b8116603483015293861b84166048820152605c8082019390935281518082039093018352607c810182528251928501929092207f3d602d80600a3d3981f3363d3d373d3d3d363d73000000000000000000000000609c8401527f0000000000000000000000000000000000000000000000000000000000000000861b841660b08401527f5af43d82803e903d91602b57fd5bf3000000000000000000000000000000000060c4840152815180840360b301815260d3840183528051908601207fff0000000000000000000000000000000000000000000000000000000000000060f38501523090961b90931660f48301526101088201929092526101288082019490945281518082039094018452610148019052815191012090565b6040516001600160a01b03909116815260200160405180910390f35b6101926101bc36600461049a565b6101e8565b6101927f000000000000000000000000000000000000000000000000000000000000000081565b6040516bffffffffffffffffffffffff1933606090811b8216602084015287811b8216603484015286901b166048820152605c81018490525f908190607c016040516020818303038152906040528051906020012090506102697f00000000000000000000000000000000000000000000000000000000000000008261034a565b6040517f2f7382840000000000000000000000000000000000000000000000000000000081526001600160a01b03898116600483015288811660248301528615156044830152851515606483015291935090831690632f738284906084015f604051808303815f87803b1580156102de575f5ffd5b505af11580156102f0573d5f5f3e3d5ffd5b5050604080516001600160a01b0386811682528b811660208301528a168183015290517f139ba20e56683330b70b7512adc6d2a6f0c5d9fba743538456b45edfb6811ea89350908190036060019150a15095945050505050565b5f5f8360601b90506040517f3d602d80600a3d3981f3363d3d373d3d3d363d7300000000000000000000000081528160148201527f5af43d82803e903d91602b57fd5bf300000000000000000000000000000000006028820152836037825ff59250506001600160a01b038216610421576040517f08c379a000000000000000000000000000000000000000000000000000000000815260206004820152601c60248201527f436c6f6e65466163746f72793a2043524541544532206661696c656400000000604482015260640160405180910390fd5b5092915050565b80356001600160a01b038116811461043e575f5ffd5b919050565b5f5f5f5f60808587031215610456575f5ffd5b61045f85610428565b935061046d60208601610428565b925061047b60408601610428565b9396929550929360600135925050565b8035801515811461043e575f5ffd5b5f5f5f5f5f60a086880312156104ae575f5ffd5b6104b786610428565b94506104c560208701610428565b9350604086013592506104da6060870161048b565b91506104e86080870161048b565b9050929550929590935056fea2646970667358221220112ea45b55b9e824241d69cfe6156e8da21d31df473a59e62f7e2770c75e455b64736f6c634300081b0033","opcodes":"PUSH1 0xA0 PUSH1 0x40 MSTORE CALLVALUE DUP1 ISZERO PUSH1 0xE JUMPI PUSH0 PUSH0 REVERT JUMPDEST POP PUSH1 0x40 MLOAD PUSH2 0x5B5 CODESIZE SUB DUP1 PUSH2 0x5B5 DUP4 CODECOPY DUP2 ADD PUSH1 0x40 DUP2 SWAP1 MSTORE PUSH1 0x2B SWAP2 PUSH1 0x3B JUMP JUMPDEST PUSH1 0x1 PUSH1 0x1 PUSH1 0xA0 SHL SUB AND PUSH1 0x80 MSTORE PUSH1 0x66 JUMP JUMPDEST PUSH0 PUSH1 0x20 DUP3 DUP5 SUB SLT ISZERO PUSH1 0x4A JUMPI PUSH0 PUSH0 REVERT JUMPDEST DUP2 MLOAD PUSH1 0x1 PUSH1 0x1 PUSH1 0xA0 SHL SUB DUP2 AND DUP2 EQ PUSH1 0x5F JUMPI PUSH0 PUSH0 REVERT JUMPDEST SWAP4 SWAP3 POP POP POP JUMP JUMPDEST PUSH1 0x80 MLOAD PUSH2 0x52A PUSH2 0x8B PUSH0 CODECOPY PUSH0 DUP2 DUP2 PUSH1 0xD1 ADD MSTORE DUP2 DUP2 PUSH2 0x1C6 ADD MSTORE PUSH2 0x244 ADD MSTORE PUSH2 0x52A PUSH0 RETURN INVALID PUSH1 0x80 PUSH1 0x40 MSTORE CALLVALUE DUP1 ISZERO PUSH2 0xF JUMPI PUSH0 PUSH0 REVERT JUMPDEST POP PUSH1 0x4 CALLDATASIZE LT PUSH2 0x3F JUMPI PUSH0 CALLDATALOAD PUSH1 0xE0 SHR DUP1 PUSH4 0x101DD356 EQ PUSH2 0x43 JUMPI DUP1 PUSH4 0x2F6F713E EQ PUSH2 0x1AE JUMPI DUP1 PUSH4 0xB97A2319 EQ PUSH2 0x1C1 JUMPI JUMPDEST PUSH0 PUSH0 REVERT JUMPDEST PUSH2 0x192 PUSH2 0x51 CALLDATASIZE PUSH1 0x4 PUSH2 0x443 JUMP JUMPDEST PUSH1 0x40 DUP1 MLOAD PUSH12 0xFFFFFFFFFFFFFFFFFFFFFFFF NOT PUSH1 0x60 SWAP7 DUP8 SHL DUP2 AND PUSH1 0x20 DUP1 DUP5 ADD SWAP2 SWAP1 SWAP2 MSTORE SWAP6 DUP8 SHL DUP2 AND PUSH1 0x34 DUP4 ADD MSTORE SWAP4 DUP7 SHL DUP5 AND PUSH1 0x48 DUP3 ADD MSTORE PUSH1 0x5C DUP1 DUP3 ADD SWAP4 SWAP1 SWAP4 MSTORE DUP2 MLOAD DUP1 DUP3 SUB SWAP1 SWAP4 ADD DUP4 MSTORE PUSH1 0x7C DUP2 ADD DUP3 MSTORE DUP3 MLOAD SWAP3 DUP6 ADD SWAP3 SWAP1 SWAP3 KECCAK256 PUSH32 0x3D602D80600A3D3981F3363D3D373D3D3D363D73000000000000000000000000 PUSH1 0x9C DUP5 ADD MSTORE PUSH32 0x0 DUP7 SHL DUP5 AND PUSH1 0xB0 DUP5 ADD MSTORE PUSH32 0x5AF43D82803E903D91602B57FD5BF30000000000000000000000000000000000 PUSH1 0xC4 DUP5 ADD MSTORE DUP2 MLOAD DUP1 DUP5 SUB PUSH1 0xB3 ADD DUP2 MSTORE PUSH1 0xD3 DUP5 ADD DUP4 MSTORE DUP1 MLOAD SWAP1 DUP7 ADD KECCAK256 PUSH32 0xFF00000000000000000000000000000000000000000000000000000000000000 PUSH1 0xF3 DUP6 ADD MSTORE ADDRESS SWAP1 SWAP7 SHL SWAP1 SWAP4 AND PUSH1 0xF4 DUP4 ADD MSTORE PUSH2 0x108 DUP3 ADD SWAP3 SWAP1 SWAP3 MSTORE PUSH2 0x128 DUP1 DUP3 ADD SWAP5 SWAP1 SWAP5 MSTORE DUP2 MLOAD DUP1 DUP3 SUB SWAP1 SWAP5 ADD DUP5 MSTORE PUSH2 0x148 ADD SWAP1 MSTORE DUP2 MLOAD SWAP2 ADD KECCAK256 SWAP1 JUMP JUMPDEST PUSH1 0x40 MLOAD PUSH1 0x1 PUSH1 0x1 PUSH1 0xA0 SHL SUB SWAP1 SWAP2 AND DUP2 MSTORE PUSH1 0x20 ADD PUSH1 0x40 MLOAD DUP1 SWAP2 SUB SWAP1 RETURN JUMPDEST PUSH2 0x192 PUSH2 0x1BC CALLDATASIZE PUSH1 0x4 PUSH2 0x49A JUMP JUMPDEST PUSH2 0x1E8 JUMP JUMPDEST PUSH2 0x192 PUSH32 0x0 DUP2 JUMP JUMPDEST PUSH1 0x40 MLOAD PUSH12 0xFFFFFFFFFFFFFFFFFFFFFFFF NOT CALLER PUSH1 0x60 SWAP1 DUP2 SHL DUP3 AND PUSH1 0x20 DUP5 ADD MSTORE DUP8 DUP2 SHL DUP3 AND PUSH1 0x34 DUP5 ADD MSTORE DUP7 SWAP1 SHL AND PUSH1 0x48 DUP3 ADD MSTORE PUSH1 0x5C DUP2 ADD DUP5 SWAP1 MSTORE PUSH0 SWAP1 DUP2 SWAP1 PUSH1 0x7C ADD PUSH1 0x40 MLOAD PUSH1 0x20 DUP2 DUP4 SUB SUB DUP2 MSTORE SWAP1 PUSH1 0x40 MSTORE DUP1 MLOAD SWAP1 PUSH1 0x20 ADD KECCAK256 SWAP1 POP PUSH2 0x269 PUSH32 0x0 DUP3 PUSH2 0x34A JUMP JUMPDEST PUSH1 0x40 MLOAD PUSH32 0x2F73828400000000000000000000000000000000000000000000000000000000 DUP2 MSTORE PUSH1 0x1 PUSH1 0x1 PUSH1 0xA0 SHL SUB DUP10 DUP2 AND PUSH1 0x4 DUP4 ADD MSTORE DUP9 DUP2 AND PUSH1 0x24 DUP4 ADD MSTORE DUP7 ISZERO ISZERO PUSH1 0x44 DUP4 ADD MSTORE DUP6 ISZERO ISZERO PUSH1 0x64 DUP4 ADD MSTORE SWAP2 SWAP4 POP SWAP1 DUP4 AND SWAP1 PUSH4 0x2F738284 SWAP1 PUSH1 0x84 ADD PUSH0 PUSH1 0x40 MLOAD DUP1 DUP4 SUB DUP2 PUSH0 DUP8 DUP1 EXTCODESIZE ISZERO DUP1 ISZERO PUSH2 0x2DE JUMPI PUSH0 PUSH0 REVERT JUMPDEST POP GAS CALL ISZERO DUP1 ISZERO PUSH2 0x2F0 JUMPI RETURNDATASIZE PUSH0 PUSH0 RETURNDATACOPY RETURNDATASIZE PUSH0 REVERT JUMPDEST POP POP PUSH1 0x40 DUP1 MLOAD PUSH1 0x1 PUSH1 0x1 PUSH1 0xA0 SHL SUB DUP7 DUP2 AND DUP3 MSTORE DUP12 DUP2 AND PUSH1 0x20 DUP4 ADD MSTORE DUP11 AND DUP2 DUP4 ADD MSTORE SWAP1 MLOAD PUSH32 0x139BA20E56683330B70B7512ADC6D2A6F0C5D9FBA743538456B45EDFB6811EA8 SWAP4 POP SWAP1 DUP2 SWAP1 SUB PUSH1 0x60 ADD SWAP2 POP LOG1 POP SWAP6 SWAP5 POP POP POP POP POP JUMP JUMPDEST PUSH0 PUSH0 DUP4 PUSH1 0x60 SHL SWAP1 POP PUSH1 0x40 MLOAD PUSH32 0x3D602D80600A3D3981F3363D3D373D3D3D363D73000000000000000000000000 DUP2 MSTORE DUP2 PUSH1 0x14 DUP3 ADD MSTORE PUSH32 0x5AF43D82803E903D91602B57FD5BF30000000000000000000000000000000000 PUSH1 0x28 DUP3 ADD MSTORE DUP4 PUSH1 0x37 DUP3 PUSH0 CREATE2 SWAP3 POP POP PUSH1 0x1 PUSH1 0x1 PUSH1 0xA0 SHL SUB DUP3 AND PUSH2 0x421 JUMPI PUSH1 0x40 MLOAD PUSH32 0x8C379A000000000000000000000000000000000000000000000000000000000 DUP2 MSTORE PUSH1 0x20 PUSH1 0x4 DUP3 ADD MSTORE PUSH1 0x1C PUSH1 0x24 DUP3 ADD MSTORE PUSH32 0x436C6F6E65466163746F72793A2043524541544532206661696C656400000000 PUSH1 0x44 DUP3 ADD MSTORE PUSH1 0x64 ADD PUSH1 0x40 MLOAD DUP1 SWAP2 SUB SWAP1 REVERT JUMPDEST POP SWAP3 SWAP2 POP POP JUMP JUMPDEST DUP1 CALLDATALOAD PUSH1 0x1 PUSH1 0x1 PUSH1 0xA0 SHL SUB DUP2 AND DUP2 EQ PUSH2 0x43E JUMPI PUSH0 PUSH0 REVERT JUMPDEST SWAP2 SWAP1 POP JUMP JUMPDEST PUSH0 PUSH0 PUSH0 PUSH0 PUSH1 0x80 DUP6 DUP8 SUB SLT ISZERO PUSH2 0x456 JUMPI PUSH0 PUSH0 REVERT JUMPDEST PUSH2 0x45F DUP6 PUSH2 0x428 JUMP JUMPDEST SWAP4 POP PUSH2 0x46D PUSH1 0x20 DUP7 ADD PUSH2 0x428 JUMP JUMPDEST SWAP3 POP PUSH2 0x47B PUSH1 0x40 DUP7 ADD PUSH2 0x428 JUMP JUMPDEST SWAP4 SWAP7 SWAP3 SWAP6 POP SWAP3 SWAP4 PUSH1 0x60 ADD CALLDATALOAD SWAP3 POP POP JUMP JUMPDEST DUP1 CALLDATALOAD DUP1 ISZERO ISZERO DUP2 EQ PUSH2 0x43E JUMPI PUSH0 PUSH0 REVERT JUMPDEST PUSH0 PUSH0 PUSH0 PUSH0 PUSH0 PUSH1 0xA0 DUP7 DUP9 SUB SLT ISZERO PUSH2 0x4AE JUMPI PUSH0 PUSH0 REVERT JUMPDEST PUSH2 0x4B7 DUP7 PUSH2 0x428 JUMP JUMPDEST SWAP5 POP PUSH2 0x4C5 PUSH1 0x20 DUP8 ADD PUSH2 0x428 JUMP JUMPDEST SWAP4 POP PUSH1 0x40 DUP7 ADD CALLDATALOAD SWAP3 POP PUSH2 0x4DA PUSH1 0x60 DUP8 ADD PUSH2 0x48B JUMP JUMPDEST SWAP2 POP PUSH2 0x4E8 PUSH1 0x80 DUP8 ADD PUSH2 0x48B JUMP JUMPDEST SWAP1 POP SWAP3 SWAP6 POP SWAP3 SWAP6 SWAP1 SWAP4 POP JUMP INVALID LOG2 PUSH5 0x6970667358 0x22 SLT KECCAK256 GT 0x2E LOG4 JUMPDEST SSTORE 0xB9 0xE8 0x24 0x24 SAR PUSH10 0xCFE6156E8DA21D31DF47 GASPRICE MSIZE 0xE6 0x2F PUSH31 0x2770C75E455B64736F6C634300081B00330000000000000000000000000000 "},"methodIdentifiers":{"computeForwarderAddress(address,address,address,bytes32)":"101dd356","createForwarder(address,address,bytes32,bool,bool)":"2f6f713e","implementationAddress()":"b97a2319"}}}}}