{"contracts/CvhWalletSimple.sol":{"CvhWalletSimple":{"abi":[{"inputs":[],"stateMutability":"nonpayable","type":"constructor"},{"inputs":[],"name":"AlreadyInitialized","type":"error"},{"inputs":[],"name":"BatchNotAllowedInSafeMode","type":"error"},{"inputs":[],"name":"BatchTransferFailed","type":"error"},{"inputs":[],"name":"CallFailed","type":"error"},{"inputs":[],"name":"DuplicateSigner","type":"error"},{"inputs":[],"name":"EmptyBatch","type":"error"},{"inputs":[],"name":"Expired","type":"error"},{"inputs":[],"name":"InvalidSValue","type":"error"},{"inputs":[],"name":"InvalidSignature","type":"error"},{"inputs":[],"name":"InvalidSignatureLength","type":"error"},{"inputs":[],"name":"InvalidVValue","type":"error"},{"inputs":[],"name":"MaxRecipientsExceeded","type":"error"},{"inputs":[],"name":"NotASigner","type":"error"},{"inputs":[],"name":"ReentrancyGuardReentrantCall","type":"error"},{"inputs":[],"name":"RequiresThreeSigners","type":"error"},{"inputs":[],"name":"SafeModeRestriction","type":"error"},{"inputs":[],"name":"SequenceIdAlreadyUsed","type":"error"},{"inputs":[],"name":"SequenceIdTooHigh","type":"error"},{"inputs":[],"name":"SequenceIdTooLow","type":"error"},{"inputs":[],"name":"SignersMustBeDifferent","type":"error"},{"inputs":[],"name":"TransferFailed","type":"error"},{"inputs":[],"name":"UnequalLengths","type":"error"},{"inputs":[],"name":"ZeroAddressSigner","type":"error"},{"anonymous":false,"inputs":[{"indexed":false,"internalType":"address","name":"msgSender","type":"address"},{"indexed":false,"internalType":"address","name":"otherSigner","type":"address"},{"indexed":false,"internalType":"bytes32","name":"operation","type":"bytes32"}],"name":"BatchTransacted","type":"event"},{"anonymous":false,"inputs":[{"indexed":true,"internalType":"address","name":"sender","type":"address"},{"indexed":false,"internalType":"address","name":"recipient","type":"address"},{"indexed":false,"internalType":"uint256","name":"value","type":"uint256"}],"name":"BatchTransfer","type":"event"},{"anonymous":false,"inputs":[{"indexed":false,"internalType":"address","name":"from","type":"address"},{"indexed":false,"internalType":"uint256","name":"value","type":"uint256"},{"indexed":false,"internalType":"bytes","name":"data","type":"bytes"}],"name":"Deposited","type":"event"},{"anonymous":false,"inputs":[{"indexed":false,"internalType":"address","name":"msgSender","type":"address"}],"name":"SafeModeActivated","type":"event"},{"anonymous":false,"inputs":[{"indexed":false,"internalType":"address","name":"msgSender","type":"address"},{"indexed":false,"internalType":"address","name":"otherSigner","type":"address"},{"indexed":false,"internalType":"bytes32","name":"operation","type":"bytes32"},{"indexed":false,"internalType":"address","name":"toAddress","type":"address"},{"indexed":false,"internalType":"uint256","name":"value","type":"uint256"},{"indexed":false,"internalType":"bytes","name":"data","type":"bytes"}],"name":"Transacted","type":"event"},{"stateMutability":"payable","type":"fallback"},{"inputs":[],"name":"activateSafeMode","outputs":[],"stateMutability":"nonpayable","type":"function"},{"inputs":[{"internalType":"address payable","name":"forwarderAddress","type":"address"},{"internalType":"address","name":"tokenContractAddress","type":"address"}],"name":"flushForwarderTokens","outputs":[],"stateMutability":"nonpayable","type":"function"},{"inputs":[],"name":"getBatchNetworkId","outputs":[{"internalType":"string","name":"","type":"string"}],"stateMutability":"view","type":"function"},{"inputs":[],"name":"getNetworkId","outputs":[{"internalType":"string","name":"","type":"string"}],"stateMutability":"view","type":"function"},{"inputs":[],"name":"getNextSequenceId","outputs":[{"internalType":"uint256","name":"","type":"uint256"}],"stateMutability":"view","type":"function"},{"inputs":[],"name":"getTokenNetworkId","outputs":[{"internalType":"string","name":"","type":"string"}],"stateMutability":"view","type":"function"},{"inputs":[{"internalType":"address[]","name":"allowedSigners","type":"address[]"}],"name":"init","outputs":[],"stateMutability":"nonpayable","type":"function"},{"inputs":[],"name":"initialized","outputs":[{"internalType":"bool","name":"","type":"bool"}],"stateMutability":"view","type":"function"},{"inputs":[{"internalType":"address","name":"","type":"address"}],"name":"isSigner","outputs":[{"internalType":"bool","name":"","type":"bool"}],"stateMutability":"view","type":"function"},{"inputs":[{"internalType":"address","name":"","type":"address"},{"internalType":"address","name":"","type":"address"},{"internalType":"uint256[]","name":"","type":"uint256[]"},{"internalType":"uint256[]","name":"","type":"uint256[]"},{"internalType":"bytes","name":"","type":"bytes"}],"name":"onERC1155BatchReceived","outputs":[{"internalType":"bytes4","name":"","type":"bytes4"}],"stateMutability":"nonpayable","type":"function"},{"inputs":[{"internalType":"address","name":"","type":"address"},{"internalType":"address","name":"","type":"address"},{"internalType":"uint256","name":"","type":"uint256"},{"internalType":"uint256","name":"","type":"uint256"},{"internalType":"bytes","name":"","type":"bytes"}],"name":"onERC1155Received","outputs":[{"internalType":"bytes4","name":"","type":"bytes4"}],"stateMutability":"nonpayable","type":"function"},{"inputs":[{"internalType":"address","name":"","type":"address"},{"internalType":"address","name":"","type":"address"},{"internalType":"uint256","name":"","type":"uint256"},{"internalType":"bytes","name":"","type":"bytes"}],"name":"onERC721Received","outputs":[{"internalType":"bytes4","name":"","type":"bytes4"}],"stateMutability":"pure","type":"function"},{"inputs":[],"name":"safeMode","outputs":[{"internalType":"bool","name":"","type":"bool"}],"stateMutability":"view","type":"function"},{"inputs":[{"internalType":"address","name":"toAddress","type":"address"},{"internalType":"uint256","name":"value","type":"uint256"},{"internalType":"bytes","name":"data","type":"bytes"},{"internalType":"uint256","name":"expireTime","type":"uint256"},{"internalType":"uint256","name":"sequenceId","type":"uint256"},{"internalType":"bytes","name":"signature","type":"bytes"}],"name":"sendMultiSig","outputs":[],"stateMutability":"nonpayable","type":"function"},{"inputs":[{"internalType":"address[]","name":"recipients","type":"address[]"},{"internalType":"uint256[]","name":"values","type":"uint256[]"},{"internalType":"uint256","name":"expireTime","type":"uint256"},{"internalType":"uint256","name":"sequenceId","type":"uint256"},{"internalType":"bytes","name":"signature","type":"bytes"}],"name":"sendMultiSigBatch","outputs":[],"stateMutability":"nonpayable","type":"function"},{"inputs":[{"internalType":"address","name":"toAddress","type":"address"},{"internalType":"uint256","name":"value","type":"uint256"},{"internalType":"address","name":"tokenContractAddress","type":"address"},{"internalType":"uint256","name":"expireTime","type":"uint256"},{"internalType":"uint256","name":"sequenceId","type":"uint256"},{"internalType":"bytes","name":"signature","type":"bytes"}],"name":"sendMultiSigToken","outputs":[],"stateMutability":"nonpayable","type":"function"},{"inputs":[{"internalType":"uint256","name":"","type":"uint256"}],"name":"signers","outputs":[{"internalType":"address","name":"","type":"address"}],"stateMutability":"view","type":"function"},{"inputs":[{"internalType":"bytes4","name":"interfaceId","type":"bytes4"}],"name":"supportsInterface","outputs":[{"internalType":"bool","name":"","type":"bool"}],"stateMutability":"view","type":"function"},{"stateMutability":"payable","type":"receive"}],"evm":{"bytecode":{"linkReferences":{},"object":"6080604052348015600e575f5ffd5b5060017f9b779b17422d0df92223018b32b4d1fa46e071723d6817e2486d003becc55f00555f805460ff191660011790556120588061004c5f395ff3fe60806040526004361061012c575f3560e01c806339c5f3fc116100a4578063ad3ad70911610073578063c6044c4611610058578063c6044c46146103fd578063f23a6e611461041c578063fc0f392d1461046057610185565b8063ad3ad7091461039a578063bc197c81146103b957610185565b806339c5f3fc146103195780637df73e271461032d578063a0b7967b1461035b578063abe3219c1461037d57610185565b80632079fb9a116100fb5780632d2cae61116100e05780632d2cae61146102c75780632da03409146102db57806339125215146102fa57610185565b80632079fb9a1461026f578063260edcfd146102a657610185565b806301ffc9a7146101c05780630dcd7a6c146101f4578063150b7a0214610213578063158ef93e1461025757610185565b36610185573415610183576040805133815234602082015260609181018290525f918101919091527f6e89d517057028190560dd200cf6bf792842861353d1173761dfa362e1c133f0906080015b60405180910390a15b005b3415610183577f6e89d517057028190560dd200cf6bf792842861353d1173761dfa362e1c133f033345f3660405161017a9493929190611738565b3480156101cb575f5ffd5b506101df6101da366004611760565b610474565b60405190151581526020015b60405180910390f35b3480156101ff575f5ffd5b5061018361020e3660046117ea565b61049e565b34801561021e575f5ffd5b5061023e61022d36600461186a565b630a85bd0160e11b95945050505050565b6040516001600160e01b031990911681526020016101eb565b348015610262575f5ffd5b505f546101df9060ff1681565b34801561027a575f5ffd5b5061028e6102893660046118d8565b61060c565b6040516001600160a01b0390911681526020016101eb565b3480156102b1575f5ffd5b506102ba610634565b6040516101eb919061191d565b3480156102d2575f5ffd5b506102ba610662565b3480156102e6575f5ffd5b506101836102f536600461192f565b61067c565b348015610305575f5ffd5b50610183610314366004611966565b61071e565b348015610324575f5ffd5b506102ba6108f9565b348015610338575f5ffd5b506101df610347366004611a03565b60026020525f908152604090205460ff1681565b348015610366575f5ffd5b5061036f610909565b6040519081526020016101eb565b348015610388575f5ffd5b505f546101df90610100900460ff1681565b3480156103a5575f5ffd5b506101836103b4366004611a5f565b610964565b3480156103c4575f5ffd5b5061023e6103d3366004611c17565b7fbc197c810000000000000000000000000000000000000000000000000000000095945050505050565b348015610408575f5ffd5b50610183610417366004611cca565b610cb0565b348015610427575f5ffd5b5061023e610436366004611d09565b7ff23a6e610000000000000000000000000000000000000000000000000000000095945050505050565b34801561046b575f5ffd5b50610183610ef2565b5f6001600160e01b03198216630a85bd0160e11b1480610498575061049882610f64565b92915050565b335f9081526002602052604090205460ff166104cd5760405163da0357f760e01b815260040160405180910390fd5b6104d5610fca565b5f6104de610634565b88888888886040516020016104f896959493929190611d61565b6040516020818303038152906040528051906020012090505f61051e8285858989610ff8565b5f54909150610100900460ff1615610568576001600160a01b0389165f9081526002602052604090205460ff1661056857604051631df1f29b60e31b815260040160405180910390fd5b610573878a8a6110cf565b604080513381526001600160a01b0383811660208301528183018590528b166060820152608081018a905260c060a082018190525f9082015290517f59bed9ab5d78073465dd642a9e3e76dfdb7d53bcae9d09df7d0b8f5234d5a8069181900360e00190a1505061060360017f9b779b17422d0df92223018b32b4d1fa46e071723d6817e2486d003becc55f0055565b50505050505050565b6001818154811061061b575f80fd5b5f918252602090912001546001600160a01b0316905081565b606061063e6108f9565b60405160200161064e9190611dbd565b604051602081830303815290604052905090565b606061066c6108f9565b60405160200161064e9190611df5565b335f9081526002602052604090205460ff166106ab5760405163da0357f760e01b815260040160405180910390fd5b6040517f3ef133670000000000000000000000000000000000000000000000000000000081526001600160a01b038281166004830152831690633ef13367906024015f604051808303815f87803b158015610704575f5ffd5b505af1158015610716573d5f5f3e3d5ffd5b505050505050565b335f9081526002602052604090205460ff1661074d5760405163da0357f760e01b815260040160405180910390fd5b610755610fca565b5f61075e6108f9565b89898989898960405160200161077a9796959493929190611e2d565b6040516020818303038152906040528051906020012090505f6107a08285858989610ff8565b5f54909150610100900460ff16156107ea576001600160a01b038a165f9081526002602052604090205460ff166107ea57604051631df1f29b60e31b815260040160405180910390fd5b5f8a6001600160a01b03168a8a8a604051610806929190611e7e565b5f6040518083038185875af1925050503d805f8114610840576040519150601f19603f3d011682016040523d82523d5f602084013e610845565b606091505b5050905080610880576040517f3204506f00000000000000000000000000000000000000000000000000000000815260040160405180910390fd5b7f59bed9ab5d78073465dd642a9e3e76dfdb7d53bcae9d09df7d0b8f5234d5a8063383858e8e8e8e6040516108bb9796959493929190611e8d565b60405180910390a15050506108ef60017f9b779b17422d0df92223018b32b4d1fa46e071723d6817e2486d003becc55f0055565b5050505050505050565b606061090446611202565b905090565b5f80805b600a8110156109525781600382600a811061092a5761092a611ee6565b0154111561094a57600381600a811061094557610945611ee6565b015491505b60010161090d565b5061095e816001611f0e565b91505090565b335f9081526002602052604090205460ff166109935760405163da0357f760e01b815260040160405180910390fd5b61099b610fca565b5f54610100900460ff16156109dc576040517f57683b0a00000000000000000000000000000000000000000000000000000000815260040160405180910390fd5b868514610a15576040517fccab218c00000000000000000000000000000000000000000000000000000000815260040160405180910390fd5b5f879003610a4f576040517fc2e5347d00000000000000000000000000000000000000000000000000000000815260040160405180910390fd5b60ff871115610a8a576040517fbc56610c00000000000000000000000000000000000000000000000000000000815260040160405180910390fd5b5f610a93610662565b898989898989604051602001610aaf9796959493929190611f21565b6040516020818303038152906040528051906020012090505f610ad58285858989610ff8565b90505f5b89811015610c3b575f8b8b83818110610af457610af4611ee6565b9050602002016020810190610b099190611a03565b6001600160a01b03168a8a84818110610b2457610b24611ee6565b90506020020135620186a0906040515f60405180830381858888f193505050503d805f8114610b6e576040519150601f19603f3d011682016040523d82523d5f602084013e610b73565b606091505b5050905080610bae576040517ffe90560300000000000000000000000000000000000000000000000000000000815260040160405180910390fd5b337fc42fa155158786a1dd6ccc3a785f35845467353c3cc700e0e31a79f90e22227d8d8d85818110610be257610be2611ee6565b9050602002016020810190610bf79190611a03565b8c8c86818110610c0957610c09611ee6565b604080516001600160a01b0390951685526020918202939093013590840152500160405180910390a250600101610ad9565b50604080513381526001600160a01b03831660208201529081018390527fe4c9047a729726b729cf4fa62c95ef9a434bbaf206a7ea0c7c77515db15840229060600160405180910390a150506108ef60017f9b779b17422d0df92223018b32b4d1fa46e071723d6817e2486d003becc55f0055565b5f5460ff1615610cec576040517f0dc149f000000000000000000000000000000000000000000000000000000000815260040160405180910390fd5b60038114610d26576040517fc6a5f54c00000000000000000000000000000000000000000000000000000000815260040160405180910390fd5b5f5b6003811015610ee1575f838383818110610d4457610d44611ee6565b9050602002016020810190610d599190611a03565b6001600160a01b031603610d99576040517fec67b1b900000000000000000000000000000000000000000000000000000000815260040160405180910390fd5b60025f848484818110610dae57610dae611ee6565b9050602002016020810190610dc39190611a03565b6001600160a01b0316815260208101919091526040015f205460ff1615610e16576040517f8044bb3300000000000000000000000000000000000000000000000000000000815260040160405180910390fd5b600160025f858585818110610e2d57610e2d611ee6565b9050602002016020810190610e429190611a03565b6001600160a01b0316815260208101919091526040015f20805460ff19169115159190911790556001838383818110610e7d57610e7d611ee6565b9050602002016020810190610e929190611a03565b8154600180820184555f93845260209093200180547fffffffffffffffffffffffff0000000000000000000000000000000000000000166001600160a01b039290921691909117905501610d28565b50505f805460ff1916600117905550565b335f9081526002602052604090205460ff16610f215760405163da0357f760e01b815260040160405180910390fd5b5f805461ff0019166101001790556040513381527f0909e8f76a4fd3e970f2eaef56c0ee6dfaf8b87c5b8d3f56ffce78e825a911579060200160405180910390a1565b5f6001600160e01b031982167f4e2312e000000000000000000000000000000000000000000000000000000000148061049857507f01ffc9a7000000000000000000000000000000000000000000000000000000006001600160e01b0319831614610498565b610fd261129f565b60027f9b779b17422d0df92223018b32b4d1fa46e071723d6817e2486d003becc55f0055565b5f42831015611033576040517f203d82d800000000000000000000000000000000000000000000000000000000815260040160405180910390fd5b61103c826112fc565b5f611048878787611430565b6001600160a01b0381165f9081526002602052604090205490915060ff166110835760405163da0357f760e01b815260040160405180910390fd5b336001600160a01b038216036110c5576040517f29e4fb0700000000000000000000000000000000000000000000000000000000815260040160405180910390fd5b9695505050505050565b604080516001600160a01b038481166024830152604480830185905283518084039091018152606490920183526020820180517bffffffffffffffffffffffffffffffffffffffffffffffffffffffff167fa9059cbb0000000000000000000000000000000000000000000000000000000017905291515f928392908716916111589190611fdf565b5f604051808303815f865af19150503d805f8114611191576040519150601f19603f3d011682016040523d82523d5f602084013e611196565b606091505b50915091508115806111c457505f81511180156111c45750808060200190518101906111c29190611fea565b155b156111fb576040517f90b8ec1800000000000000000000000000000000000000000000000000000000815260040160405180910390fd5b5050505050565b60605f61120e8361162f565b60010190505f8167ffffffffffffffff81111561122d5761122d611af0565b6040519080825280601f01601f191660200182016040528015611257576020820181803683370190505b5090508181016020015b5f19017f3031323334353637383961626364656600000000000000000000000000000000600a86061a8153600a850494508461126157509392505050565b7f9b779b17422d0df92223018b32b4d1fa46e071723d6817e2486d003becc55f00546002036112fa576040517f3ee5aeb500000000000000000000000000000000000000000000000000000000815260040160405180910390fd5b565b5f195f805b600a8110156113965783600382600a811061131e5761131e611ee6565b015403611357576040517f44bb34e400000000000000000000000000000000000000000000000000000000815260040160405180910390fd5b82600382600a811061136b5761136b611ee6565b0154101561138e57600381600a811061138657611386611ee6565b015492508091505b600101611301565b508183116113d0576040517f174a46d400000000000000000000000000000000000000000000000000000000815260040160405180910390fd5b6113dc61271083611f0e565b831115611415576040517fc64203af00000000000000000000000000000000000000000000000000000000815260040160405180910390fd5b82600382600a811061142957611429611ee6565b0155505050565b5f6041821461146b576040517f4be6321b00000000000000000000000000000000000000000000000000000000815260040160405180910390fd5b8235602084013560408501355f1a601b8110156114905761148d601b82612009565b90505b8060ff16601b141580156114a857508060ff16601c14155b156114df576040517fa5f5a60c00000000000000000000000000000000000000000000000000000000815260040160405180910390fd5b7f7fffffffffffffffffffffffffffffff5d576e7357a4501ddfe92f46681b20a0821115611539576040517fddbf804200000000000000000000000000000000000000000000000000000000815260040160405180910390fd5b6040517f19457468657265756d205369676e6564204d6573736167653a0a3332000000006020820152603c81018890525f90605c0160408051601f1981840301815282825280516020918201205f80855291840180845281905260ff86169284019290925260608301879052608083018690529092509060019060a0016020604051602081039080840390855afa1580156115d6573d5f5f3e3d5ffd5b5050604051601f1901519150506001600160a01b038116611623576040517f8baa579f00000000000000000000000000000000000000000000000000000000815260040160405180910390fd5b98975050505050505050565b5f807a184f03e93ff9f4daa797ed6e38ed64bf6a1f0100000000000000008310611677577a184f03e93ff9f4daa797ed6e38ed64bf6a1f010000000000000000830492506040015b6d04ee2d6d415b85acef810000000083106116a3576d04ee2d6d415b85acef8100000000830492506020015b662386f26fc1000083106116c157662386f26fc10000830492506010015b6305f5e10083106116d9576305f5e100830492506008015b61271083106116ed57612710830492506004015b606483106116ff576064830492506002015b600a83106104985760010192915050565b81835281816020850137505f828201602090810191909152601f909101601f19169091010190565b6001600160a01b0385168152836020820152606060408201525f6110c5606083018486611710565b5f60208284031215611770575f5ffd5b81356001600160e01b031981168114611787575f5ffd5b9392505050565b6001600160a01b03811681146117a2575f5ffd5b50565b5f5f83601f8401126117b5575f5ffd5b50813567ffffffffffffffff8111156117cc575f5ffd5b6020830191508360208285010111156117e3575f5ffd5b9250929050565b5f5f5f5f5f5f5f60c0888a031215611800575f5ffd5b873561180b8161178e565b96506020880135955060408801356118228161178e565b9450606088013593506080880135925060a088013567ffffffffffffffff81111561184b575f5ffd5b6118578a828b016117a5565b989b979a50959850939692959293505050565b5f5f5f5f5f6080868803121561187e575f5ffd5b85356118898161178e565b945060208601356118998161178e565b935060408601359250606086013567ffffffffffffffff8111156118bb575f5ffd5b6118c7888289016117a5565b969995985093965092949392505050565b5f602082840312156118e8575f5ffd5b5035919050565b5f81518084528060208401602086015e5f602082860101526020601f19601f83011685010191505092915050565b602081525f61178760208301846118ef565b5f5f60408385031215611940575f5ffd5b823561194b8161178e565b9150602083013561195b8161178e565b809150509250929050565b5f5f5f5f5f5f5f5f60c0898b03121561197d575f5ffd5b88356119888161178e565b975060208901359650604089013567ffffffffffffffff8111156119aa575f5ffd5b6119b68b828c016117a5565b909750955050606089013593506080890135925060a089013567ffffffffffffffff8111156119e3575f5ffd5b6119ef8b828c016117a5565b999c989b5096995094979396929594505050565b5f60208284031215611a13575f5ffd5b81356117878161178e565b5f5f83601f840112611a2e575f5ffd5b50813567ffffffffffffffff811115611a45575f5ffd5b6020830191508360208260051b85010111156117e3575f5ffd5b5f5f5f5f5f5f5f5f60a0898b031215611a76575f5ffd5b883567ffffffffffffffff811115611a8c575f5ffd5b611a988b828c01611a1e565b909950975050602089013567ffffffffffffffff811115611ab7575f5ffd5b611ac38b828c01611a1e565b9097509550506040890135935060608901359250608089013567ffffffffffffffff8111156119e3575f5ffd5b634e487b7160e01b5f52604160045260245ffd5b604051601f8201601f1916810167ffffffffffffffff81118282101715611b2d57611b2d611af0565b604052919050565b5f82601f830112611b44575f5ffd5b813567ffffffffffffffff811115611b5e57611b5e611af0565b8060051b611b6e60208201611b04565b91825260208185018101929081019086841115611b89575f5ffd5b6020860192505b838310156110c5578235825260209283019290910190611b90565b5f82601f830112611bba575f5ffd5b813567ffffffffffffffff811115611bd457611bd4611af0565b611be7601f8201601f1916602001611b04565b818152846020838601011115611bfb575f5ffd5b816020850160208301375f918101602001919091529392505050565b5f5f5f5f5f60a08688031215611c2b575f5ffd5b8535611c368161178e565b94506020860135611c468161178e565b9350604086013567ffffffffffffffff811115611c61575f5ffd5b611c6d88828901611b35565b935050606086013567ffffffffffffffff811115611c89575f5ffd5b611c9588828901611b35565b925050608086013567ffffffffffffffff811115611cb1575f5ffd5b611cbd88828901611bab565b9150509295509295909350565b5f5f60208385031215611cdb575f5ffd5b823567ffffffffffffffff811115611cf1575f5ffd5b611cfd85828601611a1e565b90969095509350505050565b5f5f5f5f5f60a08688031215611d1d575f5ffd5b8535611d288161178e565b94506020860135611d388161178e565b93506040860135925060608601359150608086013567ffffffffffffffff811115611cb1575f5ffd5b60c081525f611d7360c08301896118ef565b6001600160a01b039788166020840152604083019690965250929094166060830152608082015260a00191909152919050565b5f81518060208401855e5f93019283525090919050565b5f611dc88284611da6565b7f2d4552433230000000000000000000000000000000000000000000000000000081526006019392505050565b5f611e008284611da6565b7f2d4261746368000000000000000000000000000000000000000000000000000081526006019392505050565b60c081525f611e3f60c083018a6118ef565b6001600160a01b03891660208401528760408401528281036060840152611e67818789611710565b6080840195909552505060a0015295945050505050565b818382375f9101908152919050565b6001600160a01b03881681526001600160a01b03871660208201528560408201526001600160a01b038516606082015283608082015260c060a08201525f611ed960c083018486611710565b9998505050505050505050565b634e487b7160e01b5f52603260045260245ffd5b634e487b7160e01b5f52601160045260245ffd5b8082018082111561049857610498611efa565b60a081525f611f3360a083018a6118ef565b8281036020808501919091528882528991015f5b89811015611f77578235611f5a8161178e565b6001600160a01b0316825260209283019290910190600101611f47565b5083810360408501525f91508681527f07ffffffffffffffffffffffffffffffffffffffffffffffffffffffffffffff871115611fb2575f5ffd5b8660051b808960208401376060850196909652608090930193909352509091016020019695505050505050565b5f6117878284611da6565b5f60208284031215611ffa575f5ffd5b81518015158114611787575f5ffd5b60ff818116838216019081111561049857610498611efa56fea264697066735822122002f6b9d740eee97d13e85f820f5d38f57fb0059bb4d47af9dec09ca6280532d864736f6c634300081b0033","opcodes":"PUSH1 0x80 PUSH1 0x40 MSTORE CALLVALUE DUP1 ISZERO PUSH1 0xE JUMPI PUSH0 PUSH0 REVERT JUMPDEST POP PUSH1 0x1 PUSH32 0x9B779B17422D0DF92223018B32B4D1FA46E071723D6817E2486D003BECC55F00 SSTORE PUSH0 DUP1 SLOAD PUSH1 0xFF NOT AND PUSH1 0x1 OR SWAP1 SSTORE PUSH2 0x2058 DUP1 PUSH2 0x4C PUSH0 CODECOPY PUSH0 RETURN INVALID PUSH1 0x80 PUSH1 0x40 MSTORE PUSH1 0x4 CALLDATASIZE LT PUSH2 0x12C JUMPI PUSH0 CALLDATALOAD PUSH1 0xE0 SHR DUP1 PUSH4 0x39C5F3FC GT PUSH2 0xA4 JUMPI DUP1 PUSH4 0xAD3AD709 GT PUSH2 0x73 JUMPI DUP1 PUSH4 0xC6044C46 GT PUSH2 0x58 JUMPI DUP1 PUSH4 0xC6044C46 EQ PUSH2 0x3FD JUMPI DUP1 PUSH4 0xF23A6E61 EQ PUSH2 0x41C JUMPI DUP1 PUSH4 0xFC0F392D EQ PUSH2 0x460 JUMPI PUSH2 0x185 JUMP JUMPDEST DUP1 PUSH4 0xAD3AD709 EQ PUSH2 0x39A JUMPI DUP1 PUSH4 0xBC197C81 EQ PUSH2 0x3B9 JUMPI PUSH2 0x185 JUMP JUMPDEST DUP1 PUSH4 0x39C5F3FC EQ PUSH2 0x319 JUMPI DUP1 PUSH4 0x7DF73E27 EQ PUSH2 0x32D JUMPI DUP1 PUSH4 0xA0B7967B EQ PUSH2 0x35B JUMPI DUP1 PUSH4 0xABE3219C EQ PUSH2 0x37D JUMPI PUSH2 0x185 JUMP JUMPDEST DUP1 PUSH4 0x2079FB9A GT PUSH2 0xFB JUMPI DUP1 PUSH4 0x2D2CAE61 GT PUSH2 0xE0 JUMPI DUP1 PUSH4 0x2D2CAE61 EQ PUSH2 0x2C7 JUMPI DUP1 PUSH4 0x2DA03409 EQ PUSH2 0x2DB JUMPI DUP1 PUSH4 0x39125215 EQ PUSH2 0x2FA JUMPI PUSH2 0x185 JUMP JUMPDEST DUP1 PUSH4 0x2079FB9A EQ PUSH2 0x26F JUMPI DUP1 PUSH4 0x260EDCFD EQ PUSH2 0x2A6 JUMPI PUSH2 0x185 JUMP JUMPDEST DUP1 PUSH4 0x1FFC9A7 EQ PUSH2 0x1C0 JUMPI DUP1 PUSH4 0xDCD7A6C EQ PUSH2 0x1F4 JUMPI DUP1 PUSH4 0x150B7A02 EQ PUSH2 0x213 JUMPI DUP1 PUSH4 0x158EF93E EQ PUSH2 0x257 JUMPI PUSH2 0x185 JUMP JUMPDEST CALLDATASIZE PUSH2 0x185 JUMPI CALLVALUE ISZERO PUSH2 0x183 JUMPI PUSH1 0x40 DUP1 MLOAD CALLER DUP2 MSTORE CALLVALUE PUSH1 0x20 DUP3 ADD MSTORE PUSH1 0x60 SWAP2 DUP2 ADD DUP3 SWAP1 MSTORE PUSH0 SWAP2 DUP2 ADD SWAP2 SWAP1 SWAP2 MSTORE PUSH32 0x6E89D517057028190560DD200CF6BF792842861353D1173761DFA362E1C133F0 SWAP1 PUSH1 0x80 ADD JUMPDEST PUSH1 0x40 MLOAD DUP1 SWAP2 SUB SWAP1 LOG1 JUMPDEST STOP JUMPDEST CALLVALUE ISZERO PUSH2 0x183 JUMPI PUSH32 0x6E89D517057028190560DD200CF6BF792842861353D1173761DFA362E1C133F0 CALLER CALLVALUE PUSH0 CALLDATASIZE PUSH1 0x40 MLOAD PUSH2 0x17A SWAP5 SWAP4 SWAP3 SWAP2 SWAP1 PUSH2 0x1738 JUMP JUMPDEST CALLVALUE DUP1 ISZERO PUSH2 0x1CB JUMPI PUSH0 PUSH0 REVERT JUMPDEST POP PUSH2 0x1DF PUSH2 0x1DA CALLDATASIZE PUSH1 0x4 PUSH2 0x1760 JUMP JUMPDEST PUSH2 0x474 JUMP JUMPDEST PUSH1 0x40 MLOAD SWAP1 ISZERO ISZERO DUP2 MSTORE PUSH1 0x20 ADD JUMPDEST PUSH1 0x40 MLOAD DUP1 SWAP2 SUB SWAP1 RETURN JUMPDEST CALLVALUE DUP1 ISZERO PUSH2 0x1FF JUMPI PUSH0 PUSH0 REVERT JUMPDEST POP PUSH2 0x183 PUSH2 0x20E CALLDATASIZE PUSH1 0x4 PUSH2 0x17EA JUMP JUMPDEST PUSH2 0x49E JUMP JUMPDEST CALLVALUE DUP1 ISZERO PUSH2 0x21E JUMPI PUSH0 PUSH0 REVERT JUMPDEST POP PUSH2 0x23E PUSH2 0x22D CALLDATASIZE PUSH1 0x4 PUSH2 0x186A JUMP JUMPDEST PUSH4 0xA85BD01 PUSH1 0xE1 SHL SWAP6 SWAP5 POP POP POP POP POP JUMP JUMPDEST PUSH1 0x40 MLOAD PUSH1 0x1 PUSH1 0x1 PUSH1 0xE0 SHL SUB NOT SWAP1 SWAP2 AND DUP2 MSTORE PUSH1 0x20 ADD PUSH2 0x1EB JUMP JUMPDEST CALLVALUE DUP1 ISZERO PUSH2 0x262 JUMPI PUSH0 PUSH0 REVERT JUMPDEST POP PUSH0 SLOAD PUSH2 0x1DF SWAP1 PUSH1 0xFF AND DUP2 JUMP JUMPDEST CALLVALUE DUP1 ISZERO PUSH2 0x27A JUMPI PUSH0 PUSH0 REVERT JUMPDEST POP PUSH2 0x28E PUSH2 0x289 CALLDATASIZE PUSH1 0x4 PUSH2 0x18D8 JUMP JUMPDEST PUSH2 0x60C JUMP JUMPDEST PUSH1 0x40 MLOAD PUSH1 0x1 PUSH1 0x1 PUSH1 0xA0 SHL SUB SWAP1 SWAP2 AND DUP2 MSTORE PUSH1 0x20 ADD PUSH2 0x1EB JUMP JUMPDEST CALLVALUE DUP1 ISZERO PUSH2 0x2B1 JUMPI PUSH0 PUSH0 REVERT JUMPDEST POP PUSH2 0x2BA PUSH2 0x634 JUMP JUMPDEST PUSH1 0x40 MLOAD PUSH2 0x1EB SWAP2 SWAP1 PUSH2 0x191D JUMP JUMPDEST CALLVALUE DUP1 ISZERO PUSH2 0x2D2 JUMPI PUSH0 PUSH0 REVERT JUMPDEST POP PUSH2 0x2BA PUSH2 0x662 JUMP JUMPDEST CALLVALUE DUP1 ISZERO PUSH2 0x2E6 JUMPI PUSH0 PUSH0 REVERT JUMPDEST POP PUSH2 0x183 PUSH2 0x2F5 CALLDATASIZE PUSH1 0x4 PUSH2 0x192F JUMP JUMPDEST PUSH2 0x67C JUMP JUMPDEST CALLVALUE DUP1 ISZERO PUSH2 0x305 JUMPI PUSH0 PUSH0 REVERT JUMPDEST POP PUSH2 0x183 PUSH2 0x314 CALLDATASIZE PUSH1 0x4 PUSH2 0x1966 JUMP JUMPDEST PUSH2 0x71E JUMP JUMPDEST CALLVALUE DUP1 ISZERO PUSH2 0x324 JUMPI PUSH0 PUSH0 REVERT JUMPDEST POP PUSH2 0x2BA PUSH2 0x8F9 JUMP JUMPDEST CALLVALUE DUP1 ISZERO PUSH2 0x338 JUMPI PUSH0 PUSH0 REVERT JUMPDEST POP PUSH2 0x1DF PUSH2 0x347 CALLDATASIZE PUSH1 0x4 PUSH2 0x1A03 JUMP JUMPDEST PUSH1 0x2 PUSH1 0x20 MSTORE PUSH0 SWAP1 DUP2 MSTORE PUSH1 0x40 SWAP1 KECCAK256 SLOAD PUSH1 0xFF AND DUP2 JUMP JUMPDEST CALLVALUE DUP1 ISZERO PUSH2 0x366 JUMPI PUSH0 PUSH0 REVERT JUMPDEST POP PUSH2 0x36F PUSH2 0x909 JUMP JUMPDEST PUSH1 0x40 MLOAD SWAP1 DUP2 MSTORE PUSH1 0x20 ADD PUSH2 0x1EB JUMP JUMPDEST CALLVALUE DUP1 ISZERO PUSH2 0x388 JUMPI PUSH0 PUSH0 REVERT JUMPDEST POP PUSH0 SLOAD PUSH2 0x1DF SWAP1 PUSH2 0x100 SWAP1 DIV PUSH1 0xFF AND DUP2 JUMP JUMPDEST CALLVALUE DUP1 ISZERO PUSH2 0x3A5 JUMPI PUSH0 PUSH0 REVERT JUMPDEST POP PUSH2 0x183 PUSH2 0x3B4 CALLDATASIZE PUSH1 0x4 PUSH2 0x1A5F JUMP JUMPDEST PUSH2 0x964 JUMP JUMPDEST CALLVALUE DUP1 ISZERO PUSH2 0x3C4 JUMPI PUSH0 PUSH0 REVERT JUMPDEST POP PUSH2 0x23E PUSH2 0x3D3 CALLDATASIZE PUSH1 0x4 PUSH2 0x1C17 JUMP JUMPDEST PUSH32 0xBC197C8100000000000000000000000000000000000000000000000000000000 SWAP6 SWAP5 POP POP POP POP POP JUMP JUMPDEST CALLVALUE DUP1 ISZERO PUSH2 0x408 JUMPI PUSH0 PUSH0 REVERT JUMPDEST POP PUSH2 0x183 PUSH2 0x417 CALLDATASIZE PUSH1 0x4 PUSH2 0x1CCA JUMP JUMPDEST PUSH2 0xCB0 JUMP JUMPDEST CALLVALUE DUP1 ISZERO PUSH2 0x427 JUMPI PUSH0 PUSH0 REVERT JUMPDEST POP PUSH2 0x23E PUSH2 0x436 CALLDATASIZE PUSH1 0x4 PUSH2 0x1D09 JUMP JUMPDEST PUSH32 0xF23A6E6100000000000000000000000000000000000000000000000000000000 SWAP6 SWAP5 POP POP POP POP POP JUMP JUMPDEST CALLVALUE DUP1 ISZERO PUSH2 0x46B JUMPI PUSH0 PUSH0 REVERT JUMPDEST POP PUSH2 0x183 PUSH2 0xEF2 JUMP JUMPDEST PUSH0 PUSH1 0x1 PUSH1 0x1 PUSH1 0xE0 SHL SUB NOT DUP3 AND PUSH4 0xA85BD01 PUSH1 0xE1 SHL EQ DUP1 PUSH2 0x498 JUMPI POP PUSH2 0x498 DUP3 PUSH2 0xF64 JUMP JUMPDEST SWAP3 SWAP2 POP POP JUMP JUMPDEST CALLER PUSH0 SWAP1 DUP2 MSTORE PUSH1 0x2 PUSH1 0x20 MSTORE PUSH1 0x40 SWAP1 KECCAK256 SLOAD PUSH1 0xFF AND PUSH2 0x4CD JUMPI PUSH1 0x40 MLOAD PUSH4 0xDA0357F7 PUSH1 0xE0 SHL DUP2 MSTORE PUSH1 0x4 ADD PUSH1 0x40 MLOAD DUP1 SWAP2 SUB SWAP1 REVERT JUMPDEST PUSH2 0x4D5 PUSH2 0xFCA JUMP JUMPDEST PUSH0 PUSH2 0x4DE PUSH2 0x634 JUMP JUMPDEST DUP9 DUP9 DUP9 DUP9 DUP9 PUSH1 0x40 MLOAD PUSH1 0x20 ADD PUSH2 0x4F8 SWAP7 SWAP6 SWAP5 SWAP4 SWAP3 SWAP2 SWAP1 PUSH2 0x1D61 JUMP JUMPDEST PUSH1 0x40 MLOAD PUSH1 0x20 DUP2 DUP4 SUB SUB DUP2 MSTORE SWAP1 PUSH1 0x40 MSTORE DUP1 MLOAD SWAP1 PUSH1 0x20 ADD KECCAK256 SWAP1 POP PUSH0 PUSH2 0x51E DUP3 DUP6 DUP6 DUP10 DUP10 PUSH2 0xFF8 JUMP JUMPDEST PUSH0 SLOAD SWAP1 SWAP2 POP PUSH2 0x100 SWAP1 DIV PUSH1 0xFF AND ISZERO PUSH2 0x568 JUMPI PUSH1 0x1 PUSH1 0x1 PUSH1 0xA0 SHL SUB DUP10 AND PUSH0 SWAP1 DUP2 MSTORE PUSH1 0x2 PUSH1 0x20 MSTORE PUSH1 0x40 SWAP1 KECCAK256 SLOAD PUSH1 0xFF AND PUSH2 0x568 JUMPI PUSH1 0x40 MLOAD PUSH4 0x1DF1F29B PUSH1 0xE3 SHL DUP2 MSTORE PUSH1 0x4 ADD PUSH1 0x40 MLOAD DUP1 SWAP2 SUB SWAP1 REVERT JUMPDEST PUSH2 0x573 DUP8 DUP11 DUP11 PUSH2 0x10CF JUMP JUMPDEST PUSH1 0x40 DUP1 MLOAD CALLER DUP2 MSTORE PUSH1 0x1 PUSH1 0x1 PUSH1 0xA0 SHL SUB DUP4 DUP2 AND PUSH1 0x20 DUP4 ADD MSTORE DUP2 DUP4 ADD DUP6 SWAP1 MSTORE DUP12 AND PUSH1 0x60 DUP3 ADD MSTORE PUSH1 0x80 DUP2 ADD DUP11 SWAP1 MSTORE PUSH1 0xC0 PUSH1 0xA0 DUP3 ADD DUP2 SWAP1 MSTORE PUSH0 SWAP1 DUP3 ADD MSTORE SWAP1 MLOAD PUSH32 0x59BED9AB5D78073465DD642A9E3E76DFDB7D53BCAE9D09DF7D0B8F5234D5A806 SWAP2 DUP2 SWAP1 SUB PUSH1 0xE0 ADD SWAP1 LOG1 POP POP PUSH2 0x603 PUSH1 0x1 PUSH32 0x9B779B17422D0DF92223018B32B4D1FA46E071723D6817E2486D003BECC55F00 SSTORE JUMP JUMPDEST POP POP POP POP POP POP POP JUMP JUMPDEST PUSH1 0x1 DUP2 DUP2 SLOAD DUP2 LT PUSH2 0x61B JUMPI PUSH0 DUP1 REVERT JUMPDEST PUSH0 SWAP2 DUP3 MSTORE PUSH1 0x20 SWAP1 SWAP2 KECCAK256 ADD SLOAD PUSH1 0x1 PUSH1 0x1 PUSH1 0xA0 SHL SUB AND SWAP1 POP DUP2 JUMP JUMPDEST PUSH1 0x60 PUSH2 0x63E PUSH2 0x8F9 JUMP JUMPDEST PUSH1 0x40 MLOAD PUSH1 0x20 ADD PUSH2 0x64E SWAP2 SWAP1 PUSH2 0x1DBD JUMP JUMPDEST PUSH1 0x40 MLOAD PUSH1 0x20 DUP2 DUP4 SUB SUB DUP2 MSTORE SWAP1 PUSH1 0x40 MSTORE SWAP1 POP SWAP1 JUMP JUMPDEST PUSH1 0x60 PUSH2 0x66C PUSH2 0x8F9 JUMP JUMPDEST PUSH1 0x40 MLOAD PUSH1 0x20 ADD PUSH2 0x64E SWAP2 SWAP1 PUSH2 0x1DF5 JUMP JUMPDEST CALLER PUSH0 SWAP1 DUP2 MSTORE PUSH1 0x2 PUSH1 0x20 MSTORE PUSH1 0x40 SWAP1 KECCAK256 SLOAD PUSH1 0xFF AND PUSH2 0x6AB JUMPI PUSH1 0x40 MLOAD PUSH4 0xDA0357F7 PUSH1 0xE0 SHL DUP2 MSTORE PUSH1 0x4 ADD PUSH1 0x40 MLOAD DUP1 SWAP2 SUB SWAP1 REVERT JUMPDEST PUSH1 0x40 MLOAD PUSH32 0x3EF1336700000000000000000000000000000000000000000000000000000000 DUP2 MSTORE PUSH1 0x1 PUSH1 0x1 PUSH1 0xA0 SHL SUB DUP3 DUP2 AND PUSH1 0x4 DUP4 ADD MSTORE DUP4 AND SWAP1 PUSH4 0x3EF13367 SWAP1 PUSH1 0x24 ADD PUSH0 PUSH1 0x40 MLOAD DUP1 DUP4 SUB DUP2 PUSH0 DUP8 DUP1 EXTCODESIZE ISZERO DUP1 ISZERO PUSH2 0x704 JUMPI PUSH0 PUSH0 REVERT JUMPDEST POP GAS CALL ISZERO DUP1 ISZERO PUSH2 0x716 JUMPI RETURNDATASIZE PUSH0 PUSH0 RETURNDATACOPY RETURNDATASIZE PUSH0 REVERT JUMPDEST POP POP POP POP POP POP JUMP JUMPDEST CALLER PUSH0 SWAP1 DUP2 MSTORE PUSH1 0x2 PUSH1 0x20 MSTORE PUSH1 0x40 SWAP1 KECCAK256 SLOAD PUSH1 0xFF AND PUSH2 0x74D JUMPI PUSH1 0x40 MLOAD PUSH4 0xDA0357F7 PUSH1 0xE0 SHL DUP2 MSTORE PUSH1 0x4 ADD PUSH1 0x40 MLOAD DUP1 SWAP2 SUB SWAP1 REVERT JUMPDEST PUSH2 0x755 PUSH2 0xFCA JUMP JUMPDEST PUSH0 PUSH2 0x75E PUSH2 0x8F9 JUMP JUMPDEST DUP10 DUP10 DUP10 DUP10 DUP10 DUP10 PUSH1 0x40 MLOAD PUSH1 0x20 ADD PUSH2 0x77A SWAP8 SWAP7 SWAP6 SWAP5 SWAP4 SWAP3 SWAP2 SWAP1 PUSH2 0x1E2D JUMP JUMPDEST PUSH1 0x40 MLOAD PUSH1 0x20 DUP2 DUP4 SUB SUB DUP2 MSTORE SWAP1 PUSH1 0x40 MSTORE DUP1 MLOAD SWAP1 PUSH1 0x20 ADD KECCAK256 SWAP1 POP PUSH0 PUSH2 0x7A0 DUP3 DUP6 DUP6 DUP10 DUP10 PUSH2 0xFF8 JUMP JUMPDEST PUSH0 SLOAD SWAP1 SWAP2 POP PUSH2 0x100 SWAP1 DIV PUSH1 0xFF AND ISZERO PUSH2 0x7EA JUMPI PUSH1 0x1 PUSH1 0x1 PUSH1 0xA0 SHL SUB DUP11 AND PUSH0 SWAP1 DUP2 MSTORE PUSH1 0x2 PUSH1 0x20 MSTORE PUSH1 0x40 SWAP1 KECCAK256 SLOAD PUSH1 0xFF AND PUSH2 0x7EA JUMPI PUSH1 0x40 MLOAD PUSH4 0x1DF1F29B PUSH1 0xE3 SHL DUP2 MSTORE PUSH1 0x4 ADD PUSH1 0x40 MLOAD DUP1 SWAP2 SUB SWAP1 REVERT JUMPDEST PUSH0 DUP11 PUSH1 0x1 PUSH1 0x1 PUSH1 0xA0 SHL SUB AND DUP11 DUP11 DUP11 PUSH1 0x40 MLOAD PUSH2 0x806 SWAP3 SWAP2 SWAP1 PUSH2 0x1E7E JUMP JUMPDEST PUSH0 PUSH1 0x40 MLOAD DUP1 DUP4 SUB DUP2 DUP6 DUP8 GAS CALL SWAP3 POP POP POP RETURNDATASIZE DUP1 PUSH0 DUP2 EQ PUSH2 0x840 JUMPI PUSH1 0x40 MLOAD SWAP2 POP PUSH1 0x1F NOT PUSH1 0x3F RETURNDATASIZE ADD AND DUP3 ADD PUSH1 0x40 MSTORE RETURNDATASIZE DUP3 MSTORE RETURNDATASIZE PUSH0 PUSH1 0x20 DUP5 ADD RETURNDATACOPY PUSH2 0x845 JUMP JUMPDEST PUSH1 0x60 SWAP2 POP JUMPDEST POP POP SWAP1 POP DUP1 PUSH2 0x880 JUMPI PUSH1 0x40 MLOAD PUSH32 0x3204506F00000000000000000000000000000000000000000000000000000000 DUP2 MSTORE PUSH1 0x4 ADD PUSH1 0x40 MLOAD DUP1 SWAP2 SUB SWAP1 REVERT JUMPDEST PUSH32 0x59BED9AB5D78073465DD642A9E3E76DFDB7D53BCAE9D09DF7D0B8F5234D5A806 CALLER DUP4 DUP6 DUP15 DUP15 DUP15 DUP15 PUSH1 0x40 MLOAD PUSH2 0x8BB SWAP8 SWAP7 SWAP6 SWAP5 SWAP4 SWAP3 SWAP2 SWAP1 PUSH2 0x1E8D JUMP JUMPDEST PUSH1 0x40 MLOAD DUP1 SWAP2 SUB SWAP1 LOG1 POP POP POP PUSH2 0x8EF PUSH1 0x1 PUSH32 0x9B779B17422D0DF92223018B32B4D1FA46E071723D6817E2486D003BECC55F00 SSTORE JUMP JUMPDEST POP POP POP POP POP POP POP POP JUMP JUMPDEST PUSH1 0x60 PUSH2 0x904 CHAINID PUSH2 0x1202 JUMP JUMPDEST SWAP1 POP SWAP1 JUMP JUMPDEST PUSH0 DUP1 DUP1 JUMPDEST PUSH1 0xA DUP2 LT ISZERO PUSH2 0x952 JUMPI DUP2 PUSH1 0x3 DUP3 PUSH1 0xA DUP2 LT PUSH2 0x92A JUMPI PUSH2 0x92A PUSH2 0x1EE6 JUMP JUMPDEST ADD SLOAD GT ISZERO PUSH2 0x94A JUMPI PUSH1 0x3 DUP2 PUSH1 0xA DUP2 LT PUSH2 0x945 JUMPI PUSH2 0x945 PUSH2 0x1EE6 JUMP JUMPDEST ADD SLOAD SWAP2 POP JUMPDEST PUSH1 0x1 ADD PUSH2 0x90D JUMP JUMPDEST POP PUSH2 0x95E DUP2 PUSH1 0x1 PUSH2 0x1F0E JUMP JUMPDEST SWAP2 POP POP SWAP1 JUMP JUMPDEST CALLER PUSH0 SWAP1 DUP2 MSTORE PUSH1 0x2 PUSH1 0x20 MSTORE PUSH1 0x40 SWAP1 KECCAK256 SLOAD PUSH1 0xFF AND PUSH2 0x993 JUMPI PUSH1 0x40 MLOAD PUSH4 0xDA0357F7 PUSH1 0xE0 SHL DUP2 MSTORE PUSH1 0x4 ADD PUSH1 0x40 MLOAD DUP1 SWAP2 SUB SWAP1 REVERT JUMPDEST PUSH2 0x99B PUSH2 0xFCA JUMP JUMPDEST PUSH0 SLOAD PUSH2 0x100 SWAP1 DIV PUSH1 0xFF AND ISZERO PUSH2 0x9DC JUMPI PUSH1 0x40 MLOAD PUSH32 0x57683B0A00000000000000000000000000000000000000000000000000000000 DUP2 MSTORE PUSH1 0x4 ADD PUSH1 0x40 MLOAD DUP1 SWAP2 SUB SWAP1 REVERT JUMPDEST DUP7 DUP6 EQ PUSH2 0xA15 JUMPI PUSH1 0x40 MLOAD PUSH32 0xCCAB218C00000000000000000000000000000000000000000000000000000000 DUP2 MSTORE PUSH1 0x4 ADD PUSH1 0x40 MLOAD DUP1 SWAP2 SUB SWAP1 REVERT JUMPDEST PUSH0 DUP8 SWAP1 SUB PUSH2 0xA4F JUMPI PUSH1 0x40 MLOAD PUSH32 0xC2E5347D00000000000000000000000000000000000000000000000000000000 DUP2 MSTORE PUSH1 0x4 ADD PUSH1 0x40 MLOAD DUP1 SWAP2 SUB SWAP1 REVERT JUMPDEST PUSH1 0xFF DUP8 GT ISZERO PUSH2 0xA8A JUMPI PUSH1 0x40 MLOAD PUSH32 0xBC56610C00000000000000000000000000000000000000000000000000000000 DUP2 MSTORE PUSH1 0x4 ADD PUSH1 0x40 MLOAD DUP1 SWAP2 SUB SWAP1 REVERT JUMPDEST PUSH0 PUSH2 0xA93 PUSH2 0x662 JUMP JUMPDEST DUP10 DUP10 DUP10 DUP10 DUP10 DUP10 PUSH1 0x40 MLOAD PUSH1 0x20 ADD PUSH2 0xAAF SWAP8 SWAP7 SWAP6 SWAP5 SWAP4 SWAP3 SWAP2 SWAP1 PUSH2 0x1F21 JUMP JUMPDEST PUSH1 0x40 MLOAD PUSH1 0x20 DUP2 DUP4 SUB SUB DUP2 MSTORE SWAP1 PUSH1 0x40 MSTORE DUP1 MLOAD SWAP1 PUSH1 0x20 ADD KECCAK256 SWAP1 POP PUSH0 PUSH2 0xAD5 DUP3 DUP6 DUP6 DUP10 DUP10 PUSH2 0xFF8 JUMP JUMPDEST SWAP1 POP PUSH0 JUMPDEST DUP10 DUP2 LT ISZERO PUSH2 0xC3B JUMPI PUSH0 DUP12 DUP12 DUP4 DUP2 DUP2 LT PUSH2 0xAF4 JUMPI PUSH2 0xAF4 PUSH2 0x1EE6 JUMP JUMPDEST SWAP1 POP PUSH1 0x20 MUL ADD PUSH1 0x20 DUP2 ADD SWAP1 PUSH2 0xB09 SWAP2 SWAP1 PUSH2 0x1A03 JUMP JUMPDEST PUSH1 0x1 PUSH1 0x1 PUSH1 0xA0 SHL SUB AND DUP11 DUP11 DUP5 DUP2 DUP2 LT PUSH2 0xB24 JUMPI PUSH2 0xB24 PUSH2 0x1EE6 JUMP JUMPDEST SWAP1 POP PUSH1 0x20 MUL ADD CALLDATALOAD PUSH3 0x186A0 SWAP1 PUSH1 0x40 MLOAD PUSH0 PUSH1 0x40 MLOAD DUP1 DUP4 SUB DUP2 DUP6 DUP9 DUP9 CALL SWAP4 POP POP POP POP RETURNDATASIZE DUP1 PUSH0 DUP2 EQ PUSH2 0xB6E JUMPI PUSH1 0x40 MLOAD SWAP2 POP PUSH1 0x1F NOT PUSH1 0x3F RETURNDATASIZE ADD AND DUP3 ADD PUSH1 0x40 MSTORE RETURNDATASIZE DUP3 MSTORE RETURNDATASIZE PUSH0 PUSH1 0x20 DUP5 ADD RETURNDATACOPY PUSH2 0xB73 JUMP JUMPDEST PUSH1 0x60 SWAP2 POP JUMPDEST POP POP SWAP1 POP DUP1 PUSH2 0xBAE JUMPI PUSH1 0x40 MLOAD PUSH32 0xFE90560300000000000000000000000000000000000000000000000000000000 DUP2 MSTORE PUSH1 0x4 ADD PUSH1 0x40 MLOAD DUP1 SWAP2 SUB SWAP1 REVERT JUMPDEST CALLER PUSH32 0xC42FA155158786A1DD6CCC3A785F35845467353C3CC700E0E31A79F90E22227D DUP14 DUP14 DUP6 DUP2 DUP2 LT PUSH2 0xBE2 JUMPI PUSH2 0xBE2 PUSH2 0x1EE6 JUMP JUMPDEST SWAP1 POP PUSH1 0x20 MUL ADD PUSH1 0x20 DUP2 ADD SWAP1 PUSH2 0xBF7 SWAP2 SWAP1 PUSH2 0x1A03 JUMP JUMPDEST DUP13 DUP13 DUP7 DUP2 DUP2 LT PUSH2 0xC09 JUMPI PUSH2 0xC09 PUSH2 0x1EE6 JUMP JUMPDEST PUSH1 0x40 DUP1 MLOAD PUSH1 0x1 PUSH1 0x1 PUSH1 0xA0 SHL SUB SWAP1 SWAP6 AND DUP6 MSTORE PUSH1 0x20 SWAP2 DUP3 MUL SWAP4 SWAP1 SWAP4 ADD CALLDATALOAD SWAP1 DUP5 ADD MSTORE POP ADD PUSH1 0x40 MLOAD DUP1 SWAP2 SUB SWAP1 LOG2 POP PUSH1 0x1 ADD PUSH2 0xAD9 JUMP JUMPDEST POP PUSH1 0x40 DUP1 MLOAD CALLER DUP2 MSTORE PUSH1 0x1 PUSH1 0x1 PUSH1 0xA0 SHL SUB DUP4 AND PUSH1 0x20 DUP3 ADD MSTORE SWAP1 DUP2 ADD DUP4 SWAP1 MSTORE PUSH32 0xE4C9047A729726B729CF4FA62C95EF9A434BBAF206A7EA0C7C77515DB1584022 SWAP1 PUSH1 0x60 ADD PUSH1 0x40 MLOAD DUP1 SWAP2 SUB SWAP1 LOG1 POP POP PUSH2 0x8EF PUSH1 0x1 PUSH32 0x9B779B17422D0DF92223018B32B4D1FA46E071723D6817E2486D003BECC55F00 SSTORE JUMP JUMPDEST PUSH0 SLOAD PUSH1 0xFF AND ISZERO PUSH2 0xCEC JUMPI PUSH1 0x40 MLOAD PUSH32 0xDC149F000000000000000000000000000000000000000000000000000000000 DUP2 MSTORE PUSH1 0x4 ADD PUSH1 0x40 MLOAD DUP1 SWAP2 SUB SWAP1 REVERT JUMPDEST PUSH1 0x3 DUP2 EQ PUSH2 0xD26 JUMPI PUSH1 0x40 MLOAD PUSH32 0xC6A5F54C00000000000000000000000000000000000000000000000000000000 DUP2 MSTORE PUSH1 0x4 ADD PUSH1 0x40 MLOAD DUP1 SWAP2 SUB SWAP1 REVERT JUMPDEST PUSH0 JUMPDEST PUSH1 0x3 DUP2 LT ISZERO PUSH2 0xEE1 JUMPI PUSH0 DUP4 DUP4 DUP4 DUP2 DUP2 LT PUSH2 0xD44 JUMPI PUSH2 0xD44 PUSH2 0x1EE6 JUMP JUMPDEST SWAP1 POP PUSH1 0x20 MUL ADD PUSH1 0x20 DUP2 ADD SWAP1 PUSH2 0xD59 SWAP2 SWAP1 PUSH2 0x1A03 JUMP JUMPDEST PUSH1 0x1 PUSH1 0x1 PUSH1 0xA0 SHL SUB AND SUB PUSH2 0xD99 JUMPI PUSH1 0x40 MLOAD PUSH32 0xEC67B1B900000000000000000000000000000000000000000000000000000000 DUP2 MSTORE PUSH1 0x4 ADD PUSH1 0x40 MLOAD DUP1 SWAP2 SUB SWAP1 REVERT JUMPDEST PUSH1 0x2 PUSH0 DUP5 DUP5 DUP5 DUP2 DUP2 LT PUSH2 0xDAE JUMPI PUSH2 0xDAE PUSH2 0x1EE6 JUMP JUMPDEST SWAP1 POP PUSH1 0x20 MUL ADD PUSH1 0x20 DUP2 ADD SWAP1 PUSH2 0xDC3 SWAP2 SWAP1 PUSH2 0x1A03 JUMP JUMPDEST PUSH1 0x1 PUSH1 0x1 PUSH1 0xA0 SHL SUB AND DUP2 MSTORE PUSH1 0x20 DUP2 ADD SWAP2 SWAP1 SWAP2 MSTORE PUSH1 0x40 ADD PUSH0 KECCAK256 SLOAD PUSH1 0xFF AND ISZERO PUSH2 0xE16 JUMPI PUSH1 0x40 MLOAD PUSH32 0x8044BB3300000000000000000000000000000000000000000000000000000000 DUP2 MSTORE PUSH1 0x4 ADD PUSH1 0x40 MLOAD DUP1 SWAP2 SUB SWAP1 REVERT JUMPDEST PUSH1 0x1 PUSH1 0x2 PUSH0 DUP6 DUP6 DUP6 DUP2 DUP2 LT PUSH2 0xE2D JUMPI PUSH2 0xE2D PUSH2 0x1EE6 JUMP JUMPDEST SWAP1 POP PUSH1 0x20 MUL ADD PUSH1 0x20 DUP2 ADD SWAP1 PUSH2 0xE42 SWAP2 SWAP1 PUSH2 0x1A03 JUMP JUMPDEST PUSH1 0x1 PUSH1 0x1 PUSH1 0xA0 SHL SUB AND DUP2 MSTORE PUSH1 0x20 DUP2 ADD SWAP2 SWAP1 SWAP2 MSTORE PUSH1 0x40 ADD PUSH0 KECCAK256 DUP1 SLOAD PUSH1 0xFF NOT AND SWAP2 ISZERO ISZERO SWAP2 SWAP1 SWAP2 OR SWAP1 SSTORE PUSH1 0x1 DUP4 DUP4 DUP4 DUP2 DUP2 LT PUSH2 0xE7D JUMPI PUSH2 0xE7D PUSH2 0x1EE6 JUMP JUMPDEST SWAP1 POP PUSH1 0x20 MUL ADD PUSH1 0x20 DUP2 ADD SWAP1 PUSH2 0xE92 SWAP2 SWAP1 PUSH2 0x1A03 JUMP JUMPDEST DUP2 SLOAD PUSH1 0x1 DUP1 DUP3 ADD DUP5 SSTORE PUSH0 SWAP4 DUP5 MSTORE PUSH1 0x20 SWAP1 SWAP4 KECCAK256 ADD DUP1 SLOAD PUSH32 0xFFFFFFFFFFFFFFFFFFFFFFFF0000000000000000000000000000000000000000 AND PUSH1 0x1 PUSH1 0x1 PUSH1 0xA0 SHL SUB SWAP3 SWAP1 SWAP3 AND SWAP2 SWAP1 SWAP2 OR SWAP1 SSTORE ADD PUSH2 0xD28 JUMP JUMPDEST POP POP PUSH0 DUP1 SLOAD PUSH1 0xFF NOT AND PUSH1 0x1 OR SWAP1 SSTORE POP JUMP JUMPDEST CALLER PUSH0 SWAP1 DUP2 MSTORE PUSH1 0x2 PUSH1 0x20 MSTORE PUSH1 0x40 SWAP1 KECCAK256 SLOAD PUSH1 0xFF AND PUSH2 0xF21 JUMPI PUSH1 0x40 MLOAD PUSH4 0xDA0357F7 PUSH1 0xE0 SHL DUP2 MSTORE PUSH1 0x4 ADD PUSH1 0x40 MLOAD DUP1 SWAP2 SUB SWAP1 REVERT JUMPDEST PUSH0 DUP1 SLOAD PUSH2 0xFF00 NOT AND PUSH2 0x100 OR SWAP1 SSTORE PUSH1 0x40 MLOAD CALLER DUP2 MSTORE PUSH32 0x909E8F76A4FD3E970F2EAEF56C0EE6DFAF8B87C5B8D3F56FFCE78E825A91157 SWAP1 PUSH1 0x20 ADD PUSH1 0x40 MLOAD DUP1 SWAP2 SUB SWAP1 LOG1 JUMP JUMPDEST PUSH0 PUSH1 0x1 PUSH1 0x1 PUSH1 0xE0 SHL SUB NOT DUP3 AND PUSH32 0x4E2312E000000000000000000000000000000000000000000000000000000000 EQ DUP1 PUSH2 0x498 JUMPI POP PUSH32 0x1FFC9A700000000000000000000000000000000000000000000000000000000 PUSH1 0x1 PUSH1 0x1 PUSH1 0xE0 SHL SUB NOT DUP4 AND EQ PUSH2 0x498 JUMP JUMPDEST PUSH2 0xFD2 PUSH2 0x129F JUMP JUMPDEST PUSH1 0x2 PUSH32 0x9B779B17422D0DF92223018B32B4D1FA46E071723D6817E2486D003BECC55F00 SSTORE JUMP JUMPDEST PUSH0 TIMESTAMP DUP4 LT ISZERO PUSH2 0x1033 JUMPI PUSH1 0x40 MLOAD PUSH32 0x203D82D800000000000000000000000000000000000000000000000000000000 DUP2 MSTORE PUSH1 0x4 ADD PUSH1 0x40 MLOAD DUP1 SWAP2 SUB SWAP1 REVERT JUMPDEST PUSH2 0x103C DUP3 PUSH2 0x12FC JUMP JUMPDEST PUSH0 PUSH2 0x1048 DUP8 DUP8 DUP8 PUSH2 0x1430 JUMP JUMPDEST PUSH1 0x1 PUSH1 0x1 PUSH1 0xA0 SHL SUB DUP2 AND PUSH0 SWAP1 DUP2 MSTORE PUSH1 0x2 PUSH1 0x20 MSTORE PUSH1 0x40 SWAP1 KECCAK256 SLOAD SWAP1 SWAP2 POP PUSH1 0xFF AND PUSH2 0x1083 JUMPI PUSH1 0x40 MLOAD PUSH4 0xDA0357F7 PUSH1 0xE0 SHL DUP2 MSTORE PUSH1 0x4 ADD PUSH1 0x40 MLOAD DUP1 SWAP2 SUB SWAP1 REVERT JUMPDEST CALLER PUSH1 0x1 PUSH1 0x1 PUSH1 0xA0 SHL SUB DUP3 AND SUB PUSH2 0x10C5 JUMPI PUSH1 0x40 MLOAD PUSH32 0x29E4FB0700000000000000000000000000000000000000000000000000000000 DUP2 MSTORE PUSH1 0x4 ADD PUSH1 0x40 MLOAD DUP1 SWAP2 SUB SWAP1 REVERT JUMPDEST SWAP7 SWAP6 POP POP POP POP POP POP JUMP JUMPDEST PUSH1 0x40 DUP1 MLOAD PUSH1 0x1 PUSH1 0x1 PUSH1 0xA0 SHL SUB DUP5 DUP2 AND PUSH1 0x24 DUP4 ADD MSTORE PUSH1 0x44 DUP1 DUP4 ADD DUP6 SWAP1 MSTORE DUP4 MLOAD DUP1 DUP5 SUB SWAP1 SWAP2 ADD DUP2 MSTORE PUSH1 0x64 SWAP1 SWAP3 ADD DUP4 MSTORE PUSH1 0x20 DUP3 ADD DUP1 MLOAD PUSH28 0xFFFFFFFFFFFFFFFFFFFFFFFFFFFFFFFFFFFFFFFFFFFFFFFFFFFFFFFF AND PUSH32 0xA9059CBB00000000000000000000000000000000000000000000000000000000 OR SWAP1 MSTORE SWAP2 MLOAD PUSH0 SWAP3 DUP4 SWAP3 SWAP1 DUP8 AND SWAP2 PUSH2 0x1158 SWAP2 SWAP1 PUSH2 0x1FDF JUMP JUMPDEST PUSH0 PUSH1 0x40 MLOAD DUP1 DUP4 SUB DUP2 PUSH0 DUP7 GAS CALL SWAP2 POP POP RETURNDATASIZE DUP1 PUSH0 DUP2 EQ PUSH2 0x1191 JUMPI PUSH1 0x40 MLOAD SWAP2 POP PUSH1 0x1F NOT PUSH1 0x3F RETURNDATASIZE ADD AND DUP3 ADD PUSH1 0x40 MSTORE RETURNDATASIZE DUP3 MSTORE RETURNDATASIZE PUSH0 PUSH1 0x20 DUP5 ADD RETURNDATACOPY PUSH2 0x1196 JUMP JUMPDEST PUSH1 0x60 SWAP2 POP JUMPDEST POP SWAP2 POP SWAP2 POP DUP2 ISZERO DUP1 PUSH2 0x11C4 JUMPI POP PUSH0 DUP2 MLOAD GT DUP1 ISZERO PUSH2 0x11C4 JUMPI POP DUP1 DUP1 PUSH1 0x20 ADD SWAP1 MLOAD DUP2 ADD SWAP1 PUSH2 0x11C2 SWAP2 SWAP1 PUSH2 0x1FEA JUMP JUMPDEST ISZERO JUMPDEST ISZERO PUSH2 0x11FB JUMPI PUSH1 0x40 MLOAD PUSH32 0x90B8EC1800000000000000000000000000000000000000000000000000000000 DUP2 MSTORE PUSH1 0x4 ADD PUSH1 0x40 MLOAD DUP1 SWAP2 SUB SWAP1 REVERT JUMPDEST POP POP POP POP POP JUMP JUMPDEST PUSH1 0x60 PUSH0 PUSH2 0x120E DUP4 PUSH2 0x162F JUMP JUMPDEST PUSH1 0x1 ADD SWAP1 POP PUSH0 DUP2 PUSH8 0xFFFFFFFFFFFFFFFF DUP2 GT ISZERO PUSH2 0x122D JUMPI PUSH2 0x122D PUSH2 0x1AF0 JUMP JUMPDEST PUSH1 0x40 MLOAD SWAP1 DUP1 DUP3 MSTORE DUP1 PUSH1 0x1F ADD PUSH1 0x1F NOT AND PUSH1 0x20 ADD DUP3 ADD PUSH1 0x40 MSTORE DUP1 ISZERO PUSH2 0x1257 JUMPI PUSH1 0x20 DUP3 ADD DUP2 DUP1 CALLDATASIZE DUP4 CALLDATACOPY ADD SWAP1 POP JUMPDEST POP SWAP1 POP DUP2 DUP2 ADD PUSH1 0x20 ADD JUMPDEST PUSH0 NOT ADD PUSH32 0x3031323334353637383961626364656600000000000000000000000000000000 PUSH1 0xA DUP7 MOD BYTE DUP2 MSTORE8 PUSH1 0xA DUP6 DIV SWAP5 POP DUP5 PUSH2 0x1261 JUMPI POP SWAP4 SWAP3 POP POP POP JUMP JUMPDEST PUSH32 0x9B779B17422D0DF92223018B32B4D1FA46E071723D6817E2486D003BECC55F00 SLOAD PUSH1 0x2 SUB PUSH2 0x12FA JUMPI PUSH1 0x40 MLOAD PUSH32 0x3EE5AEB500000000000000000000000000000000000000000000000000000000 DUP2 MSTORE PUSH1 0x4 ADD PUSH1 0x40 MLOAD DUP1 SWAP2 SUB SWAP1 REVERT JUMPDEST JUMP JUMPDEST PUSH0 NOT PUSH0 DUP1 JUMPDEST PUSH1 0xA DUP2 LT ISZERO PUSH2 0x1396 JUMPI DUP4 PUSH1 0x3 DUP3 PUSH1 0xA DUP2 LT PUSH2 0x131E JUMPI PUSH2 0x131E PUSH2 0x1EE6 JUMP JUMPDEST ADD SLOAD SUB PUSH2 0x1357 JUMPI PUSH1 0x40 MLOAD PUSH32 0x44BB34E400000000000000000000000000000000000000000000000000000000 DUP2 MSTORE PUSH1 0x4 ADD PUSH1 0x40 MLOAD DUP1 SWAP2 SUB SWAP1 REVERT JUMPDEST DUP3 PUSH1 0x3 DUP3 PUSH1 0xA DUP2 LT PUSH2 0x136B JUMPI PUSH2 0x136B PUSH2 0x1EE6 JUMP JUMPDEST ADD SLOAD LT ISZERO PUSH2 0x138E JUMPI PUSH1 0x3 DUP2 PUSH1 0xA DUP2 LT PUSH2 0x1386 JUMPI PUSH2 0x1386 PUSH2 0x1EE6 JUMP JUMPDEST ADD SLOAD SWAP3 POP DUP1 SWAP2 POP JUMPDEST PUSH1 0x1 ADD PUSH2 0x1301 JUMP JUMPDEST POP DUP2 DUP4 GT PUSH2 0x13D0 JUMPI PUSH1 0x40 MLOAD PUSH32 0x174A46D400000000000000000000000000000000000000000000000000000000 DUP2 MSTORE PUSH1 0x4 ADD PUSH1 0x40 MLOAD DUP1 SWAP2 SUB SWAP1 REVERT JUMPDEST PUSH2 0x13DC PUSH2 0x2710 DUP4 PUSH2 0x1F0E JUMP JUMPDEST DUP4 GT ISZERO PUSH2 0x1415 JUMPI PUSH1 0x40 MLOAD PUSH32 0xC64203AF00000000000000000000000000000000000000000000000000000000 DUP2 MSTORE PUSH1 0x4 ADD PUSH1 0x40 MLOAD DUP1 SWAP2 SUB SWAP1 REVERT JUMPDEST DUP3 PUSH1 0x3 DUP3 PUSH1 0xA DUP2 LT PUSH2 0x1429 JUMPI PUSH2 0x1429 PUSH2 0x1EE6 JUMP JUMPDEST ADD SSTORE POP POP POP JUMP JUMPDEST PUSH0 PUSH1 0x41 DUP3 EQ PUSH2 0x146B JUMPI PUSH1 0x40 MLOAD PUSH32 0x4BE6321B00000000000000000000000000000000000000000000000000000000 DUP2 MSTORE PUSH1 0x4 ADD PUSH1 0x40 MLOAD DUP1 SWAP2 SUB SWAP1 REVERT JUMPDEST DUP3 CALLDATALOAD PUSH1 0x20 DUP5 ADD CALLDATALOAD PUSH1 0x40 DUP6 ADD CALLDATALOAD PUSH0 BYTE PUSH1 0x1B DUP2 LT ISZERO PUSH2 0x1490 JUMPI PUSH2 0x148D PUSH1 0x1B DUP3 PUSH2 0x2009 JUMP JUMPDEST SWAP1 POP JUMPDEST DUP1 PUSH1 0xFF AND PUSH1 0x1B EQ ISZERO DUP1 ISZERO PUSH2 0x14A8 JUMPI POP DUP1 PUSH1 0xFF AND PUSH1 0x1C EQ ISZERO JUMPDEST ISZERO PUSH2 0x14DF JUMPI PUSH1 0x40 MLOAD PUSH32 0xA5F5A60C00000000000000000000000000000000000000000000000000000000 DUP2 MSTORE PUSH1 0x4 ADD PUSH1 0x40 MLOAD DUP1 SWAP2 SUB SWAP1 REVERT JUMPDEST PUSH32 0x7FFFFFFFFFFFFFFFFFFFFFFFFFFFFFFF5D576E7357A4501DDFE92F46681B20A0 DUP3 GT ISZERO PUSH2 0x1539 JUMPI PUSH1 0x40 MLOAD PUSH32 0xDDBF804200000000000000000000000000000000000000000000000000000000 DUP2 MSTORE PUSH1 0x4 ADD PUSH1 0x40 MLOAD DUP1 SWAP2 SUB SWAP1 REVERT JUMPDEST PUSH1 0x40 MLOAD PUSH32 0x19457468657265756D205369676E6564204D6573736167653A0A333200000000 PUSH1 0x20 DUP3 ADD MSTORE PUSH1 0x3C DUP2 ADD DUP9 SWAP1 MSTORE PUSH0 SWAP1 PUSH1 0x5C ADD PUSH1 0x40 DUP1 MLOAD PUSH1 0x1F NOT DUP2 DUP5 SUB ADD DUP2 MSTORE DUP3 DUP3 MSTORE DUP1 MLOAD PUSH1 0x20 SWAP2 DUP3 ADD KECCAK256 PUSH0 DUP1 DUP6 MSTORE SWAP2 DUP5 ADD DUP1 DUP5 MSTORE DUP2 SWAP1 MSTORE PUSH1 0xFF DUP7 AND SWAP3 DUP5 ADD SWAP3 SWAP1 SWAP3 MSTORE PUSH1 0x60 DUP4 ADD DUP8 SWAP1 MSTORE PUSH1 0x80 DUP4 ADD DUP7 SWAP1 MSTORE SWAP1 SWAP3 POP SWAP1 PUSH1 0x1 SWAP1 PUSH1 0xA0 ADD PUSH1 0x20 PUSH1 0x40 MLOAD PUSH1 0x20 DUP2 SUB SWAP1 DUP1 DUP5 SUB SWAP1 DUP6 GAS STATICCALL ISZERO DUP1 ISZERO PUSH2 0x15D6 JUMPI RETURNDATASIZE PUSH0 PUSH0 RETURNDATACOPY RETURNDATASIZE PUSH0 REVERT JUMPDEST POP POP PUSH1 0x40 MLOAD PUSH1 0x1F NOT ADD MLOAD SWAP2 POP POP PUSH1 0x1 PUSH1 0x1 PUSH1 0xA0 SHL SUB DUP2 AND PUSH2 0x1623 JUMPI PUSH1 0x40 MLOAD PUSH32 0x8BAA579F00000000000000000000000000000000000000000000000000000000 DUP2 MSTORE PUSH1 0x4 ADD PUSH1 0x40 MLOAD DUP1 SWAP2 SUB SWAP1 REVERT JUMPDEST SWAP9 SWAP8 POP POP POP POP POP POP POP POP JUMP JUMPDEST PUSH0 DUP1 PUSH27 0x184F03E93FF9F4DAA797ED6E38ED64BF6A1F010000000000000000 DUP4 LT PUSH2 0x1677 JUMPI PUSH27 0x184F03E93FF9F4DAA797ED6E38ED64BF6A1F010000000000000000 DUP4 DIV SWAP3 POP PUSH1 0x40 ADD JUMPDEST PUSH14 0x4EE2D6D415B85ACEF8100000000 DUP4 LT PUSH2 0x16A3 JUMPI PUSH14 0x4EE2D6D415B85ACEF8100000000 DUP4 DIV SWAP3 POP PUSH1 0x20 ADD JUMPDEST PUSH7 0x2386F26FC10000 DUP4 LT PUSH2 0x16C1 JUMPI PUSH7 0x2386F26FC10000 DUP4 DIV SWAP3 POP PUSH1 0x10 ADD JUMPDEST PUSH4 0x5F5E100 DUP4 LT PUSH2 0x16D9 JUMPI PUSH4 0x5F5E100 DUP4 DIV SWAP3 POP PUSH1 0x8 ADD JUMPDEST PUSH2 0x2710 DUP4 LT PUSH2 0x16ED JUMPI PUSH2 0x2710 DUP4 DIV SWAP3 POP PUSH1 0x4 ADD JUMPDEST PUSH1 0x64 DUP4 LT PUSH2 0x16FF JUMPI PUSH1 0x64 DUP4 DIV SWAP3 POP PUSH1 0x2 ADD JUMPDEST PUSH1 0xA DUP4 LT PUSH2 0x498 JUMPI PUSH1 0x1 ADD SWAP3 SWAP2 POP POP JUMP JUMPDEST DUP2 DUP4 MSTORE DUP2 DUP2 PUSH1 0x20 DUP6 ADD CALLDATACOPY POP PUSH0 DUP3 DUP3 ADD PUSH1 0x20 SWAP1 DUP2 ADD SWAP2 SWAP1 SWAP2 MSTORE PUSH1 0x1F SWAP1 SWAP2 ADD PUSH1 0x1F NOT AND SWAP1 SWAP2 ADD ADD SWAP1 JUMP JUMPDEST PUSH1 0x1 PUSH1 0x1 PUSH1 0xA0 SHL SUB DUP6 AND DUP2 MSTORE DUP4 PUSH1 0x20 DUP3 ADD MSTORE PUSH1 0x60 PUSH1 0x40 DUP3 ADD MSTORE PUSH0 PUSH2 0x10C5 PUSH1 0x60 DUP4 ADD DUP5 DUP7 PUSH2 0x1710 JUMP JUMPDEST PUSH0 PUSH1 0x20 DUP3 DUP5 SUB SLT ISZERO PUSH2 0x1770 JUMPI PUSH0 PUSH0 REVERT JUMPDEST DUP2 CALLDATALOAD PUSH1 0x1 PUSH1 0x1 PUSH1 0xE0 SHL SUB NOT DUP2 AND DUP2 EQ PUSH2 0x1787 JUMPI PUSH0 PUSH0 REVERT JUMPDEST SWAP4 SWAP3 POP POP POP JUMP JUMPDEST PUSH1 0x1 PUSH1 0x1 PUSH1 0xA0 SHL SUB DUP2 AND DUP2 EQ PUSH2 0x17A2 JUMPI PUSH0 PUSH0 REVERT JUMPDEST POP JUMP JUMPDEST PUSH0 PUSH0 DUP4 PUSH1 0x1F DUP5 ADD SLT PUSH2 0x17B5 JUMPI PUSH0 PUSH0 REVERT JUMPDEST POP DUP2 CALLDATALOAD PUSH8 0xFFFFFFFFFFFFFFFF DUP2 GT ISZERO PUSH2 0x17CC JUMPI PUSH0 PUSH0 REVERT JUMPDEST PUSH1 0x20 DUP4 ADD SWAP2 POP DUP4 PUSH1 0x20 DUP3 DUP6 ADD ADD GT ISZERO PUSH2 0x17E3 JUMPI PUSH0 PUSH0 REVERT JUMPDEST SWAP3 POP SWAP3 SWAP1 POP JUMP JUMPDEST PUSH0 PUSH0 PUSH0 PUSH0 PUSH0 PUSH0 PUSH0 PUSH1 0xC0 DUP9 DUP11 SUB SLT ISZERO PUSH2 0x1800 JUMPI PUSH0 PUSH0 REVERT JUMPDEST DUP8 CALLDATALOAD PUSH2 0x180B DUP2 PUSH2 0x178E JUMP JUMPDEST SWAP7 POP PUSH1 0x20 DUP9 ADD CALLDATALOAD SWAP6 POP PUSH1 0x40 DUP9 ADD CALLDATALOAD PUSH2 0x1822 DUP2 PUSH2 0x178E JUMP JUMPDEST SWAP5 POP PUSH1 0x60 DUP9 ADD CALLDATALOAD SWAP4 POP PUSH1 0x80 DUP9 ADD CALLDATALOAD SWAP3 POP PUSH1 0xA0 DUP9 ADD CALLDATALOAD PUSH8 0xFFFFFFFFFFFFFFFF DUP2 GT ISZERO PUSH2 0x184B JUMPI PUSH0 PUSH0 REVERT JUMPDEST PUSH2 0x1857 DUP11 DUP3 DUP12 ADD PUSH2 0x17A5 JUMP JUMPDEST SWAP9 SWAP12 SWAP8 SWAP11 POP SWAP6 SWAP9 POP SWAP4 SWAP7 SWAP3 SWAP6 SWAP3 SWAP4 POP POP POP JUMP JUMPDEST PUSH0 PUSH0 PUSH0 PUSH0 PUSH0 PUSH1 0x80 DUP7 DUP9 SUB SLT ISZERO PUSH2 0x187E JUMPI PUSH0 PUSH0 REVERT JUMPDEST DUP6 CALLDATALOAD PUSH2 0x1889 DUP2 PUSH2 0x178E JUMP JUMPDEST SWAP5 POP PUSH1 0x20 DUP7 ADD CALLDATALOAD PUSH2 0x1899 DUP2 PUSH2 0x178E JUMP JUMPDEST SWAP4 POP PUSH1 0x40 DUP7 ADD CALLDATALOAD SWAP3 POP PUSH1 0x60 DUP7 ADD CALLDATALOAD PUSH8 0xFFFFFFFFFFFFFFFF DUP2 GT ISZERO PUSH2 0x18BB JUMPI PUSH0 PUSH0 REVERT JUMPDEST PUSH2 0x18C7 DUP9 DUP3 DUP10 ADD PUSH2 0x17A5 JUMP JUMPDEST SWAP7 SWAP10 SWAP6 SWAP9 POP SWAP4 SWAP7 POP SWAP3 SWAP5 SWAP4 SWAP3 POP POP POP JUMP JUMPDEST PUSH0 PUSH1 0x20 DUP3 DUP5 SUB SLT ISZERO PUSH2 0x18E8 JUMPI PUSH0 PUSH0 REVERT JUMPDEST POP CALLDATALOAD SWAP2 SWAP1 POP JUMP JUMPDEST PUSH0 DUP2 MLOAD DUP1 DUP5 MSTORE DUP1 PUSH1 0x20 DUP5 ADD PUSH1 0x20 DUP7 ADD MCOPY PUSH0 PUSH1 0x20 DUP3 DUP7 ADD ADD MSTORE PUSH1 0x20 PUSH1 0x1F NOT PUSH1 0x1F DUP4 ADD AND DUP6 ADD ADD SWAP2 POP POP SWAP3 SWAP2 POP POP JUMP JUMPDEST PUSH1 0x20 DUP2 MSTORE PUSH0 PUSH2 0x1787 PUSH1 0x20 DUP4 ADD DUP5 PUSH2 0x18EF JUMP JUMPDEST PUSH0 PUSH0 PUSH1 0x40 DUP4 DUP6 SUB SLT ISZERO PUSH2 0x1940 JUMPI PUSH0 PUSH0 REVERT JUMPDEST DUP3 CALLDATALOAD PUSH2 0x194B DUP2 PUSH2 0x178E JUMP JUMPDEST SWAP2 POP PUSH1 0x20 DUP4 ADD CALLDATALOAD PUSH2 0x195B DUP2 PUSH2 0x178E JUMP JUMPDEST DUP1 SWAP2 POP POP SWAP3 POP SWAP3 SWAP1 POP JUMP JUMPDEST PUSH0 PUSH0 PUSH0 PUSH0 PUSH0 PUSH0 PUSH0 PUSH0 PUSH1 0xC0 DUP10 DUP12 SUB SLT ISZERO PUSH2 0x197D JUMPI PUSH0 PUSH0 REVERT JUMPDEST DUP9 CALLDATALOAD PUSH2 0x1988 DUP2 PUSH2 0x178E JUMP JUMPDEST SWAP8 POP PUSH1 0x20 DUP10 ADD CALLDATALOAD SWAP7 POP PUSH1 0x40 DUP10 ADD CALLDATALOAD PUSH8 0xFFFFFFFFFFFFFFFF DUP2 GT ISZERO PUSH2 0x19AA JUMPI PUSH0 PUSH0 REVERT JUMPDEST PUSH2 0x19B6 DUP12 DUP3 DUP13 ADD PUSH2 0x17A5 JUMP JUMPDEST SWAP1 SWAP8 POP SWAP6 POP POP PUSH1 0x60 DUP10 ADD CALLDATALOAD SWAP4 POP PUSH1 0x80 DUP10 ADD CALLDATALOAD SWAP3 POP PUSH1 0xA0 DUP10 ADD CALLDATALOAD PUSH8 0xFFFFFFFFFFFFFFFF DUP2 GT ISZERO PUSH2 0x19E3 JUMPI PUSH0 PUSH0 REVERT JUMPDEST PUSH2 0x19EF DUP12 DUP3 DUP13 ADD PUSH2 0x17A5 JUMP JUMPDEST SWAP10 SWAP13 SWAP9 SWAP12 POP SWAP7 SWAP10 POP SWAP5 SWAP8 SWAP4 SWAP7 SWAP3 SWAP6 SWAP5 POP POP POP JUMP JUMPDEST PUSH0 PUSH1 0x20 DUP3 DUP5 SUB SLT ISZERO PUSH2 0x1A13 JUMPI PUSH0 PUSH0 REVERT JUMPDEST DUP2 CALLDATALOAD PUSH2 0x1787 DUP2 PUSH2 0x178E JUMP JUMPDEST PUSH0 PUSH0 DUP4 PUSH1 0x1F DUP5 ADD SLT PUSH2 0x1A2E JUMPI PUSH0 PUSH0 REVERT JUMPDEST POP DUP2 CALLDATALOAD PUSH8 0xFFFFFFFFFFFFFFFF DUP2 GT ISZERO PUSH2 0x1A45 JUMPI PUSH0 PUSH0 REVERT JUMPDEST PUSH1 0x20 DUP4 ADD SWAP2 POP DUP4 PUSH1 0x20 DUP3 PUSH1 0x5 SHL DUP6 ADD ADD GT ISZERO PUSH2 0x17E3 JUMPI PUSH0 PUSH0 REVERT JUMPDEST PUSH0 PUSH0 PUSH0 PUSH0 PUSH0 PUSH0 PUSH0 PUSH0 PUSH1 0xA0 DUP10 DUP12 SUB SLT ISZERO PUSH2 0x1A76 JUMPI PUSH0 PUSH0 REVERT JUMPDEST DUP9 CALLDATALOAD PUSH8 0xFFFFFFFFFFFFFFFF DUP2 GT ISZERO PUSH2 0x1A8C JUMPI PUSH0 PUSH0 REVERT JUMPDEST PUSH2 0x1A98 DUP12 DUP3 DUP13 ADD PUSH2 0x1A1E JUMP JUMPDEST SWAP1 SWAP10 POP SWAP8 POP POP PUSH1 0x20 DUP10 ADD CALLDATALOAD PUSH8 0xFFFFFFFFFFFFFFFF DUP2 GT ISZERO PUSH2 0x1AB7 JUMPI PUSH0 PUSH0 REVERT JUMPDEST PUSH2 0x1AC3 DUP12 DUP3 DUP13 ADD PUSH2 0x1A1E JUMP JUMPDEST SWAP1 SWAP8 POP SWAP6 POP POP PUSH1 0x40 DUP10 ADD CALLDATALOAD SWAP4 POP PUSH1 0x60 DUP10 ADD CALLDATALOAD SWAP3 POP PUSH1 0x80 DUP10 ADD CALLDATALOAD PUSH8 0xFFFFFFFFFFFFFFFF DUP2 GT ISZERO PUSH2 0x19E3 JUMPI PUSH0 PUSH0 REVERT JUMPDEST PUSH4 0x4E487B71 PUSH1 0xE0 SHL PUSH0 MSTORE PUSH1 0x41 PUSH1 0x4 MSTORE PUSH1 0x24 PUSH0 REVERT JUMPDEST PUSH1 0x40 MLOAD PUSH1 0x1F DUP3 ADD PUSH1 0x1F NOT AND DUP2 ADD PUSH8 0xFFFFFFFFFFFFFFFF DUP2 GT DUP3 DUP3 LT OR ISZERO PUSH2 0x1B2D JUMPI PUSH2 0x1B2D PUSH2 0x1AF0 JUMP JUMPDEST PUSH1 0x40 MSTORE SWAP2 SWAP1 POP JUMP JUMPDEST PUSH0 DUP3 PUSH1 0x1F DUP4 ADD SLT PUSH2 0x1B44 JUMPI PUSH0 PUSH0 REVERT JUMPDEST DUP2 CALLDATALOAD PUSH8 0xFFFFFFFFFFFFFFFF DUP2 GT ISZERO PUSH2 0x1B5E JUMPI PUSH2 0x1B5E PUSH2 0x1AF0 JUMP JUMPDEST DUP1 PUSH1 0x5 SHL PUSH2 0x1B6E PUSH1 0x20 DUP3 ADD PUSH2 0x1B04 JUMP JUMPDEST SWAP2 DUP3 MSTORE PUSH1 0x20 DUP2 DUP6 ADD DUP2 ADD SWAP3 SWAP1 DUP2 ADD SWAP1 DUP7 DUP5 GT ISZERO PUSH2 0x1B89 JUMPI PUSH0 PUSH0 REVERT JUMPDEST PUSH1 0x20 DUP7 ADD SWAP3 POP JUMPDEST DUP4 DUP4 LT ISZERO PUSH2 0x10C5 JUMPI DUP3 CALLDATALOAD DUP3 MSTORE PUSH1 0x20 SWAP3 DUP4 ADD SWAP3 SWAP1 SWAP2 ADD SWAP1 PUSH2 0x1B90 JUMP JUMPDEST PUSH0 DUP3 PUSH1 0x1F DUP4 ADD SLT PUSH2 0x1BBA JUMPI PUSH0 PUSH0 REVERT JUMPDEST DUP2 CALLDATALOAD PUSH8 0xFFFFFFFFFFFFFFFF DUP2 GT ISZERO PUSH2 0x1BD4 JUMPI PUSH2 0x1BD4 PUSH2 0x1AF0 JUMP JUMPDEST PUSH2 0x1BE7 PUSH1 0x1F DUP3 ADD PUSH1 0x1F NOT AND PUSH1 0x20 ADD PUSH2 0x1B04 JUMP JUMPDEST DUP2 DUP2 MSTORE DUP5 PUSH1 0x20 DUP4 DUP7 ADD ADD GT ISZERO PUSH2 0x1BFB JUMPI PUSH0 PUSH0 REVERT JUMPDEST DUP2 PUSH1 0x20 DUP6 ADD PUSH1 0x20 DUP4 ADD CALLDATACOPY PUSH0 SWAP2 DUP2 ADD PUSH1 0x20 ADD SWAP2 SWAP1 SWAP2 MSTORE SWAP4 SWAP3 POP POP POP JUMP JUMPDEST PUSH0 PUSH0 PUSH0 PUSH0 PUSH0 PUSH1 0xA0 DUP7 DUP9 SUB SLT ISZERO PUSH2 0x1C2B JUMPI PUSH0 PUSH0 REVERT JUMPDEST DUP6 CALLDATALOAD PUSH2 0x1C36 DUP2 PUSH2 0x178E JUMP JUMPDEST SWAP5 POP PUSH1 0x20 DUP7 ADD CALLDATALOAD PUSH2 0x1C46 DUP2 PUSH2 0x178E JUMP JUMPDEST SWAP4 POP PUSH1 0x40 DUP7 ADD CALLDATALOAD PUSH8 0xFFFFFFFFFFFFFFFF DUP2 GT ISZERO PUSH2 0x1C61 JUMPI PUSH0 PUSH0 REVERT JUMPDEST PUSH2 0x1C6D DUP9 DUP3 DUP10 ADD PUSH2 0x1B35 JUMP JUMPDEST SWAP4 POP POP PUSH1 0x60 DUP7 ADD CALLDATALOAD PUSH8 0xFFFFFFFFFFFFFFFF DUP2 GT ISZERO PUSH2 0x1C89 JUMPI PUSH0 PUSH0 REVERT JUMPDEST PUSH2 0x1C95 DUP9 DUP3 DUP10 ADD PUSH2 0x1B35 JUMP JUMPDEST SWAP3 POP POP PUSH1 0x80 DUP7 ADD CALLDATALOAD PUSH8 0xFFFFFFFFFFFFFFFF DUP2 GT ISZERO PUSH2 0x1CB1 JUMPI PUSH0 PUSH0 REVERT JUMPDEST PUSH2 0x1CBD DUP9 DUP3 DUP10 ADD PUSH2 0x1BAB JUMP JUMPDEST SWAP2 POP POP SWAP3 SWAP6 POP SWAP3 SWAP6 SWAP1 SWAP4 POP JUMP JUMPDEST PUSH0 PUSH0 PUSH1 0x20 DUP4 DUP6 SUB SLT ISZERO PUSH2 0x1CDB JUMPI PUSH0 PUSH0 REVERT JUMPDEST DUP3 CALLDATALOAD PUSH8 0xFFFFFFFFFFFFFFFF DUP2 GT ISZERO PUSH2 0x1CF1 JUMPI PUSH0 PUSH0 REVERT JUMPDEST PUSH2 0x1CFD DUP6 DUP3 DUP7 ADD PUSH2 0x1A1E JUMP JUMPDEST SWAP1 SWAP7 SWAP1 SWAP6 POP SWAP4 POP POP POP POP JUMP JUMPDEST PUSH0 PUSH0 PUSH0 PUSH0 PUSH0 PUSH1 0xA0 DUP7 DUP9 SUB SLT ISZERO PUSH2 0x1D1D JUMPI PUSH0 PUSH0 REVERT JUMPDEST DUP6 CALLDATALOAD PUSH2 0x1D28 DUP2 PUSH2 0x178E JUMP JUMPDEST SWAP5 POP PUSH1 0x20 DUP7 ADD CALLDATALOAD PUSH2 0x1D38 DUP2 PUSH2 0x178E JUMP JUMPDEST SWAP4 POP PUSH1 0x40 DUP7 ADD CALLDATALOAD SWAP3 POP PUSH1 0x60 DUP7 ADD CALLDATALOAD SWAP2 POP PUSH1 0x80 DUP7 ADD CALLDATALOAD PUSH8 0xFFFFFFFFFFFFFFFF DUP2 GT ISZERO PUSH2 0x1CB1 JUMPI PUSH0 PUSH0 REVERT JUMPDEST PUSH1 0xC0 DUP2 MSTORE PUSH0 PUSH2 0x1D73 PUSH1 0xC0 DUP4 ADD DUP10 PUSH2 0x18EF JUMP JUMPDEST PUSH1 0x1 PUSH1 0x1 PUSH1 0xA0 SHL SUB SWAP8 DUP9 AND PUSH1 0x20 DUP5 ADD MSTORE PUSH1 0x40 DUP4 ADD SWAP7 SWAP1 SWAP7 MSTORE POP SWAP3 SWAP1 SWAP5 AND PUSH1 0x60 DUP4 ADD MSTORE PUSH1 0x80 DUP3 ADD MSTORE PUSH1 0xA0 ADD SWAP2 SWAP1 SWAP2 MSTORE SWAP2 SWAP1 POP JUMP JUMPDEST PUSH0 DUP2 MLOAD DUP1 PUSH1 0x20 DUP5 ADD DUP6 MCOPY PUSH0 SWAP4 ADD SWAP3 DUP4 MSTORE POP SWAP1 SWAP2 SWAP1 POP JUMP JUMPDEST PUSH0 PUSH2 0x1DC8 DUP3 DUP5 PUSH2 0x1DA6 JUMP JUMPDEST PUSH32 0x2D45524332300000000000000000000000000000000000000000000000000000 DUP2 MSTORE PUSH1 0x6 ADD SWAP4 SWAP3 POP POP POP JUMP JUMPDEST PUSH0 PUSH2 0x1E00 DUP3 DUP5 PUSH2 0x1DA6 JUMP JUMPDEST PUSH32 0x2D42617463680000000000000000000000000000000000000000000000000000 DUP2 MSTORE PUSH1 0x6 ADD SWAP4 SWAP3 POP POP POP JUMP JUMPDEST PUSH1 0xC0 DUP2 MSTORE PUSH0 PUSH2 0x1E3F PUSH1 0xC0 DUP4 ADD DUP11 PUSH2 0x18EF JUMP JUMPDEST PUSH1 0x1 PUSH1 0x1 PUSH1 0xA0 SHL SUB DUP10 AND PUSH1 0x20 DUP5 ADD MSTORE DUP8 PUSH1 0x40 DUP5 ADD MSTORE DUP3 DUP2 SUB PUSH1 0x60 DUP5 ADD MSTORE PUSH2 0x1E67 DUP2 DUP8 DUP10 PUSH2 0x1710 JUMP JUMPDEST PUSH1 0x80 DUP5 ADD SWAP6 SWAP1 SWAP6 MSTORE POP POP PUSH1 0xA0 ADD MSTORE SWAP6 SWAP5 POP POP POP POP POP JUMP JUMPDEST DUP2 DUP4 DUP3 CALLDATACOPY PUSH0 SWAP2 ADD SWAP1 DUP2 MSTORE SWAP2 SWAP1 POP JUMP JUMPDEST PUSH1 0x1 PUSH1 0x1 PUSH1 0xA0 SHL SUB DUP9 AND DUP2 MSTORE PUSH1 0x1 PUSH1 0x1 PUSH1 0xA0 SHL SUB DUP8 AND PUSH1 0x20 DUP3 ADD MSTORE DUP6 PUSH1 0x40 DUP3 ADD MSTORE PUSH1 0x1 PUSH1 0x1 PUSH1 0xA0 SHL SUB DUP6 AND PUSH1 0x60 DUP3 ADD MSTORE DUP4 PUSH1 0x80 DUP3 ADD MSTORE PUSH1 0xC0 PUSH1 0xA0 DUP3 ADD MSTORE PUSH0 PUSH2 0x1ED9 PUSH1 0xC0 DUP4 ADD DUP5 DUP7 PUSH2 0x1710 JUMP JUMPDEST SWAP10 SWAP9 POP POP POP POP POP POP POP POP POP JUMP JUMPDEST PUSH4 0x4E487B71 PUSH1 0xE0 SHL PUSH0 MSTORE PUSH1 0x32 PUSH1 0x4 MSTORE PUSH1 0x24 PUSH0 REVERT JUMPDEST PUSH4 0x4E487B71 PUSH1 0xE0 SHL PUSH0 MSTORE PUSH1 0x11 PUSH1 0x4 MSTORE PUSH1 0x24 PUSH0 REVERT JUMPDEST DUP1 DUP3 ADD DUP1 DUP3 GT ISZERO PUSH2 0x498 JUMPI PUSH2 0x498 PUSH2 0x1EFA JUMP JUMPDEST PUSH1 0xA0 DUP2 MSTORE PUSH0 PUSH2 0x1F33 PUSH1 0xA0 DUP4 ADD DUP11 PUSH2 0x18EF JUMP JUMPDEST DUP3 DUP2 SUB PUSH1 0x20 DUP1 DUP6 ADD SWAP2 SWAP1 SWAP2 MSTORE DUP9 DUP3 MSTORE DUP10 SWAP2 ADD PUSH0 JUMPDEST DUP10 DUP2 LT ISZERO PUSH2 0x1F77 JUMPI DUP3 CALLDATALOAD PUSH2 0x1F5A DUP2 PUSH2 0x178E JUMP JUMPDEST PUSH1 0x1 PUSH1 0x1 PUSH1 0xA0 SHL SUB AND DUP3 MSTORE PUSH1 0x20 SWAP3 DUP4 ADD SWAP3 SWAP1 SWAP2 ADD SWAP1 PUSH1 0x1 ADD PUSH2 0x1F47 JUMP JUMPDEST POP DUP4 DUP2 SUB PUSH1 0x40 DUP6 ADD MSTORE PUSH0 SWAP2 POP DUP7 DUP2 MSTORE PUSH32 0x7FFFFFFFFFFFFFFFFFFFFFFFFFFFFFFFFFFFFFFFFFFFFFFFFFFFFFFFFFFFFFF DUP8 GT ISZERO PUSH2 0x1FB2 JUMPI PUSH0 PUSH0 REVERT JUMPDEST DUP7 PUSH1 0x5 SHL DUP1 DUP10 PUSH1 0x20 DUP5 ADD CALLDATACOPY PUSH1 0x60 DUP6 ADD SWAP7 SWAP1 SWAP7 MSTORE PUSH1 0x80 SWAP1 SWAP4 ADD SWAP4 SWAP1 SWAP4 MSTORE POP SWAP1 SWAP2 ADD PUSH1 0x20 ADD SWAP7 SWAP6 POP POP POP POP POP POP JUMP JUMPDEST PUSH0 PUSH2 0x1787 DUP3 DUP5 PUSH2 0x1DA6 JUMP JUMPDEST PUSH0 PUSH1 0x20 DUP3 DUP5 SUB SLT ISZERO PUSH2 0x1FFA JUMPI PUSH0 PUSH0 REVERT JUMPDEST DUP2 MLOAD DUP1 ISZERO ISZERO DUP2 EQ PUSH2 0x1787 JUMPI PUSH0 PUSH0 REVERT JUMPDEST PUSH1 0xFF DUP2 DUP2 AND DUP4 DUP3 AND ADD SWAP1 DUP2 GT ISZERO PUSH2 0x498 JUMPI PUSH2 0x498 PUSH2 0x1EFA JUMP INVALID LOG2 PUSH5 0x6970667358 0x22 SLT KECCAK256 MUL 0xF6 0xB9 0xD7 BLOCKHASH 0xEE 0xE9 PUSH30 0x13E85F820F5D38F57FB0059BB4D47AF9DEC09CA6280532D864736F6C6343 STOP ADDMOD SHL STOP CALLER "},"methodIdentifiers":{"activateSafeMode()":"fc0f392d","flushForwarderTokens(address,address)":"2da03409","getBatchNetworkId()":"2d2cae61","getNetworkId()":"39c5f3fc","getNextSequenceId()":"a0b7967b","getTokenNetworkId()":"260edcfd","init(address[])":"c6044c46","initialized()":"158ef93e","isSigner(address)":"7df73e27","onERC1155BatchReceived(address,address,uint256[],uint256[],bytes)":"bc197c81","onERC1155Received(address,address,uint256,uint256,bytes)":"f23a6e61","onERC721Received(address,address,uint256,bytes)":"150b7a02","safeMode()":"abe3219c","sendMultiSig(address,uint256,bytes,uint256,uint256,bytes)":"39125215","sendMultiSigBatch(address[],uint256[],uint256,uint256,bytes)":"ad3ad709","sendMultiSigToken(address,uint256,address,uint256,uint256,bytes)":"0dcd7a6c","signers(uint256)":"2079fb9a","supportsInterface(bytes4)":"01ffc9a7"}}}}}