{"contracts/CvhBatcher.sol":{"CvhBatcher":{"abi":[{"inputs":[],"stateMutability":"nonpayable","type":"constructor"},{"inputs":[],"name":"BatchLimitOutOfRange","type":"error"},{"inputs":[],"name":"EmptyBatch","type":"error"},{"inputs":[],"name":"ExceedsBatchLimit","type":"error"},{"inputs":[],"name":"GasLimitOutOfRange","type":"error"},{"inputs":[],"name":"InsufficientETH","type":"error"},{"inputs":[{"internalType":"address","name":"owner","type":"address"}],"name":"OwnableInvalidOwner","type":"error"},{"inputs":[{"internalType":"address","name":"account","type":"address"}],"name":"OwnableUnauthorizedAccount","type":"error"},{"inputs":[],"name":"RecoverFailed","type":"error"},{"inputs":[],"name":"RefundFailed","type":"error"},{"inputs":[],"name":"TransferFailed","type":"error"},{"inputs":[],"name":"TransferFailed","type":"error"},{"inputs":[],"name":"UnequalLengths","type":"error"},{"inputs":[],"name":"ZeroAddressRecipient","type":"error"},{"anonymous":false,"inputs":[{"indexed":true,"internalType":"address","name":"sender","type":"address"},{"indexed":false,"internalType":"address","name":"recipient","type":"address"},{"indexed":false,"internalType":"uint256","name":"value","type":"uint256"}],"name":"BatchTransfer","type":"event"},{"anonymous":false,"inputs":[{"indexed":false,"internalType":"uint256","name":"newLimit","type":"uint256"}],"name":"BatchTransferLimitChange","type":"event"},{"anonymous":false,"inputs":[{"indexed":true,"internalType":"address","name":"previousOwner","type":"address"},{"indexed":true,"internalType":"address","name":"newOwner","type":"address"}],"name":"OwnershipTransferStarted","type":"event"},{"anonymous":false,"inputs":[{"indexed":true,"internalType":"address","name":"previousOwner","type":"address"},{"indexed":true,"internalType":"address","name":"newOwner","type":"address"}],"name":"OwnershipTransferred","type":"event"},{"anonymous":false,"inputs":[{"indexed":false,"internalType":"uint256","name":"newGasLimit","type":"uint256"}],"name":"TransferGasLimitChange","type":"event"},{"inputs":[],"name":"acceptOwnership","outputs":[],"stateMutability":"nonpayable","type":"function"},{"inputs":[{"internalType":"address[]","name":"recipients","type":"address[]"},{"internalType":"uint256[]","name":"values","type":"uint256[]"}],"name":"batchTransfer","outputs":[],"stateMutability":"payable","type":"function"},{"inputs":[],"name":"batchTransferLimit","outputs":[{"internalType":"uint256","name":"","type":"uint256"}],"stateMutability":"view","type":"function"},{"inputs":[{"internalType":"address","name":"tokenAddress","type":"address"},{"internalType":"address[]","name":"recipients","type":"address[]"},{"internalType":"uint256[]","name":"values","type":"uint256[]"}],"name":"batchTransferToken","outputs":[],"stateMutability":"nonpayable","type":"function"},{"inputs":[],"name":"owner","outputs":[{"internalType":"address","name":"","type":"address"}],"stateMutability":"view","type":"function"},{"inputs":[],"name":"pendingOwner","outputs":[{"internalType":"address","name":"","type":"address"}],"stateMutability":"view","type":"function"},{"inputs":[{"internalType":"address payable","name":"to","type":"address"}],"name":"recover","outputs":[],"stateMutability":"nonpayable","type":"function"},{"inputs":[],"name":"renounceOwnership","outputs":[],"stateMutability":"nonpayable","type":"function"},{"inputs":[{"internalType":"uint256","name":"_batchTransferLimit","type":"uint256"}],"name":"setBatchTransferLimit","outputs":[],"stateMutability":"nonpayable","type":"function"},{"inputs":[{"internalType":"uint256","name":"_transferGasLimit","type":"uint256"}],"name":"setTransferGasLimit","outputs":[],"stateMutability":"nonpayable","type":"function"},{"inputs":[],"name":"transferGasLimit","outputs":[{"internalType":"uint256","name":"","type":"uint256"}],"stateMutability":"view","type":"function"},{"inputs":[{"internalType":"address","name":"newOwner","type":"address"}],"name":"transferOwnership","outputs":[],"stateMutability":"nonpayable","type":"function"}],"evm":{"bytecode":{"linkReferences":{},"object":"6080604052348015600e575f5ffd5b503380603357604051631e4fbdf760e01b81525f600482015260240160405180910390fd5b603a81604a565b5061753060025560ff60035560b3565b600180546001600160a01b03191690556061816064565b50565b5f80546001600160a01b038381166001600160a01b0319831681178455604051919092169283917f8be0079c531659141344cd1fd0a4f28419497f9722a3daafe3b4186f6b6457e09190a35050565b610d57806100c05f395ff3fe6080604052600436106100c3575f3560e01c80638da5cb5b11610071578063e30c39781161004c578063e30c3978146101d8578063e8f67c3b146101f5578063f2fde38b1461020a575f5ffd5b80638da5cb5b1461016157806396970b6814610196578063ba48e057146101b9575f5ffd5b806379ba5097116100a157806379ba50971461011b57806388d695b21461012f5780638c70830b14610142575f5ffd5b80630cd865ec146100c757806320651d5d146100e8578063715018a614610107575b5f5ffd5b3480156100d2575f5ffd5b506100e66100e1366004610b29565b610229565b005b3480156100f3575f5ffd5b506100e6610102366004610b93565b6102c7565b348015610112575f5ffd5b506100e6610469565b348015610126575f5ffd5b506100e661047c565b6100e661013d366004610c15565b6104c5565b34801561014d575f5ffd5b506100e661015c366004610c81565b6107c7565b34801561016c575f5ffd5b505f546001600160a01b03165b6040516001600160a01b0390911681526020015b60405180910390f35b3480156101a1575f5ffd5b506101ab60035481565b60405190815260200161018d565b3480156101c4575f5ffd5b506100e66101d3366004610c81565b610854565b3480156101e3575f5ffd5b506001546001600160a01b0316610179565b348015610200575f5ffd5b506101ab60025481565b348015610215575f5ffd5b506100e6610224366004610b29565b6108d5565b610231610952565b4780156102c3575f826001600160a01b0316826040515f6040518083038185875af1925050503d805f8114610281576040519150601f19603f3d011682016040523d82523d5f602084013e610286565b606091505b50509050806102c1576040517f74e6fd0800000000000000000000000000000000000000000000000000000000815260040160405180910390fd5b505b5050565b6102cf610952565b8281146102ef5760405163332ac86360e21b815260040160405180910390fd5b5f8390036103105760405163c2e5347d60e01b815260040160405180910390fd5b600354831115610333576040516368ebde9160e11b815260040160405180910390fd5b5f5b83811015610461575f85858381811061035057610350610c98565b90506020020160208101906103659190610b29565b6001600160a01b03160361038c576040516308c9926560e31b815260040160405180910390fd5b6103d5868686848181106103a2576103a2610c98565b90506020020160208101906103b79190610b29565b8585858181106103c9576103c9610c98565b9050602002013561097e565b337fc42fa155158786a1dd6ccc3a785f35845467353c3cc700e0e31a79f90e22227d86868481811061040957610409610c98565b905060200201602081019061041e9190610b29565b85858581811061043057610430610c98565b604080516001600160a01b0390951685526020918202939093013590840152500160405180910390a2600101610335565b505050505050565b610471610952565b61047a5f610a98565b565b60015433906001600160a01b031681146104b95760405163118cdaa760e01b81526001600160a01b03821660048201526024015b60405180910390fd5b6104c281610a98565b50565b6104cd610952565b8281146104ed5760405163332ac86360e21b815260040160405180910390fd5b5f83900361050e5760405163c2e5347d60e01b815260040160405180910390fd5b600354831115610531576040516368ebde9160e11b815260040160405180910390fd5b5f805b848110156106f1575f86868381811061054f5761054f610c98565b90506020020160208101906105649190610b29565b6001600160a01b03160361058b576040516308c9926560e31b815260040160405180910390fd5b5f86868381811061059e5761059e610c98565b90506020020160208101906105b39190610b29565b6001600160a01b03168585848181106105ce576105ce610c98565b90506020020135600254906040515f60405180830381858888f193505050503d805f8114610617576040519150601f19603f3d011682016040523d82523d5f602084013e61061c565b606091505b505090508061063e576040516312171d8360e31b815260040160405180910390fd5b84848381811061065057610650610c98565b90506020020135836106629190610cc0565b9250337fc42fa155158786a1dd6ccc3a785f35845467353c3cc700e0e31a79f90e22227d88888581811061069857610698610c98565b90506020020160208101906106ad9190610b29565b8787868181106106bf576106bf610c98565b604080516001600160a01b0390951685526020918202939093013590840152500160405180910390a250600101610534565b503481111561072c576040517f6a12f10400000000000000000000000000000000000000000000000000000000815260040160405180910390fd5b5f6107378234610cd9565b90508015610461576040515f90339083908381818185875af1925050503d805f811461077e576040519150601f19603f3d011682016040523d82523d5f602084013e610783565b606091505b50509050806107be576040517ff0c49d4400000000000000000000000000000000000000000000000000000000815260040160405180910390fd5b50505050505050565b6107cf610952565b6108fc8110806107e157506207a12081115b15610818576040517f799da9a200000000000000000000000000000000000000000000000000000000815260040160405180910390fd5b60028190556040518181527fa902b3d40d931007147e6eea086443eaf319ccea5a1e3c46bf1e484e9de23fef906020015b60405180910390a150565b61085c610952565b801580610869575060ff81115b156108a0576040517f1feac32400000000000000000000000000000000000000000000000000000000815260040160405180910390fd5b60038190556040518181527f648e250247c25235dbe130cd763668f3e5f482b617cb89afc7af363120f475d090602001610849565b6108dd610952565b600180546001600160a01b03831673ffffffffffffffffffffffffffffffffffffffff19909116811790915561091a5f546001600160a01b031690565b6001600160a01b03167f38d16b8cac22d99fc7c124b9cd0de2d3fa1faef420bfe791d8c362d765e2270060405160405180910390a350565b5f546001600160a01b0316331461047a5760405163118cdaa760e01b81523360048201526024016104b0565b604080516001600160a01b038481166024830152604480830185905283518084039091018152606490920183526020820180517bffffffffffffffffffffffffffffffffffffffffffffffffffffffff167fa9059cbb0000000000000000000000000000000000000000000000000000000017905291515f92839290871691610a079190610cec565b5f604051808303815f865af19150503d805f8114610a40576040519150601f19603f3d011682016040523d82523d5f602084013e610a45565b606091505b5091509150811580610a7357505f8151118015610a73575080806020019051810190610a719190610d02565b155b15610a91576040516312171d8360e31b815260040160405180910390fd5b5050505050565b6001805473ffffffffffffffffffffffffffffffffffffffff191690556104c2815f80546001600160a01b0383811673ffffffffffffffffffffffffffffffffffffffff19831681178455604051919092169283917f8be0079c531659141344cd1fd0a4f28419497f9722a3daafe3b4186f6b6457e09190a35050565b6001600160a01b03811681146104c2575f5ffd5b5f60208284031215610b39575f5ffd5b8135610b4481610b15565b9392505050565b5f5f83601f840112610b5b575f5ffd5b50813567ffffffffffffffff811115610b72575f5ffd5b6020830191508360208260051b8501011115610b8c575f5ffd5b9250929050565b5f5f5f5f5f60608688031215610ba7575f5ffd5b8535610bb281610b15565b9450602086013567ffffffffffffffff811115610bcd575f5ffd5b610bd988828901610b4b565b909550935050604086013567ffffffffffffffff811115610bf8575f5ffd5b610c0488828901610b4b565b969995985093965092949392505050565b5f5f5f5f60408587031215610c28575f5ffd5b843567ffffffffffffffff811115610c3e575f5ffd5b610c4a87828801610b4b565b909550935050602085013567ffffffffffffffff811115610c69575f5ffd5b610c7587828801610b4b565b95989497509550505050565b5f60208284031215610c91575f5ffd5b5035919050565b634e487b7160e01b5f52603260045260245ffd5b634e487b7160e01b5f52601160045260245ffd5b80820180821115610cd357610cd3610cac565b92915050565b81810381811115610cd357610cd3610cac565b5f82518060208501845e5f920191825250919050565b5f60208284031215610d12575f5ffd5b81518015158114610b44575f5ffdfea26469706673582212204b5ba232e489e53a9bf6201e39f415f0db9ee43efaaaeef78614289fdc6df11964736f6c634300081b0033","opcodes":"PUSH1 0x80 PUSH1 0x40 MSTORE CALLVALUE DUP1 ISZERO PUSH1 0xE JUMPI PUSH0 PUSH0 REVERT JUMPDEST POP CALLER DUP1 PUSH1 0x33 JUMPI PUSH1 0x40 MLOAD PUSH4 0x1E4FBDF7 PUSH1 0xE0 SHL DUP2 MSTORE PUSH0 PUSH1 0x4 DUP3 ADD MSTORE PUSH1 0x24 ADD PUSH1 0x40 MLOAD DUP1 SWAP2 SUB SWAP1 REVERT JUMPDEST PUSH1 0x3A DUP2 PUSH1 0x4A JUMP JUMPDEST POP PUSH2 0x7530 PUSH1 0x2 SSTORE PUSH1 0xFF PUSH1 0x3 SSTORE PUSH1 0xB3 JUMP JUMPDEST PUSH1 0x1 DUP1 SLOAD PUSH1 0x1 PUSH1 0x1 PUSH1 0xA0 SHL SUB NOT AND SWAP1 SSTORE PUSH1 0x61 DUP2 PUSH1 0x64 JUMP JUMPDEST POP JUMP JUMPDEST PUSH0 DUP1 SLOAD PUSH1 0x1 PUSH1 0x1 PUSH1 0xA0 SHL SUB DUP4 DUP2 AND PUSH1 0x1 PUSH1 0x1 PUSH1 0xA0 SHL SUB NOT DUP4 AND DUP2 OR DUP5 SSTORE PUSH1 0x40 MLOAD SWAP2 SWAP1 SWAP3 AND SWAP3 DUP4 SWAP2 PUSH32 0x8BE0079C531659141344CD1FD0A4F28419497F9722A3DAAFE3B4186F6B6457E0 SWAP2 SWAP1 LOG3 POP POP JUMP JUMPDEST PUSH2 0xD57 DUP1 PUSH2 0xC0 PUSH0 CODECOPY PUSH0 RETURN INVALID PUSH1 0x80 PUSH1 0x40 MSTORE PUSH1 0x4 CALLDATASIZE LT PUSH2 0xC3 JUMPI PUSH0 CALLDATALOAD PUSH1 0xE0 SHR DUP1 PUSH4 0x8DA5CB5B GT PUSH2 0x71 JUMPI DUP1 PUSH4 0xE30C3978 GT PUSH2 0x4C JUMPI DUP1 PUSH4 0xE30C3978 EQ PUSH2 0x1D8 JUMPI DUP1 PUSH4 0xE8F67C3B EQ PUSH2 0x1F5 JUMPI DUP1 PUSH4 0xF2FDE38B EQ PUSH2 0x20A JUMPI PUSH0 PUSH0 REVERT JUMPDEST DUP1 PUSH4 0x8DA5CB5B EQ PUSH2 0x161 JUMPI DUP1 PUSH4 0x96970B68 EQ PUSH2 0x196 JUMPI DUP1 PUSH4 0xBA48E057 EQ PUSH2 0x1B9 JUMPI PUSH0 PUSH0 REVERT JUMPDEST DUP1 PUSH4 0x79BA5097 GT PUSH2 0xA1 JUMPI DUP1 PUSH4 0x79BA5097 EQ PUSH2 0x11B JUMPI DUP1 PUSH4 0x88D695B2 EQ PUSH2 0x12F JUMPI DUP1 PUSH4 0x8C70830B EQ PUSH2 0x142 JUMPI PUSH0 PUSH0 REVERT JUMPDEST DUP1 PUSH4 0xCD865EC EQ PUSH2 0xC7 JUMPI DUP1 PUSH4 0x20651D5D EQ PUSH2 0xE8 JUMPI DUP1 PUSH4 0x715018A6 EQ PUSH2 0x107 JUMPI JUMPDEST PUSH0 PUSH0 REVERT JUMPDEST CALLVALUE DUP1 ISZERO PUSH2 0xD2 JUMPI PUSH0 PUSH0 REVERT JUMPDEST POP PUSH2 0xE6 PUSH2 0xE1 CALLDATASIZE PUSH1 0x4 PUSH2 0xB29 JUMP JUMPDEST PUSH2 0x229 JUMP JUMPDEST STOP JUMPDEST CALLVALUE DUP1 ISZERO PUSH2 0xF3 JUMPI PUSH0 PUSH0 REVERT JUMPDEST POP PUSH2 0xE6 PUSH2 0x102 CALLDATASIZE PUSH1 0x4 PUSH2 0xB93 JUMP JUMPDEST PUSH2 0x2C7 JUMP JUMPDEST CALLVALUE DUP1 ISZERO PUSH2 0x112 JUMPI PUSH0 PUSH0 REVERT JUMPDEST POP PUSH2 0xE6 PUSH2 0x469 JUMP JUMPDEST CALLVALUE DUP1 ISZERO PUSH2 0x126 JUMPI PUSH0 PUSH0 REVERT JUMPDEST POP PUSH2 0xE6 PUSH2 0x47C JUMP JUMPDEST PUSH2 0xE6 PUSH2 0x13D CALLDATASIZE PUSH1 0x4 PUSH2 0xC15 JUMP JUMPDEST PUSH2 0x4C5 JUMP JUMPDEST CALLVALUE DUP1 ISZERO PUSH2 0x14D JUMPI PUSH0 PUSH0 REVERT JUMPDEST POP PUSH2 0xE6 PUSH2 0x15C CALLDATASIZE PUSH1 0x4 PUSH2 0xC81 JUMP JUMPDEST PUSH2 0x7C7 JUMP JUMPDEST CALLVALUE DUP1 ISZERO PUSH2 0x16C JUMPI PUSH0 PUSH0 REVERT JUMPDEST POP PUSH0 SLOAD PUSH1 0x1 PUSH1 0x1 PUSH1 0xA0 SHL SUB AND JUMPDEST PUSH1 0x40 MLOAD PUSH1 0x1 PUSH1 0x1 PUSH1 0xA0 SHL SUB SWAP1 SWAP2 AND DUP2 MSTORE PUSH1 0x20 ADD JUMPDEST PUSH1 0x40 MLOAD DUP1 SWAP2 SUB SWAP1 RETURN JUMPDEST CALLVALUE DUP1 ISZERO PUSH2 0x1A1 JUMPI PUSH0 PUSH0 REVERT JUMPDEST POP PUSH2 0x1AB PUSH1 0x3 SLOAD DUP2 JUMP JUMPDEST PUSH1 0x40 MLOAD SWAP1 DUP2 MSTORE PUSH1 0x20 ADD PUSH2 0x18D JUMP JUMPDEST CALLVALUE DUP1 ISZERO PUSH2 0x1C4 JUMPI PUSH0 PUSH0 REVERT JUMPDEST POP PUSH2 0xE6 PUSH2 0x1D3 CALLDATASIZE PUSH1 0x4 PUSH2 0xC81 JUMP JUMPDEST PUSH2 0x854 JUMP JUMPDEST CALLVALUE DUP1 ISZERO PUSH2 0x1E3 JUMPI PUSH0 PUSH0 REVERT JUMPDEST POP PUSH1 0x1 SLOAD PUSH1 0x1 PUSH1 0x1 PUSH1 0xA0 SHL SUB AND PUSH2 0x179 JUMP JUMPDEST CALLVALUE DUP1 ISZERO PUSH2 0x200 JUMPI PUSH0 PUSH0 REVERT JUMPDEST POP PUSH2 0x1AB PUSH1 0x2 SLOAD DUP2 JUMP JUMPDEST CALLVALUE DUP1 ISZERO PUSH2 0x215 JUMPI PUSH0 PUSH0 REVERT JUMPDEST POP PUSH2 0xE6 PUSH2 0x224 CALLDATASIZE PUSH1 0x4 PUSH2 0xB29 JUMP JUMPDEST PUSH2 0x8D5 JUMP JUMPDEST PUSH2 0x231 PUSH2 0x952 JUMP JUMPDEST SELFBALANCE DUP1 ISZERO PUSH2 0x2C3 JUMPI PUSH0 DUP3 PUSH1 0x1 PUSH1 0x1 PUSH1 0xA0 SHL SUB AND DUP3 PUSH1 0x40 MLOAD PUSH0 PUSH1 0x40 MLOAD DUP1 DUP4 SUB DUP2 DUP6 DUP8 GAS CALL SWAP3 POP POP POP RETURNDATASIZE DUP1 PUSH0 DUP2 EQ PUSH2 0x281 JUMPI PUSH1 0x40 MLOAD SWAP2 POP PUSH1 0x1F NOT PUSH1 0x3F RETURNDATASIZE ADD AND DUP3 ADD PUSH1 0x40 MSTORE RETURNDATASIZE DUP3 MSTORE RETURNDATASIZE PUSH0 PUSH1 0x20 DUP5 ADD RETURNDATACOPY PUSH2 0x286 JUMP JUMPDEST PUSH1 0x60 SWAP2 POP JUMPDEST POP POP SWAP1 POP DUP1 PUSH2 0x2C1 JUMPI PUSH1 0x40 MLOAD PUSH32 0x74E6FD0800000000000000000000000000000000000000000000000000000000 DUP2 MSTORE PUSH1 0x4 ADD PUSH1 0x40 MLOAD DUP1 SWAP2 SUB SWAP1 REVERT JUMPDEST POP JUMPDEST POP POP JUMP JUMPDEST PUSH2 0x2CF PUSH2 0x952 JUMP JUMPDEST DUP3 DUP2 EQ PUSH2 0x2EF JUMPI PUSH1 0x40 MLOAD PUSH4 0x332AC863 PUSH1 0xE2 SHL DUP2 MSTORE PUSH1 0x4 ADD PUSH1 0x40 MLOAD DUP1 SWAP2 SUB SWAP1 REVERT JUMPDEST PUSH0 DUP4 SWAP1 SUB PUSH2 0x310 JUMPI PUSH1 0x40 MLOAD PUSH4 0xC2E5347D PUSH1 0xE0 SHL DUP2 MSTORE PUSH1 0x4 ADD PUSH1 0x40 MLOAD DUP1 SWAP2 SUB SWAP1 REVERT JUMPDEST PUSH1 0x3 SLOAD DUP4 GT ISZERO PUSH2 0x333 JUMPI PUSH1 0x40 MLOAD PUSH4 0x68EBDE91 PUSH1 0xE1 SHL DUP2 MSTORE PUSH1 0x4 ADD PUSH1 0x40 MLOAD DUP1 SWAP2 SUB SWAP1 REVERT JUMPDEST PUSH0 JUMPDEST DUP4 DUP2 LT ISZERO PUSH2 0x461 JUMPI PUSH0 DUP6 DUP6 DUP4 DUP2 DUP2 LT PUSH2 0x350 JUMPI PUSH2 0x350 PUSH2 0xC98 JUMP JUMPDEST SWAP1 POP PUSH1 0x20 MUL ADD PUSH1 0x20 DUP2 ADD SWAP1 PUSH2 0x365 SWAP2 SWAP1 PUSH2 0xB29 JUMP JUMPDEST PUSH1 0x1 PUSH1 0x1 PUSH1 0xA0 SHL SUB AND SUB PUSH2 0x38C JUMPI PUSH1 0x40 MLOAD PUSH4 0x8C99265 PUSH1 0xE3 SHL DUP2 MSTORE PUSH1 0x4 ADD PUSH1 0x40 MLOAD DUP1 SWAP2 SUB SWAP1 REVERT JUMPDEST PUSH2 0x3D5 DUP7 DUP7 DUP7 DUP5 DUP2 DUP2 LT PUSH2 0x3A2 JUMPI PUSH2 0x3A2 PUSH2 0xC98 JUMP JUMPDEST SWAP1 POP PUSH1 0x20 MUL ADD PUSH1 0x20 DUP2 ADD SWAP1 PUSH2 0x3B7 SWAP2 SWAP1 PUSH2 0xB29 JUMP JUMPDEST DUP6 DUP6 DUP6 DUP2 DUP2 LT PUSH2 0x3C9 JUMPI PUSH2 0x3C9 PUSH2 0xC98 JUMP JUMPDEST SWAP1 POP PUSH1 0x20 MUL ADD CALLDATALOAD PUSH2 0x97E JUMP JUMPDEST CALLER PUSH32 0xC42FA155158786A1DD6CCC3A785F35845467353C3CC700E0E31A79F90E22227D DUP7 DUP7 DUP5 DUP2 DUP2 LT PUSH2 0x409 JUMPI PUSH2 0x409 PUSH2 0xC98 JUMP JUMPDEST SWAP1 POP PUSH1 0x20 MUL ADD PUSH1 0x20 DUP2 ADD SWAP1 PUSH2 0x41E SWAP2 SWAP1 PUSH2 0xB29 JUMP JUMPDEST DUP6 DUP6 DUP6 DUP2 DUP2 LT PUSH2 0x430 JUMPI PUSH2 0x430 PUSH2 0xC98 JUMP JUMPDEST PUSH1 0x40 DUP1 MLOAD PUSH1 0x1 PUSH1 0x1 PUSH1 0xA0 SHL SUB SWAP1 SWAP6 AND DUP6 MSTORE PUSH1 0x20 SWAP2 DUP3 MUL SWAP4 SWAP1 SWAP4 ADD CALLDATALOAD SWAP1 DUP5 ADD MSTORE POP ADD PUSH1 0x40 MLOAD DUP1 SWAP2 SUB SWAP1 LOG2 PUSH1 0x1 ADD PUSH2 0x335 JUMP JUMPDEST POP POP POP POP POP POP JUMP JUMPDEST PUSH2 0x471 PUSH2 0x952 JUMP JUMPDEST PUSH2 0x47A PUSH0 PUSH2 0xA98 JUMP JUMPDEST JUMP JUMPDEST PUSH1 0x1 SLOAD CALLER SWAP1 PUSH1 0x1 PUSH1 0x1 PUSH1 0xA0 SHL SUB AND DUP2 EQ PUSH2 0x4B9 JUMPI PUSH1 0x40 MLOAD PUSH4 0x118CDAA7 PUSH1 0xE0 SHL DUP2 MSTORE PUSH1 0x1 PUSH1 0x1 PUSH1 0xA0 SHL SUB DUP3 AND PUSH1 0x4 DUP3 ADD MSTORE PUSH1 0x24 ADD JUMPDEST PUSH1 0x40 MLOAD DUP1 SWAP2 SUB SWAP1 REVERT JUMPDEST PUSH2 0x4C2 DUP2 PUSH2 0xA98 JUMP JUMPDEST POP JUMP JUMPDEST PUSH2 0x4CD PUSH2 0x952 JUMP JUMPDEST DUP3 DUP2 EQ PUSH2 0x4ED JUMPI PUSH1 0x40 MLOAD PUSH4 0x332AC863 PUSH1 0xE2 SHL DUP2 MSTORE PUSH1 0x4 ADD PUSH1 0x40 MLOAD DUP1 SWAP2 SUB SWAP1 REVERT JUMPDEST PUSH0 DUP4 SWAP1 SUB PUSH2 0x50E JUMPI PUSH1 0x40 MLOAD PUSH4 0xC2E5347D PUSH1 0xE0 SHL DUP2 MSTORE PUSH1 0x4 ADD PUSH1 0x40 MLOAD DUP1 SWAP2 SUB SWAP1 REVERT JUMPDEST PUSH1 0x3 SLOAD DUP4 GT ISZERO PUSH2 0x531 JUMPI PUSH1 0x40 MLOAD PUSH4 0x68EBDE91 PUSH1 0xE1 SHL DUP2 MSTORE PUSH1 0x4 ADD PUSH1 0x40 MLOAD DUP1 SWAP2 SUB SWAP1 REVERT JUMPDEST PUSH0 DUP1 JUMPDEST DUP5 DUP2 LT ISZERO PUSH2 0x6F1 JUMPI PUSH0 DUP7 DUP7 DUP4 DUP2 DUP2 LT PUSH2 0x54F JUMPI PUSH2 0x54F PUSH2 0xC98 JUMP JUMPDEST SWAP1 POP PUSH1 0x20 MUL ADD PUSH1 0x20 DUP2 ADD SWAP1 PUSH2 0x564 SWAP2 SWAP1 PUSH2 0xB29 JUMP JUMPDEST PUSH1 0x1 PUSH1 0x1 PUSH1 0xA0 SHL SUB AND SUB PUSH2 0x58B JUMPI PUSH1 0x40 MLOAD PUSH4 0x8C99265 PUSH1 0xE3 SHL DUP2 MSTORE PUSH1 0x4 ADD PUSH1 0x40 MLOAD DUP1 SWAP2 SUB SWAP1 REVERT JUMPDEST PUSH0 DUP7 DUP7 DUP4 DUP2 DUP2 LT PUSH2 0x59E JUMPI PUSH2 0x59E PUSH2 0xC98 JUMP JUMPDEST SWAP1 POP PUSH1 0x20 MUL ADD PUSH1 0x20 DUP2 ADD SWAP1 PUSH2 0x5B3 SWAP2 SWAP1 PUSH2 0xB29 JUMP JUMPDEST PUSH1 0x1 PUSH1 0x1 PUSH1 0xA0 SHL SUB AND DUP6 DUP6 DUP5 DUP2 DUP2 LT PUSH2 0x5CE JUMPI PUSH2 0x5CE PUSH2 0xC98 JUMP JUMPDEST SWAP1 POP PUSH1 0x20 MUL ADD CALLDATALOAD PUSH1 0x2 SLOAD SWAP1 PUSH1 0x40 MLOAD PUSH0 PUSH1 0x40 MLOAD DUP1 DUP4 SUB DUP2 DUP6 DUP9 DUP9 CALL SWAP4 POP POP POP POP RETURNDATASIZE DUP1 PUSH0 DUP2 EQ PUSH2 0x617 JUMPI PUSH1 0x40 MLOAD SWAP2 POP PUSH1 0x1F NOT PUSH1 0x3F RETURNDATASIZE ADD AND DUP3 ADD PUSH1 0x40 MSTORE RETURNDATASIZE DUP3 MSTORE RETURNDATASIZE PUSH0 PUSH1 0x20 DUP5 ADD RETURNDATACOPY PUSH2 0x61C JUMP JUMPDEST PUSH1 0x60 SWAP2 POP JUMPDEST POP POP SWAP1 POP DUP1 PUSH2 0x63E JUMPI PUSH1 0x40 MLOAD PUSH4 0x12171D83 PUSH1 0xE3 SHL DUP2 MSTORE PUSH1 0x4 ADD PUSH1 0x40 MLOAD DUP1 SWAP2 SUB SWAP1 REVERT JUMPDEST DUP5 DUP5 DUP4 DUP2 DUP2 LT PUSH2 0x650 JUMPI PUSH2 0x650 PUSH2 0xC98 JUMP JUMPDEST SWAP1 POP PUSH1 0x20 MUL ADD CALLDATALOAD DUP4 PUSH2 0x662 SWAP2 SWAP1 PUSH2 0xCC0 JUMP JUMPDEST SWAP3 POP CALLER PUSH32 0xC42FA155158786A1DD6CCC3A785F35845467353C3CC700E0E31A79F90E22227D DUP9 DUP9 DUP6 DUP2 DUP2 LT PUSH2 0x698 JUMPI PUSH2 0x698 PUSH2 0xC98 JUMP JUMPDEST SWAP1 POP PUSH1 0x20 MUL ADD PUSH1 0x20 DUP2 ADD SWAP1 PUSH2 0x6AD SWAP2 SWAP1 PUSH2 0xB29 JUMP JUMPDEST DUP8 DUP8 DUP7 DUP2 DUP2 LT PUSH2 0x6BF JUMPI PUSH2 0x6BF PUSH2 0xC98 JUMP JUMPDEST PUSH1 0x40 DUP1 MLOAD PUSH1 0x1 PUSH1 0x1 PUSH1 0xA0 SHL SUB SWAP1 SWAP6 AND DUP6 MSTORE PUSH1 0x20 SWAP2 DUP3 MUL SWAP4 SWAP1 SWAP4 ADD CALLDATALOAD SWAP1 DUP5 ADD MSTORE POP ADD PUSH1 0x40 MLOAD DUP1 SWAP2 SUB SWAP1 LOG2 POP PUSH1 0x1 ADD PUSH2 0x534 JUMP JUMPDEST POP CALLVALUE DUP2 GT ISZERO PUSH2 0x72C JUMPI PUSH1 0x40 MLOAD PUSH32 0x6A12F10400000000000000000000000000000000000000000000000000000000 DUP2 MSTORE PUSH1 0x4 ADD PUSH1 0x40 MLOAD DUP1 SWAP2 SUB SWAP1 REVERT JUMPDEST PUSH0 PUSH2 0x737 DUP3 CALLVALUE PUSH2 0xCD9 JUMP JUMPDEST SWAP1 POP DUP1 ISZERO PUSH2 0x461 JUMPI PUSH1 0x40 MLOAD PUSH0 SWAP1 CALLER SWAP1 DUP4 SWAP1 DUP4 DUP2 DUP2 DUP2 DUP6 DUP8 GAS CALL SWAP3 POP POP POP RETURNDATASIZE DUP1 PUSH0 DUP2 EQ PUSH2 0x77E JUMPI PUSH1 0x40 MLOAD SWAP2 POP PUSH1 0x1F NOT PUSH1 0x3F RETURNDATASIZE ADD AND DUP3 ADD PUSH1 0x40 MSTORE RETURNDATASIZE DUP3 MSTORE RETURNDATASIZE PUSH0 PUSH1 0x20 DUP5 ADD RETURNDATACOPY PUSH2 0x783 JUMP JUMPDEST PUSH1 0x60 SWAP2 POP JUMPDEST POP POP SWAP1 POP DUP1 PUSH2 0x7BE JUMPI PUSH1 0x40 MLOAD PUSH32 0xF0C49D4400000000000000000000000000000000000000000000000000000000 DUP2 MSTORE PUSH1 0x4 ADD PUSH1 0x40 MLOAD DUP1 SWAP2 SUB SWAP1 REVERT JUMPDEST POP POP POP POP POP POP POP JUMP JUMPDEST PUSH2 0x7CF PUSH2 0x952 JUMP JUMPDEST PUSH2 0x8FC DUP2 LT DUP1 PUSH2 0x7E1 JUMPI POP PUSH3 0x7A120 DUP2 GT JUMPDEST ISZERO PUSH2 0x818 JUMPI PUSH1 0x40 MLOAD PUSH32 0x799DA9A200000000000000000000000000000000000000000000000000000000 DUP2 MSTORE PUSH1 0x4 ADD PUSH1 0x40 MLOAD DUP1 SWAP2 SUB SWAP1 REVERT JUMPDEST PUSH1 0x2 DUP2 SWAP1 SSTORE PUSH1 0x40 MLOAD DUP2 DUP2 MSTORE PUSH32 0xA902B3D40D931007147E6EEA086443EAF319CCEA5A1E3C46BF1E484E9DE23FEF SWAP1 PUSH1 0x20 ADD JUMPDEST PUSH1 0x40 MLOAD DUP1 SWAP2 SUB SWAP1 LOG1 POP JUMP JUMPDEST PUSH2 0x85C PUSH2 0x952 JUMP JUMPDEST DUP1 ISZERO DUP1 PUSH2 0x869 JUMPI POP PUSH1 0xFF DUP2 GT JUMPDEST ISZERO PUSH2 0x8A0 JUMPI PUSH1 0x40 MLOAD PUSH32 0x1FEAC32400000000000000000000000000000000000000000000000000000000 DUP2 MSTORE PUSH1 0x4 ADD PUSH1 0x40 MLOAD DUP1 SWAP2 SUB SWAP1 REVERT JUMPDEST PUSH1 0x3 DUP2 SWAP1 SSTORE PUSH1 0x40 MLOAD DUP2 DUP2 MSTORE PUSH32 0x648E250247C25235DBE130CD763668F3E5F482B617CB89AFC7AF363120F475D0 SWAP1 PUSH1 0x20 ADD PUSH2 0x849 JUMP JUMPDEST PUSH2 0x8DD PUSH2 0x952 JUMP JUMPDEST PUSH1 0x1 DUP1 SLOAD PUSH1 0x1 PUSH1 0x1 PUSH1 0xA0 SHL SUB DUP4 AND PUSH20 0xFFFFFFFFFFFFFFFFFFFFFFFFFFFFFFFFFFFFFFFF NOT SWAP1 SWAP2 AND DUP2 OR SWAP1 SWAP2 SSTORE PUSH2 0x91A PUSH0 SLOAD PUSH1 0x1 PUSH1 0x1 PUSH1 0xA0 SHL SUB AND SWAP1 JUMP JUMPDEST PUSH1 0x1 PUSH1 0x1 PUSH1 0xA0 SHL SUB AND PUSH32 0x38D16B8CAC22D99FC7C124B9CD0DE2D3FA1FAEF420BFE791D8C362D765E22700 PUSH1 0x40 MLOAD PUSH1 0x40 MLOAD DUP1 SWAP2 SUB SWAP1 LOG3 POP JUMP JUMPDEST PUSH0 SLOAD PUSH1 0x1 PUSH1 0x1 PUSH1 0xA0 SHL SUB AND CALLER EQ PUSH2 0x47A JUMPI PUSH1 0x40 MLOAD PUSH4 0x118CDAA7 PUSH1 0xE0 SHL DUP2 MSTORE CALLER PUSH1 0x4 DUP3 ADD MSTORE PUSH1 0x24 ADD PUSH2 0x4B0 JUMP JUMPDEST PUSH1 0x40 DUP1 MLOAD PUSH1 0x1 PUSH1 0x1 PUSH1 0xA0 SHL SUB DUP5 DUP2 AND PUSH1 0x24 DUP4 ADD MSTORE PUSH1 0x44 DUP1 DUP4 ADD DUP6 SWAP1 MSTORE DUP4 MLOAD DUP1 DUP5 SUB SWAP1 SWAP2 ADD DUP2 MSTORE PUSH1 0x64 SWAP1 SWAP3 ADD DUP4 MSTORE PUSH1 0x20 DUP3 ADD DUP1 MLOAD PUSH28 0xFFFFFFFFFFFFFFFFFFFFFFFFFFFFFFFFFFFFFFFFFFFFFFFFFFFFFFFF AND PUSH32 0xA9059CBB00000000000000000000000000000000000000000000000000000000 OR SWAP1 MSTORE SWAP2 MLOAD PUSH0 SWAP3 DUP4 SWAP3 SWAP1 DUP8 AND SWAP2 PUSH2 0xA07 SWAP2 SWAP1 PUSH2 0xCEC JUMP JUMPDEST PUSH0 PUSH1 0x40 MLOAD DUP1 DUP4 SUB DUP2 PUSH0 DUP7 GAS CALL SWAP2 POP POP RETURNDATASIZE DUP1 PUSH0 DUP2 EQ PUSH2 0xA40 JUMPI PUSH1 0x40 MLOAD SWAP2 POP PUSH1 0x1F NOT PUSH1 0x3F RETURNDATASIZE ADD AND DUP3 ADD PUSH1 0x40 MSTORE RETURNDATASIZE DUP3 MSTORE RETURNDATASIZE PUSH0 PUSH1 0x20 DUP5 ADD RETURNDATACOPY PUSH2 0xA45 JUMP JUMPDEST PUSH1 0x60 SWAP2 POP JUMPDEST POP SWAP2 POP SWAP2 POP DUP2 ISZERO DUP1 PUSH2 0xA73 JUMPI POP PUSH0 DUP2 MLOAD GT DUP1 ISZERO PUSH2 0xA73 JUMPI POP DUP1 DUP1 PUSH1 0x20 ADD SWAP1 MLOAD DUP2 ADD SWAP1 PUSH2 0xA71 SWAP2 SWAP1 PUSH2 0xD02 JUMP JUMPDEST ISZERO JUMPDEST ISZERO PUSH2 0xA91 JUMPI PUSH1 0x40 MLOAD PUSH4 0x12171D83 PUSH1 0xE3 SHL DUP2 MSTORE PUSH1 0x4 ADD PUSH1 0x40 MLOAD DUP1 SWAP2 SUB SWAP1 REVERT JUMPDEST POP POP POP POP POP JUMP JUMPDEST PUSH1 0x1 DUP1 SLOAD PUSH20 0xFFFFFFFFFFFFFFFFFFFFFFFFFFFFFFFFFFFFFFFF NOT AND SWAP1 SSTORE PUSH2 0x4C2 DUP2 PUSH0 DUP1 SLOAD PUSH1 0x1 PUSH1 0x1 PUSH1 0xA0 SHL SUB DUP4 DUP2 AND PUSH20 0xFFFFFFFFFFFFFFFFFFFFFFFFFFFFFFFFFFFFFFFF NOT DUP4 AND DUP2 OR DUP5 SSTORE PUSH1 0x40 MLOAD SWAP2 SWAP1 SWAP3 AND SWAP3 DUP4 SWAP2 PUSH32 0x8BE0079C531659141344CD1FD0A4F28419497F9722A3DAAFE3B4186F6B6457E0 SWAP2 SWAP1 LOG3 POP POP JUMP JUMPDEST PUSH1 0x1 PUSH1 0x1 PUSH1 0xA0 SHL SUB DUP2 AND DUP2 EQ PUSH2 0x4C2 JUMPI PUSH0 PUSH0 REVERT JUMPDEST PUSH0 PUSH1 0x20 DUP3 DUP5 SUB SLT ISZERO PUSH2 0xB39 JUMPI PUSH0 PUSH0 REVERT JUMPDEST DUP2 CALLDATALOAD PUSH2 0xB44 DUP2 PUSH2 0xB15 JUMP JUMPDEST SWAP4 SWAP3 POP POP POP JUMP JUMPDEST PUSH0 PUSH0 DUP4 PUSH1 0x1F DUP5 ADD SLT PUSH2 0xB5B JUMPI PUSH0 PUSH0 REVERT JUMPDEST POP DUP2 CALLDATALOAD PUSH8 0xFFFFFFFFFFFFFFFF DUP2 GT ISZERO PUSH2 0xB72 JUMPI PUSH0 PUSH0 REVERT JUMPDEST PUSH1 0x20 DUP4 ADD SWAP2 POP DUP4 PUSH1 0x20 DUP3 PUSH1 0x5 SHL DUP6 ADD ADD GT ISZERO PUSH2 0xB8C JUMPI PUSH0 PUSH0 REVERT JUMPDEST SWAP3 POP SWAP3 SWAP1 POP JUMP JUMPDEST PUSH0 PUSH0 PUSH0 PUSH0 PUSH0 PUSH1 0x60 DUP7 DUP9 SUB SLT ISZERO PUSH2 0xBA7 JUMPI PUSH0 PUSH0 REVERT JUMPDEST DUP6 CALLDATALOAD PUSH2 0xBB2 DUP2 PUSH2 0xB15 JUMP JUMPDEST SWAP5 POP PUSH1 0x20 DUP7 ADD CALLDATALOAD PUSH8 0xFFFFFFFFFFFFFFFF DUP2 GT ISZERO PUSH2 0xBCD JUMPI PUSH0 PUSH0 REVERT JUMPDEST PUSH2 0xBD9 DUP9 DUP3 DUP10 ADD PUSH2 0xB4B JUMP JUMPDEST SWAP1 SWAP6 POP SWAP4 POP POP PUSH1 0x40 DUP7 ADD CALLDATALOAD PUSH8 0xFFFFFFFFFFFFFFFF DUP2 GT ISZERO PUSH2 0xBF8 JUMPI PUSH0 PUSH0 REVERT JUMPDEST PUSH2 0xC04 DUP9 DUP3 DUP10 ADD PUSH2 0xB4B JUMP JUMPDEST SWAP7 SWAP10 SWAP6 SWAP9 POP SWAP4 SWAP7 POP SWAP3 SWAP5 SWAP4 SWAP3 POP POP POP JUMP JUMPDEST PUSH0 PUSH0 PUSH0 PUSH0 PUSH1 0x40 DUP6 DUP8 SUB SLT ISZERO PUSH2 0xC28 JUMPI PUSH0 PUSH0 REVERT JUMPDEST DUP5 CALLDATALOAD PUSH8 0xFFFFFFFFFFFFFFFF DUP2 GT ISZERO PUSH2 0xC3E JUMPI PUSH0 PUSH0 REVERT JUMPDEST PUSH2 0xC4A DUP8 DUP3 DUP9 ADD PUSH2 0xB4B JUMP JUMPDEST SWAP1 SWAP6 POP SWAP4 POP POP PUSH1 0x20 DUP6 ADD CALLDATALOAD PUSH8 0xFFFFFFFFFFFFFFFF DUP2 GT ISZERO PUSH2 0xC69 JUMPI PUSH0 PUSH0 REVERT JUMPDEST PUSH2 0xC75 DUP8 DUP3 DUP9 ADD PUSH2 0xB4B JUMP JUMPDEST SWAP6 SWAP9 SWAP5 SWAP8 POP SWAP6 POP POP POP POP JUMP JUMPDEST PUSH0 PUSH1 0x20 DUP3 DUP5 SUB SLT ISZERO PUSH2 0xC91 JUMPI PUSH0 PUSH0 REVERT JUMPDEST POP CALLDATALOAD SWAP2 SWAP1 POP JUMP JUMPDEST PUSH4 0x4E487B71 PUSH1 0xE0 SHL PUSH0 MSTORE PUSH1 0x32 PUSH1 0x4 MSTORE PUSH1 0x24 PUSH0 REVERT JUMPDEST PUSH4 0x4E487B71 PUSH1 0xE0 SHL PUSH0 MSTORE PUSH1 0x11 PUSH1 0x4 MSTORE PUSH1 0x24 PUSH0 REVERT JUMPDEST DUP1 DUP3 ADD DUP1 DUP3 GT ISZERO PUSH2 0xCD3 JUMPI PUSH2 0xCD3 PUSH2 0xCAC JUMP JUMPDEST SWAP3 SWAP2 POP POP JUMP JUMPDEST DUP2 DUP2 SUB DUP2 DUP2 GT ISZERO PUSH2 0xCD3 JUMPI PUSH2 0xCD3 PUSH2 0xCAC JUMP JUMPDEST PUSH0 DUP3 MLOAD DUP1 PUSH1 0x20 DUP6 ADD DUP5 MCOPY PUSH0 SWAP3 ADD SWAP2 DUP3 MSTORE POP SWAP2 SWAP1 POP JUMP JUMPDEST PUSH0 PUSH1 0x20 DUP3 DUP5 SUB SLT ISZERO PUSH2 0xD12 JUMPI PUSH0 PUSH0 REVERT JUMPDEST DUP2 MLOAD DUP1 ISZERO ISZERO DUP2 EQ PUSH2 0xB44 JUMPI PUSH0 PUSH0 REVERT INVALID LOG2 PUSH5 0x6970667358 0x22 SLT KECCAK256 0x4B JUMPDEST LOG2 ORIGIN 0xE4 DUP10 0xE5 GASPRICE SWAP12 0xF6 KECCAK256 0x1E CODECOPY DELEGATECALL ISZERO CREATE 0xDB SWAP15 0xE4 RETURNDATACOPY STATICCALL 0xAA 0xEE 0xF7 DUP7 EQ 0x28 SWAP16 0xDC PUSH14 0xF11964736F6C634300081B003300 "},"methodIdentifiers":{"acceptOwnership()":"79ba5097","batchTransfer(address[],uint256[])":"88d695b2","batchTransferLimit()":"96970b68","batchTransferToken(address,address[],uint256[])":"20651d5d","owner()":"8da5cb5b","pendingOwner()":"e30c3978","recover(address)":"0cd865ec","renounceOwnership()":"715018a6","setBatchTransferLimit(uint256)":"ba48e057","setTransferGasLimit(uint256)":"8c70830b","transferGasLimit()":"e8f67c3b","transferOwnership(address)":"f2fde38b"}}}}}