{"contracts/CvhWalletFactory.sol":{"CvhWalletFactory":{"abi":[{"inputs":[{"internalType":"address","name":"_implementationAddress","type":"address"}],"stateMutability":"nonpayable","type":"constructor"},{"anonymous":false,"inputs":[{"indexed":false,"internalType":"address","name":"walletAddress","type":"address"},{"indexed":false,"internalType":"address[]","name":"allowedSigners","type":"address[]"}],"name":"WalletCreated","type":"event"},{"inputs":[{"internalType":"address","name":"deployer","type":"address"},{"internalType":"address[]","name":"allowedSigners","type":"address[]"},{"internalType":"bytes32","name":"salt","type":"bytes32"}],"name":"computeWalletAddress","outputs":[{"internalType":"address","name":"","type":"address"}],"stateMutability":"view","type":"function"},{"inputs":[{"internalType":"address[]","name":"allowedSigners","type":"address[]"},{"internalType":"bytes32","name":"salt","type":"bytes32"}],"name":"createWallet","outputs":[{"internalType":"address payable","name":"wallet","type":"address"}],"stateMutability":"nonpayable","type":"function"},{"inputs":[],"name":"implementationAddress","outputs":[{"internalType":"address","name":"","type":"address"}],"stateMutability":"view","type":"function"}],"evm":{"bytecode":{"linkReferences":{},"object":"60a0604052348015600e575f5ffd5b50604051610685380380610685833981016040819052602b91603b565b6001600160a01b03166080526066565b5f60208284031215604a575f5ffd5b81516001600160a01b0381168114605f575f5ffd5b9392505050565b6080516105fb61008a5f395f8181608a0152818160e2015261021e01526105fb5ff3fe608060405234801561000f575f5ffd5b506004361061003f575f3560e01c8063092f0aef146100435780637117f3fa14610072578063b97a231914610085575b5f5ffd5b61005661005136600461043e565b6100ac565b6040516001600160a01b03909116815260200160405180910390f35b610056610080366004610494565b6101e8565b6100567f000000000000000000000000000000000000000000000000000000000000000081565b5f5f858585856040516020016100c594939291906104dc565b6040516020818303038152906040528051906020012090506101de7f000000000000000000000000000000000000000000000000000000000000000082604080517f3d602d80600a3d3981f3363d3d373d3d3d363d730000000000000000000000006020808301919091526bffffffffffffffffffffffff19606095861b811660348401527f5af43d82803e903d91602b57fd5bf300000000000000000000000000000000006048840152835160378185030181526057840185528051908301207fff0000000000000000000000000000000000000000000000000000000000000060778501523090961b166078830152608c82019390935260ac808201949094528151808203909401845260cc019052815191012090565b9695505050505050565b5f5f3385858560405160200161020194939291906104dc565b6040516020818303038152906040528051906020012090506102437f0000000000000000000000000000000000000000000000000000000000000000826102fd565b6040517fc6044c460000000000000000000000000000000000000000000000000000000081529092506001600160a01b0383169063c6044c469061028d908890889060040161057f565b5f604051808303815f87803b1580156102a4575f5ffd5b505af11580156102b6573d5f5f3e3d5ffd5b505050507f0d1013664d1afda1c712a76630e584de8dd1d656331b90608aedc997fdb7839e8286866040516102ed9392919061059a565b60405180910390a1509392505050565b5f5f8360601b90506040517f3d602d80600a3d3981f3363d3d373d3d3d363d7300000000000000000000000081528160148201527f5af43d82803e903d91602b57fd5bf300000000000000000000000000000000006028820152836037825ff59250506001600160a01b0382166103d4576040517f08c379a000000000000000000000000000000000000000000000000000000000815260206004820152601c60248201527f436c6f6e65466163746f72793a2043524541544532206661696c656400000000604482015260640160405180910390fd5b5092915050565b80356001600160a01b03811681146103f1575f5ffd5b919050565b5f5f83601f840112610406575f5ffd5b50813567ffffffffffffffff81111561041d575f5ffd5b6020830191508360208260051b8501011115610437575f5ffd5b9250929050565b5f5f5f5f60608587031215610451575f5ffd5b61045a856103db565b9350602085013567ffffffffffffffff811115610475575f5ffd5b610481878288016103f6565b9598909750949560400135949350505050565b5f5f5f604084860312156104a6575f5ffd5b833567ffffffffffffffff8111156104bc575f5ffd5b6104c8868287016103f6565b909790965060209590950135949350505050565b6bffffffffffffffffffffffff198560601b1681525f60148201855f5b86811015610528576001600160a01b03610512836103db565b16835260209283019291909101906001016104f9565b505092835250506020019392505050565b8183526020830192505f815f5b84811015610575576001600160a01b0361055f836103db565b1686526020958601959190910190600101610546565b5093949350505050565b602081525f610592602083018486610539565b949350505050565b6001600160a01b0384168152604060208201525f6105bc604083018486610539565b9594505050505056fea264697066735822122079919ee8f19193dae62bbcd8e049af7f9802fead74f8add81df1c72346f28c4664736f6c634300081b0033","opcodes":"PUSH1 0xA0 PUSH1 0x40 MSTORE CALLVALUE DUP1 ISZERO PUSH1 0xE JUMPI PUSH0 PUSH0 REVERT JUMPDEST POP PUSH1 0x40 MLOAD PUSH2 0x685 CODESIZE SUB DUP1 PUSH2 0x685 DUP4 CODECOPY DUP2 ADD PUSH1 0x40 DUP2 SWAP1 MSTORE PUSH1 0x2B SWAP2 PUSH1 0x3B JUMP JUMPDEST PUSH1 0x1 PUSH1 0x1 PUSH1 0xA0 SHL SUB AND PUSH1 0x80 MSTORE PUSH1 0x66 JUMP JUMPDEST PUSH0 PUSH1 0x20 DUP3 DUP5 SUB SLT ISZERO PUSH1 0x4A JUMPI PUSH0 PUSH0 REVERT JUMPDEST DUP2 MLOAD PUSH1 0x1 PUSH1 0x1 PUSH1 0xA0 SHL SUB DUP2 AND DUP2 EQ PUSH1 0x5F JUMPI PUSH0 PUSH0 REVERT JUMPDEST SWAP4 SWAP3 POP POP POP JUMP JUMPDEST PUSH1 0x80 MLOAD PUSH2 0x5FB PUSH2 0x8A PUSH0 CODECOPY PUSH0 DUP2 DUP2 PUSH1 0x8A ADD MSTORE DUP2 DUP2 PUSH1 0xE2 ADD MSTORE PUSH2 0x21E ADD MSTORE PUSH2 0x5FB PUSH0 RETURN INVALID PUSH1 0x80 PUSH1 0x40 MSTORE CALLVALUE DUP1 ISZERO PUSH2 0xF JUMPI PUSH0 PUSH0 REVERT JUMPDEST POP PUSH1 0x4 CALLDATASIZE LT PUSH2 0x3F JUMPI PUSH0 CALLDATALOAD PUSH1 0xE0 SHR DUP1 PUSH4 0x92F0AEF EQ PUSH2 0x43 JUMPI DUP1 PUSH4 0x7117F3FA EQ PUSH2 0x72 JUMPI DUP1 PUSH4 0xB97A2319 EQ PUSH2 0x85 JUMPI JUMPDEST PUSH0 PUSH0 REVERT JUMPDEST PUSH2 0x56 PUSH2 0x51 CALLDATASIZE PUSH1 0x4 PUSH2 0x43E JUMP JUMPDEST PUSH2 0xAC JUMP JUMPDEST PUSH1 0x40 MLOAD PUSH1 0x1 PUSH1 0x1 PUSH1 0xA0 SHL SUB SWAP1 SWAP2 AND DUP2 MSTORE PUSH1 0x20 ADD PUSH1 0x40 MLOAD DUP1 SWAP2 SUB SWAP1 RETURN JUMPDEST PUSH2 0x56 PUSH2 0x80 CALLDATASIZE PUSH1 0x4 PUSH2 0x494 JUMP JUMPDEST PUSH2 0x1E8 JUMP JUMPDEST PUSH2 0x56 PUSH32 0x0 DUP2 JUMP JUMPDEST PUSH0 PUSH0 DUP6 DUP6 DUP6 DUP6 PUSH1 0x40 MLOAD PUSH1 0x20 ADD PUSH2 0xC5 SWAP5 SWAP4 SWAP3 SWAP2 SWAP1 PUSH2 0x4DC JUMP JUMPDEST PUSH1 0x40 MLOAD PUSH1 0x20 DUP2 DUP4 SUB SUB DUP2 MSTORE SWAP1 PUSH1 0x40 MSTORE DUP1 MLOAD SWAP1 PUSH1 0x20 ADD KECCAK256 SWAP1 POP PUSH2 0x1DE PUSH32 0x0 DUP3 PUSH1 0x40 DUP1 MLOAD PUSH32 0x3D602D80600A3D3981F3363D3D373D3D3D363D73000000000000000000000000 PUSH1 0x20 DUP1 DUP4 ADD SWAP2 SWAP1 SWAP2 MSTORE PUSH12 0xFFFFFFFFFFFFFFFFFFFFFFFF NOT PUSH1 0x60 SWAP6 DUP7 SHL DUP2 AND PUSH1 0x34 DUP5 ADD MSTORE PUSH32 0x5AF43D82803E903D91602B57FD5BF30000000000000000000000000000000000 PUSH1 0x48 DUP5 ADD MSTORE DUP4 MLOAD PUSH1 0x37 DUP2 DUP6 SUB ADD DUP2 MSTORE PUSH1 0x57 DUP5 ADD DUP6 MSTORE DUP1 MLOAD SWAP1 DUP4 ADD KECCAK256 PUSH32 0xFF00000000000000000000000000000000000000000000000000000000000000 PUSH1 0x77 DUP6 ADD MSTORE ADDRESS SWAP1 SWAP7 SHL AND PUSH1 0x78 DUP4 ADD MSTORE PUSH1 0x8C DUP3 ADD SWAP4 SWAP1 SWAP4 MSTORE PUSH1 0xAC DUP1 DUP3 ADD SWAP5 SWAP1 SWAP5 MSTORE DUP2 MLOAD DUP1 DUP3 SUB SWAP1 SWAP5 ADD DUP5 MSTORE PUSH1 0xCC ADD SWAP1 MSTORE DUP2 MLOAD SWAP2 ADD KECCAK256 SWAP1 JUMP JUMPDEST SWAP7 SWAP6 POP POP POP POP POP POP JUMP JUMPDEST PUSH0 PUSH0 CALLER DUP6 DUP6 DUP6 PUSH1 0x40 MLOAD PUSH1 0x20 ADD PUSH2 0x201 SWAP5 SWAP4 SWAP3 SWAP2 SWAP1 PUSH2 0x4DC JUMP JUMPDEST PUSH1 0x40 MLOAD PUSH1 0x20 DUP2 DUP4 SUB SUB DUP2 MSTORE SWAP1 PUSH1 0x40 MSTORE DUP1 MLOAD SWAP1 PUSH1 0x20 ADD KECCAK256 SWAP1 POP PUSH2 0x243 PUSH32 0x0 DUP3 PUSH2 0x2FD JUMP JUMPDEST PUSH1 0x40 MLOAD PUSH32 0xC6044C4600000000000000000000000000000000000000000000000000000000 DUP2 MSTORE SWAP1 SWAP3 POP PUSH1 0x1 PUSH1 0x1 PUSH1 0xA0 SHL SUB DUP4 AND SWAP1 PUSH4 0xC6044C46 SWAP1 PUSH2 0x28D SWAP1 DUP9 SWAP1 DUP9 SWAP1 PUSH1 0x4 ADD PUSH2 0x57F JUMP JUMPDEST PUSH0 PUSH1 0x40 MLOAD DUP1 DUP4 SUB DUP2 PUSH0 DUP8 DUP1 EXTCODESIZE ISZERO DUP1 ISZERO PUSH2 0x2A4 JUMPI PUSH0 PUSH0 REVERT JUMPDEST POP GAS CALL ISZERO DUP1 ISZERO PUSH2 0x2B6 JUMPI RETURNDATASIZE PUSH0 PUSH0 RETURNDATACOPY RETURNDATASIZE PUSH0 REVERT JUMPDEST POP POP POP POP PUSH32 0xD1013664D1AFDA1C712A76630E584DE8DD1D656331B90608AEDC997FDB7839E DUP3 DUP7 DUP7 PUSH1 0x40 MLOAD PUSH2 0x2ED SWAP4 SWAP3 SWAP2 SWAP1 PUSH2 0x59A JUMP JUMPDEST PUSH1 0x40 MLOAD DUP1 SWAP2 SUB SWAP1 LOG1 POP SWAP4 SWAP3 POP POP POP JUMP JUMPDEST PUSH0 PUSH0 DUP4 PUSH1 0x60 SHL SWAP1 POP PUSH1 0x40 MLOAD PUSH32 0x3D602D80600A3D3981F3363D3D373D3D3D363D73000000000000000000000000 DUP2 MSTORE DUP2 PUSH1 0x14 DUP3 ADD MSTORE PUSH32 0x5AF43D82803E903D91602B57FD5BF30000000000000000000000000000000000 PUSH1 0x28 DUP3 ADD MSTORE DUP4 PUSH1 0x37 DUP3 PUSH0 CREATE2 SWAP3 POP POP PUSH1 0x1 PUSH1 0x1 PUSH1 0xA0 SHL SUB DUP3 AND PUSH2 0x3D4 JUMPI PUSH1 0x40 MLOAD PUSH32 0x8C379A000000000000000000000000000000000000000000000000000000000 DUP2 MSTORE PUSH1 0x20 PUSH1 0x4 DUP3 ADD MSTORE PUSH1 0x1C PUSH1 0x24 DUP3 ADD MSTORE PUSH32 0x436C6F6E65466163746F72793A2043524541544532206661696C656400000000 PUSH1 0x44 DUP3 ADD MSTORE PUSH1 0x64 ADD PUSH1 0x40 MLOAD DUP1 SWAP2 SUB SWAP1 REVERT JUMPDEST POP SWAP3 SWAP2 POP POP JUMP JUMPDEST DUP1 CALLDATALOAD PUSH1 0x1 PUSH1 0x1 PUSH1 0xA0 SHL SUB DUP2 AND DUP2 EQ PUSH2 0x3F1 JUMPI PUSH0 PUSH0 REVERT JUMPDEST SWAP2 SWAP1 POP JUMP JUMPDEST PUSH0 PUSH0 DUP4 PUSH1 0x1F DUP5 ADD SLT PUSH2 0x406 JUMPI PUSH0 PUSH0 REVERT JUMPDEST POP DUP2 CALLDATALOAD PUSH8 0xFFFFFFFFFFFFFFFF DUP2 GT ISZERO PUSH2 0x41D JUMPI PUSH0 PUSH0 REVERT JUMPDEST PUSH1 0x20 DUP4 ADD SWAP2 POP DUP4 PUSH1 0x20 DUP3 PUSH1 0x5 SHL DUP6 ADD ADD GT ISZERO PUSH2 0x437 JUMPI PUSH0 PUSH0 REVERT JUMPDEST SWAP3 POP SWAP3 SWAP1 POP JUMP JUMPDEST PUSH0 PUSH0 PUSH0 PUSH0 PUSH1 0x60 DUP6 DUP8 SUB SLT ISZERO PUSH2 0x451 JUMPI PUSH0 PUSH0 REVERT JUMPDEST PUSH2 0x45A DUP6 PUSH2 0x3DB JUMP JUMPDEST SWAP4 POP PUSH1 0x20 DUP6 ADD CALLDATALOAD PUSH8 0xFFFFFFFFFFFFFFFF DUP2 GT ISZERO PUSH2 0x475 JUMPI PUSH0 PUSH0 REVERT JUMPDEST PUSH2 0x481 DUP8 DUP3 DUP9 ADD PUSH2 0x3F6 JUMP JUMPDEST SWAP6 SWAP9 SWAP1 SWAP8 POP SWAP5 SWAP6 PUSH1 0x40 ADD CALLDATALOAD SWAP5 SWAP4 POP POP POP POP JUMP JUMPDEST PUSH0 PUSH0 PUSH0 PUSH1 0x40 DUP5 DUP7 SUB SLT ISZERO PUSH2 0x4A6 JUMPI PUSH0 PUSH0 REVERT JUMPDEST DUP4 CALLDATALOAD PUSH8 0xFFFFFFFFFFFFFFFF DUP2 GT ISZERO PUSH2 0x4BC JUMPI PUSH0 PUSH0 REVERT JUMPDEST PUSH2 0x4C8 DUP7 DUP3 DUP8 ADD PUSH2 0x3F6 JUMP JUMPDEST SWAP1 SWAP8 SWAP1 SWAP7 POP PUSH1 0x20 SWAP6 SWAP1 SWAP6 ADD CALLDATALOAD SWAP5 SWAP4 POP POP POP POP JUMP JUMPDEST PUSH12 0xFFFFFFFFFFFFFFFFFFFFFFFF NOT DUP6 PUSH1 0x60 SHL AND DUP2 MSTORE PUSH0 PUSH1 0x14 DUP3 ADD DUP6 PUSH0 JUMPDEST DUP7 DUP2 LT ISZERO PUSH2 0x528 JUMPI PUSH1 0x1 PUSH1 0x1 PUSH1 0xA0 SHL SUB PUSH2 0x512 DUP4 PUSH2 0x3DB JUMP JUMPDEST AND DUP4 MSTORE PUSH1 0x20 SWAP3 DUP4 ADD SWAP3 SWAP2 SWAP1 SWAP2 ADD SWAP1 PUSH1 0x1 ADD PUSH2 0x4F9 JUMP JUMPDEST POP POP SWAP3 DUP4 MSTORE POP POP PUSH1 0x20 ADD SWAP4 SWAP3 POP POP POP JUMP JUMPDEST DUP2 DUP4 MSTORE PUSH1 0x20 DUP4 ADD SWAP3 POP PUSH0 DUP2 PUSH0 JUMPDEST DUP5 DUP2 LT ISZERO PUSH2 0x575 JUMPI PUSH1 0x1 PUSH1 0x1 PUSH1 0xA0 SHL SUB PUSH2 0x55F DUP4 PUSH2 0x3DB JUMP JUMPDEST AND DUP7 MSTORE PUSH1 0x20 SWAP6 DUP7 ADD SWAP6 SWAP2 SWAP1 SWAP2 ADD SWAP1 PUSH1 0x1 ADD PUSH2 0x546 JUMP JUMPDEST POP SWAP4 SWAP5 SWAP4 POP POP POP POP JUMP JUMPDEST PUSH1 0x20 DUP2 MSTORE PUSH0 PUSH2 0x592 PUSH1 0x20 DUP4 ADD DUP5 DUP7 PUSH2 0x539 JUMP JUMPDEST SWAP5 SWAP4 POP POP POP POP JUMP JUMPDEST PUSH1 0x1 PUSH1 0x1 PUSH1 0xA0 SHL SUB DUP5 AND DUP2 MSTORE PUSH1 0x40 PUSH1 0x20 DUP3 ADD MSTORE PUSH0 PUSH2 0x5BC PUSH1 0x40 DUP4 ADD DUP5 DUP7 PUSH2 0x539 JUMP JUMPDEST SWAP6 SWAP5 POP POP POP POP POP JUMP INVALID LOG2 PUSH5 0x6970667358 0x22 SLT KECCAK256 PUSH26 0x919EE8F19193DAE62BBCD8E049AF7F9802FEAD74F8ADD81DF1C7 0x23 CHAINID CALLCODE DUP13 CHAINID PUSH5 0x736F6C6343 STOP ADDMOD SHL STOP CALLER "},"methodIdentifiers":{"computeWalletAddress(address,address[],bytes32)":"092f0aef","createWallet(address[],bytes32)":"7117f3fa","implementationAddress()":"b97a2319"}}}}}