{"contracts/test/GasGriefer.sol":{"GasGriefer":{"abi":[{"inputs":[],"name":"counter","outputs":[{"internalType":"uint256","name":"","type":"uint256"}],"stateMutability":"view","type":"function"},{"stateMutability":"payable","type":"receive"}],"evm":{"bytecode":{"linkReferences":{},"object":"6080604052348015600e575f5ffd5b50609880601a5f395ff3fe608060405260043610601e575f3560e01c806361bc221a14603e575f5ffd5b36603a575f5b6127108110156038575f8190556001016024565b005b5f5ffd5b3480156048575f5ffd5b5060505f5481565b60405190815260200160405180910390f3fea2646970667358221220ab427df5e439dc886a924342e407271fc90b223268a3d5e878e2ee478c10fed264736f6c634300081b0033","opcodes":"PUSH1 0x80 PUSH1 0x40 MSTORE CALLVALUE DUP1 ISZERO PUSH1 0xE JUMPI PUSH0 PUSH0 REVERT JUMPDEST POP PUSH1 0x98 DUP1 PUSH1 0x1A PUSH0 CODECOPY PUSH0 RETURN INVALID PUSH1 0x80 PUSH1 0x40 MSTORE PUSH1 0x4 CALLDATASIZE LT PUSH1 0x1E JUMPI PUSH0 CALLDATALOAD PUSH1 0xE0 SHR DUP1 PUSH4 0x61BC221A EQ PUSH1 0x3E JUMPI PUSH0 PUSH0 REVERT JUMPDEST CALLDATASIZE PUSH1 0x3A JUMPI PUSH0 JUMPDEST PUSH2 0x2710 DUP2 LT ISZERO PUSH1 0x38 JUMPI PUSH0 DUP2 SWAP1 SSTORE PUSH1 0x1 ADD PUSH1 0x24 JUMP JUMPDEST STOP JUMPDEST PUSH0 PUSH0 REVERT JUMPDEST CALLVALUE DUP1 ISZERO PUSH1 0x48 JUMPI PUSH0 PUSH0 REVERT JUMPDEST POP PUSH1 0x50 PUSH0 SLOAD DUP2 JUMP JUMPDEST PUSH1 0x40 MLOAD SWAP1 DUP2 MSTORE PUSH1 0x20 ADD PUSH1 0x40 MLOAD DUP1 SWAP2 SUB SWAP1 RETURN INVALID LOG2 PUSH5 0x6970667358 0x22 SLT KECCAK256 0xAB TIMESTAMP PUSH30 0xF5E439DC886A924342E407271FC90B223268A3D5E878E2EE478C10FED264 PUSH20 0x6F6C634300081B00330000000000000000000000 "},"methodIdentifiers":{"counter()":"61bc221a"}}}}}