{"contracts/test/GasGriefer.sol":{"GasGriefer":{"abi":[{"inputs":[],"name":"counter","outputs":[{"internalType":"uint256","name":"","type":"uint256"}],"stateMutability":"view","type":"function"},{"stateMutability":"payable","type":"receive"}],"evm":{"bytecode":{"linkReferences":{},"object":"6080604052348015600e575f5ffd5b50609880601a5f395ff3fe608060405260043610601e575f3560e01c806361bc221a14603e575f5ffd5b36603a575f5b6101f48110156038575f8190556001016024565b005b5f5ffd5b3480156048575f5ffd5b5060505f5481565b60405190815260200160405180910390f3fea2646970667358221220c039a30b17c7bf5f4708fb4e46e31e65738fde6a6e13d3a43dd42aefbb0d546964736f6c634300081b0033","opcodes":"PUSH1 0x80 PUSH1 0x40 MSTORE CALLVALUE DUP1 ISZERO PUSH1 0xE JUMPI PUSH0 PUSH0 REVERT JUMPDEST POP PUSH1 0x98 DUP1 PUSH1 0x1A PUSH0 CODECOPY PUSH0 RETURN INVALID PUSH1 0x80 PUSH1 0x40 MSTORE PUSH1 0x4 CALLDATASIZE LT PUSH1 0x1E JUMPI PUSH0 CALLDATALOAD PUSH1 0xE0 SHR DUP1 PUSH4 0x61BC221A EQ PUSH1 0x3E JUMPI PUSH0 PUSH0 REVERT JUMPDEST CALLDATASIZE PUSH1 0x3A JUMPI PUSH0 JUMPDEST PUSH2 0x1F4 DUP2 LT ISZERO PUSH1 0x38 JUMPI PUSH0 DUP2 SWAP1 SSTORE PUSH1 0x1 ADD PUSH1 0x24 JUMP JUMPDEST STOP JUMPDEST PUSH0 PUSH0 REVERT JUMPDEST CALLVALUE DUP1 ISZERO PUSH1 0x48 JUMPI PUSH0 PUSH0 REVERT JUMPDEST POP PUSH1 0x50 PUSH0 SLOAD DUP2 JUMP JUMPDEST PUSH1 0x40 MLOAD SWAP1 DUP2 MSTORE PUSH1 0x20 ADD PUSH1 0x40 MLOAD DUP1 SWAP2 SUB SWAP1 RETURN INVALID LOG2 PUSH5 0x6970667358 0x22 SLT KECCAK256 0xC0 CODECOPY LOG3 SIGNEXTEND OR 0xC7 0xBF PUSH0 SELFBALANCE ADDMOD 0xFB 0x4E CHAINID 0xE3 0x1E PUSH6 0x738FDE6A6E13 0xD3 LOG4 RETURNDATASIZE 0xD4 0x2A 0xEF 0xBB 0xD SLOAD PUSH10 0x64736F6C634300081B00 CALLER "},"methodIdentifiers":{"counter()":"61bc221a"}}}}}