{
  "_format": "hh-sol-artifact-1",
  "contractName": "CvhForwarderFactory",
  "sourceName": "contracts/CvhForwarderFactory.sol",
  "abi": [
    {
      "inputs": [
        {
          "internalType": "address",
          "name": "_implementationAddress",
          "type": "address"
        }
      ],
      "stateMutability": "nonpayable",
      "type": "constructor"
    },
    {
      "inputs": [],
      "name": "CloneCreationFailed",
      "type": "error"
    },
    {
      "anonymous": false,
      "inputs": [
        {
          "indexed": false,
          "internalType": "address",
          "name": "forwarderAddress",
          "type": "address"
        },
        {
          "indexed": false,
          "internalType": "address",
          "name": "parentAddress",
          "type": "address"
        },
        {
          "indexed": false,
          "internalType": "address",
          "name": "feeAddress",
          "type": "address"
        }
      ],
      "name": "ForwarderCreated",
      "type": "event"
    },
    {
      "inputs": [
        {
          "internalType": "address",
          "name": "deployer",
          "type": "address"
        },
        {
          "internalType": "address",
          "name": "parent",
          "type": "address"
        },
        {
          "internalType": "address",
          "name": "feeAddress",
          "type": "address"
        },
        {
          "internalType": "bytes32",
          "name": "salt",
          "type": "bytes32"
        }
      ],
      "name": "computeForwarderAddress",
      "outputs": [
        {
          "internalType": "address",
          "name": "",
          "type": "address"
        }
      ],
      "stateMutability": "view",
      "type": "function"
    },
    {
      "inputs": [
        {
          "internalType": "address",
          "name": "parent",
          "type": "address"
        },
        {
          "internalType": "address",
          "name": "feeAddress",
          "type": "address"
        },
        {
          "internalType": "bytes32",
          "name": "salt",
          "type": "bytes32"
        },
        {
          "internalType": "bool",
          "name": "_autoFlush721",
          "type": "bool"
        },
        {
          "internalType": "bool",
          "name": "_autoFlush1155",
          "type": "bool"
        }
      ],
      "name": "createForwarder",
      "outputs": [
        {
          "internalType": "address payable",
          "name": "forwarder",
          "type": "address"
        }
      ],
      "stateMutability": "nonpayable",
      "type": "function"
    },
    {
      "inputs": [],
      "name": "implementationAddress",
      "outputs": [
        {
          "internalType": "address",
          "name": "",
          "type": "address"
        }
      ],
      "stateMutability": "view",
      "type": "function"
    }
  ],
  "bytecode": "0x60a0604052348015600e575f5ffd5b50604051610573380380610573833981016040819052602b91603b565b6001600160a01b03166080526066565b5f60208284031215604a575f5ffd5b81516001600160a01b0381168114605f575f5ffd5b9392505050565b6080516104e861008b5f395f818160d5015281816101ca015261023601526104e85ff3fe608060405234801561000f575f5ffd5b506004361061003f575f3560e01c8063101dd356146100435780632f6f713e146101b2578063b97a2319146101c5575b5f5ffd5b610196610051366004610401565b604080516001600160a01b0395861660208083019190915294861681830152929094166060808401919091526080808401929092528451808403909201825260a0830185528151918401919091207f3d602d80600a3d3981f3363d3d373d3d3d363d7300000000000000000000000060c08401526bffffffffffffffffffffffff197f0000000000000000000000000000000000000000000000000000000000000000831b811660d48501527f5af43d82803e903d91602b57fd5bf3000000000000000000000000000000000060e8850152855180850360d701815260f7850187528051908601207fff000000000000000000000000000000000000000000000000000000000000006101178601523090931b1661011884015261012c83015261014c808301919091528351808303909101815261016c909101909252815191012090565b6040516001600160a01b03909116815260200160405180910390f35b6101966101c0366004610458565b6101ec565b6101967f000000000000000000000000000000000000000000000000000000000000000081565b60408051336020808301919091526001600160a01b03888116838501528716606083015260808083018790528351808403909101815260a090920190925280519101205f9061025b7f00000000000000000000000000000000000000000000000000000000000000008261033c565b6040517f2f7382840000000000000000000000000000000000000000000000000000000081526001600160a01b03898116600483015288811660248301528615156044830152851515606483015291935090831690632f738284906084015f604051808303815f87803b1580156102d0575f5ffd5b505af11580156102e2573d5f5f3e3d5ffd5b5050604080516001600160a01b0386811682528b811660208301528a168183015290517f139ba20e56683330b70b7512adc6d2a6f0c5d9fba743538456b45edfb6811ea89350908190036060019150a15095945050505050565b5f5f8360601b90506040517f3d602d80600a3d3981f3363d3d373d3d3d363d7300000000000000000000000081528160148201527f5af43d82803e903d91602b57fd5bf300000000000000000000000000000000006028820152836037825ff59250506001600160a01b0382166103df576040517f6f0dfba100000000000000000000000000000000000000000000000000000000815260040160405180910390fd5b5092915050565b80356001600160a01b03811681146103fc575f5ffd5b919050565b5f5f5f5f60808587031215610414575f5ffd5b61041d856103e6565b935061042b602086016103e6565b9250610439604086016103e6565b9396929550929360600135925050565b803580151581146103fc575f5ffd5b5f5f5f5f5f60a0868803121561046c575f5ffd5b610475866103e6565b9450610483602087016103e6565b93506040860135925061049860608701610449565b91506104a660808701610449565b9050929550929590935056fea2646970667358221220788b6967c708d8d111581acb971233443fab4661ec183b312fafc374abd7a2a264736f6c634300081b0033",
  "linkReferences": {},
  "deployedLinkReferences": {}
}