{
  "_format": "hh-sol-artifact-1",
  "contractName": "ReentrancyAttacker",
  "sourceName": "contracts/test/ReentrancyAttacker.sol",
  "abi": [
    {
      "inputs": [
        {
          "internalType": "address",
          "name": "_target",
          "type": "address"
        }
      ],
      "stateMutability": "nonpayable",
      "type": "constructor"
    },
    {
      "inputs": [],
      "name": "attackCount",
      "outputs": [
        {
          "internalType": "uint256",
          "name": "",
          "type": "uint256"
        }
      ],
      "stateMutability": "view",
      "type": "function"
    },
    {
      "inputs": [],
      "name": "target",
      "outputs": [
        {
          "internalType": "contract ICvhBatcher",
          "name": "",
          "type": "address"
        }
      ],
      "stateMutability": "view",
      "type": "function"
    },
    {
      "stateMutability": "payable",
      "type": "receive"
    }
  ],
  "bytecode": "0x6080604052348015600e575f5ffd5b50604051610335380380610335833981016040819052602b91604e565b5f80546001600160a01b0319166001600160a01b03929092169190911790556079565b5f60208284031215605d575f5ffd5b81516001600160a01b03811681146072575f5ffd5b9392505050565b6102af806100865f395ff3fe60806040526004361061002b575f3560e01c8063407c28211461015a578063d4b8399214610182575f5ffd5b36610156576001805410156101545760018054905f610049836101b8565b90915550506040805160018082528183019092525f916020808301908036833701905050905030815f81518110610082576100826101dc565b6001600160a01b0392909216602092830291909101909101526040805160018082528183019092525f918160200160208202803683370190505090505f815f815181106100d1576100d16101dc565b60209081029190910101525f80546040517f88d695b20000000000000000000000000000000000000000000000000000000081526001600160a01b03909116916388d695b29161012790869086906004016101f0565b5f604051808303818588803b15801561013e575f5ffd5b505af193505050508015610150575060015b5050505b005b5f5ffd5b348015610165575f5ffd5b5061016f60015481565b6040519081526020015b60405180910390f35b34801561018d575f5ffd5b505f546101a0906001600160a01b031681565b6040516001600160a01b039091168152602001610179565b5f600182016101d557634e487b7160e01b5f52601160045260245ffd5b5060010190565b634e487b7160e01b5f52603260045260245ffd5b604080825283519082018190525f9060208501906060840190835b818110156102325783516001600160a01b031683526020938401939092019160010161020b565b5050838103602080860191909152855180835291810192508501905f5b8181101561026d57825184526020938401939092019160010161024f565b5091969550505050505056fea264697066735822122075a414d79dcc3b8dea3f57ae5759486a8c9257dea278fe2620081585b31f9cff64736f6c634300081b0033",
  "linkReferences": {},
  "deployedLinkReferences": {}
}