{
  "_format": "hh-sol-artifact-1",
  "contractName": "CvhBatcher",
  "sourceName": "contracts/CvhBatcher.sol",
  "abi": [
    {
      "inputs": [],
      "stateMutability": "nonpayable",
      "type": "constructor"
    },
    {
      "inputs": [],
      "name": "BatchLimitOutOfRange",
      "type": "error"
    },
    {
      "inputs": [],
      "name": "EmptyBatch",
      "type": "error"
    },
    {
      "inputs": [],
      "name": "ExceedsBatchLimit",
      "type": "error"
    },
    {
      "inputs": [],
      "name": "GasLimitOutOfRange",
      "type": "error"
    },
    {
      "inputs": [],
      "name": "InsufficientETH",
      "type": "error"
    },
    {
      "inputs": [
        {
          "internalType": "address",
          "name": "owner",
          "type": "address"
        }
      ],
      "name": "OwnableInvalidOwner",
      "type": "error"
    },
    {
      "inputs": [
        {
          "internalType": "address",
          "name": "account",
          "type": "address"
        }
      ],
      "name": "OwnableUnauthorizedAccount",
      "type": "error"
    },
    {
      "inputs": [],
      "name": "RecoverFailed",
      "type": "error"
    },
    {
      "inputs": [],
      "name": "RefundFailed",
      "type": "error"
    },
    {
      "inputs": [],
      "name": "TransferFailed",
      "type": "error"
    },
    {
      "inputs": [],
      "name": "TransferFailed",
      "type": "error"
    },
    {
      "inputs": [],
      "name": "UnequalLengths",
      "type": "error"
    },
    {
      "inputs": [],
      "name": "ZeroAddressRecipient",
      "type": "error"
    },
    {
      "anonymous": false,
      "inputs": [
        {
          "indexed": true,
          "internalType": "address",
          "name": "sender",
          "type": "address"
        },
        {
          "indexed": false,
          "internalType": "address",
          "name": "recipient",
          "type": "address"
        },
        {
          "indexed": false,
          "internalType": "uint256",
          "name": "value",
          "type": "uint256"
        }
      ],
      "name": "BatchTransfer",
      "type": "event"
    },
    {
      "anonymous": false,
      "inputs": [
        {
          "indexed": false,
          "internalType": "uint256",
          "name": "newLimit",
          "type": "uint256"
        }
      ],
      "name": "BatchTransferLimitChange",
      "type": "event"
    },
    {
      "anonymous": false,
      "inputs": [
        {
          "indexed": true,
          "internalType": "address",
          "name": "previousOwner",
          "type": "address"
        },
        {
          "indexed": true,
          "internalType": "address",
          "name": "newOwner",
          "type": "address"
        }
      ],
      "name": "OwnershipTransferStarted",
      "type": "event"
    },
    {
      "anonymous": false,
      "inputs": [
        {
          "indexed": true,
          "internalType": "address",
          "name": "previousOwner",
          "type": "address"
        },
        {
          "indexed": true,
          "internalType": "address",
          "name": "newOwner",
          "type": "address"
        }
      ],
      "name": "OwnershipTransferred",
      "type": "event"
    },
    {
      "anonymous": false,
      "inputs": [
        {
          "indexed": false,
          "internalType": "uint256",
          "name": "newGasLimit",
          "type": "uint256"
        }
      ],
      "name": "TransferGasLimitChange",
      "type": "event"
    },
    {
      "inputs": [],
      "name": "acceptOwnership",
      "outputs": [],
      "stateMutability": "nonpayable",
      "type": "function"
    },
    {
      "inputs": [
        {
          "internalType": "address[]",
          "name": "recipients",
          "type": "address[]"
        },
        {
          "internalType": "uint256[]",
          "name": "values",
          "type": "uint256[]"
        }
      ],
      "name": "batchTransfer",
      "outputs": [],
      "stateMutability": "payable",
      "type": "function"
    },
    {
      "inputs": [],
      "name": "batchTransferLimit",
      "outputs": [
        {
          "internalType": "uint256",
          "name": "",
          "type": "uint256"
        }
      ],
      "stateMutability": "view",
      "type": "function"
    },
    {
      "inputs": [
        {
          "internalType": "address",
          "name": "tokenAddress",
          "type": "address"
        },
        {
          "internalType": "address[]",
          "name": "recipients",
          "type": "address[]"
        },
        {
          "internalType": "uint256[]",
          "name": "values",
          "type": "uint256[]"
        }
      ],
      "name": "batchTransferToken",
      "outputs": [],
      "stateMutability": "nonpayable",
      "type": "function"
    },
    {
      "inputs": [],
      "name": "owner",
      "outputs": [
        {
          "internalType": "address",
          "name": "",
          "type": "address"
        }
      ],
      "stateMutability": "view",
      "type": "function"
    },
    {
      "inputs": [],
      "name": "pendingOwner",
      "outputs": [
        {
          "internalType": "address",
          "name": "",
          "type": "address"
        }
      ],
      "stateMutability": "view",
      "type": "function"
    },
    {
      "inputs": [
        {
          "internalType": "address payable",
          "name": "to",
          "type": "address"
        }
      ],
      "name": "recover",
      "outputs": [],
      "stateMutability": "nonpayable",
      "type": "function"
    },
    {
      "inputs": [],
      "name": "renounceOwnership",
      "outputs": [],
      "stateMutability": "nonpayable",
      "type": "function"
    },
    {
      "inputs": [
        {
          "internalType": "uint256",
          "name": "_batchTransferLimit",
          "type": "uint256"
        }
      ],
      "name": "setBatchTransferLimit",
      "outputs": [],
      "stateMutability": "nonpayable",
      "type": "function"
    },
    {
      "inputs": [
        {
          "internalType": "uint256",
          "name": "_transferGasLimit",
          "type": "uint256"
        }
      ],
      "name": "setTransferGasLimit",
      "outputs": [],
      "stateMutability": "nonpayable",
      "type": "function"
    },
    {
      "inputs": [],
      "name": "transferGasLimit",
      "outputs": [
        {
          "internalType": "uint256",
          "name": "",
          "type": "uint256"
        }
      ],
      "stateMutability": "view",
      "type": "function"
    },
    {
      "inputs": [
        {
          "internalType": "address",
          "name": "newOwner",
          "type": "address"
        }
      ],
      "name": "transferOwnership",
      "outputs": [],
      "stateMutability": "nonpayable",
      "type": "function"
    }
  ],
  "bytecode": "0x6080604052348015600e575f5ffd5b503380603357604051631e4fbdf760e01b81525f600482015260240160405180910390fd5b603a81604a565b5061753060025560ff60035560b3565b600180546001600160a01b03191690556061816064565b50565b5f80546001600160a01b038381166001600160a01b0319831681178455604051919092169283917f8be0079c531659141344cd1fd0a4f28419497f9722a3daafe3b4186f6b6457e09190a35050565b610d6a806100c05f395ff3fe6080604052600436106100c3575f3560e01c80638da5cb5b11610071578063e30c39781161004c578063e30c3978146101d8578063e8f67c3b146101f5578063f2fde38b1461020a575f5ffd5b80638da5cb5b1461016157806396970b6814610196578063ba48e057146101b9575f5ffd5b806379ba5097116100a157806379ba50971461011b57806388d695b21461012f5780638c70830b14610142575f5ffd5b80630cd865ec146100c757806320651d5d146100e8578063715018a614610107575b5f5ffd5b3480156100d2575f5ffd5b506100e66100e1366004610b3c565b610229565b005b3480156100f3575f5ffd5b506100e6610102366004610ba6565b6102c7565b348015610112575f5ffd5b506100e6610469565b348015610126575f5ffd5b506100e661047c565b6100e661013d366004610c28565b6104c5565b34801561014d575f5ffd5b506100e661015c366004610c94565b6107da565b34801561016c575f5ffd5b505f546001600160a01b03165b6040516001600160a01b0390911681526020015b60405180910390f35b3480156101a1575f5ffd5b506101ab60035481565b60405190815260200161018d565b3480156101c4575f5ffd5b506100e66101d3366004610c94565b610867565b3480156101e3575f5ffd5b506001546001600160a01b0316610179565b348015610200575f5ffd5b506101ab60025481565b348015610215575f5ffd5b506100e6610224366004610b3c565b6108e8565b610231610965565b4780156102c3575f826001600160a01b0316826040515f6040518083038185875af1925050503d805f8114610281576040519150601f19603f3d011682016040523d82523d5f602084013e610286565b606091505b50509050806102c1576040517f74e6fd0800000000000000000000000000000000000000000000000000000000815260040160405180910390fd5b505b5050565b6102cf610965565b8281146102ef5760405163332ac86360e21b815260040160405180910390fd5b5f8390036103105760405163c2e5347d60e01b815260040160405180910390fd5b600354831115610333576040516368ebde9160e11b815260040160405180910390fd5b5f5b83811015610461575f85858381811061035057610350610cab565b90506020020160208101906103659190610b3c565b6001600160a01b03160361038c576040516308c9926560e31b815260040160405180910390fd5b6103d5868686848181106103a2576103a2610cab565b90506020020160208101906103b79190610b3c565b8585858181106103c9576103c9610cab565b90506020020135610991565b337fc42fa155158786a1dd6ccc3a785f35845467353c3cc700e0e31a79f90e22227d86868481811061040957610409610cab565b905060200201602081019061041e9190610b3c565b85858581811061043057610430610cab565b604080516001600160a01b0390951685526020918202939093013590840152500160405180910390a2600101610335565b505050505050565b610471610965565b61047a5f610aab565b565b60015433906001600160a01b031681146104b95760405163118cdaa760e01b81526001600160a01b03821660048201526024015b60405180910390fd5b6104c281610aab565b50565b6104cd610965565b8281146104ed5760405163332ac86360e21b815260040160405180910390fd5b5f83900361050e5760405163c2e5347d60e01b815260040160405180910390fd5b600354831115610531576040516368ebde9160e11b815260040160405180910390fd5b5f805b8481101561056a5783838281811061054e5761054e610cab565b90506020020135826105609190610cd3565b9150600101610534565b50348111156105a5576040517f6a12f10400000000000000000000000000000000000000000000000000000000815260040160405180910390fd5b5f5b8481101561073e575f8686838181106105c2576105c2610cab565b90506020020160208101906105d79190610b3c565b6001600160a01b0316036105fe576040516308c9926560e31b815260040160405180910390fd5b5f86868381811061061157610611610cab565b90506020020160208101906106269190610b3c565b6001600160a01b031685858481811061064157610641610cab565b90506020020135600254906040515f60405180830381858888f193505050503d805f811461068a576040519150601f19603f3d011682016040523d82523d5f602084013e61068f565b606091505b50509050806106b1576040516312171d8360e31b815260040160405180910390fd5b337fc42fa155158786a1dd6ccc3a785f35845467353c3cc700e0e31a79f90e22227d8888858181106106e5576106e5610cab565b90506020020160208101906106fa9190610b3c565b87878681811061070c5761070c610cab565b604080516001600160a01b0390951685526020918202939093013590840152500160405180910390a2506001016105a7565b505f61074a8234610cec565b90508015610461576040515f90339083908381818185875af1925050503d805f8114610791576040519150601f19603f3d011682016040523d82523d5f602084013e610796565b606091505b50509050806107d1576040517ff0c49d4400000000000000000000000000000000000000000000000000000000815260040160405180910390fd5b50505050505050565b6107e2610965565b6108fc8110806107f457506207a12081115b1561082b576040517f799da9a200000000000000000000000000000000000000000000000000000000815260040160405180910390fd5b60028190556040518181527fa902b3d40d931007147e6eea086443eaf319ccea5a1e3c46bf1e484e9de23fef906020015b60405180910390a150565b61086f610965565b80158061087c575060ff81115b156108b3576040517f1feac32400000000000000000000000000000000000000000000000000000000815260040160405180910390fd5b60038190556040518181527f648e250247c25235dbe130cd763668f3e5f482b617cb89afc7af363120f475d09060200161085c565b6108f0610965565b600180546001600160a01b03831673ffffffffffffffffffffffffffffffffffffffff19909116811790915561092d5f546001600160a01b031690565b6001600160a01b03167f38d16b8cac22d99fc7c124b9cd0de2d3fa1faef420bfe791d8c362d765e2270060405160405180910390a350565b5f546001600160a01b0316331461047a5760405163118cdaa760e01b81523360048201526024016104b0565b604080516001600160a01b038481166024830152604480830185905283518084039091018152606490920183526020820180517bffffffffffffffffffffffffffffffffffffffffffffffffffffffff167fa9059cbb0000000000000000000000000000000000000000000000000000000017905291515f92839290871691610a1a9190610cff565b5f604051808303815f865af19150503d805f8114610a53576040519150601f19603f3d011682016040523d82523d5f602084013e610a58565b606091505b5091509150811580610a8657505f8151118015610a86575080806020019051810190610a849190610d15565b155b15610aa4576040516312171d8360e31b815260040160405180910390fd5b5050505050565b6001805473ffffffffffffffffffffffffffffffffffffffff191690556104c2815f80546001600160a01b0383811673ffffffffffffffffffffffffffffffffffffffff19831681178455604051919092169283917f8be0079c531659141344cd1fd0a4f28419497f9722a3daafe3b4186f6b6457e09190a35050565b6001600160a01b03811681146104c2575f5ffd5b5f60208284031215610b4c575f5ffd5b8135610b5781610b28565b9392505050565b5f5f83601f840112610b6e575f5ffd5b50813567ffffffffffffffff811115610b85575f5ffd5b6020830191508360208260051b8501011115610b9f575f5ffd5b9250929050565b5f5f5f5f5f60608688031215610bba575f5ffd5b8535610bc581610b28565b9450602086013567ffffffffffffffff811115610be0575f5ffd5b610bec88828901610b5e565b909550935050604086013567ffffffffffffffff811115610c0b575f5ffd5b610c1788828901610b5e565b969995985093965092949392505050565b5f5f5f5f60408587031215610c3b575f5ffd5b843567ffffffffffffffff811115610c51575f5ffd5b610c5d87828801610b5e565b909550935050602085013567ffffffffffffffff811115610c7c575f5ffd5b610c8887828801610b5e565b95989497509550505050565b5f60208284031215610ca4575f5ffd5b5035919050565b634e487b7160e01b5f52603260045260245ffd5b634e487b7160e01b5f52601160045260245ffd5b80820180821115610ce657610ce6610cbf565b92915050565b81810381811115610ce657610ce6610cbf565b5f82518060208501845e5f920191825250919050565b5f60208284031215610d25575f5ffd5b81518015158114610b57575f5ffdfea2646970667358221220657b74becf13a44671c3d1045fdb511387b87a4412b2e70f7309d1f63a86a0ce64736f6c634300081b0033",
  "linkReferences": {},
  "deployedLinkReferences": {}
}